:020000040800F2
:1000000000000220414200082124000823240008A7
:1000100025240008272400082924000800000000E7
:100020000000000000000000000000002B24000879
:100030002D240008000000002F24000831240008AF
:100040009142000891420008914200089142000844
:100050009142000891420008914200089142000834
:100060009142000891420008914200089142000824
:100070009142000891420008914200089142000814
:1000800091420008914200089142000800000000DF
:100090000000000000000000000000009142000885
:1000A00091420008914200089142000891420008E4
:1000B00091420008914200089142000891420008D4
:1000C00091420008914200089142000891420008C4
:1000D0009142000891420008392400080000000005
:1000E000914200089142000891420008000000007F
:1000F0000000000000000000000000009142000825
:10010000000000009142000891420008914200085E
:1001100000000000000000000000000000000000DF
:1001200091420008914200084924000891420008C9
:1001300091420008000000000000000000000000E4
:1001400000000000000000000000000091420008D4
:100150009142000891420008914200089142000833
:1001600091420008914200080000000000000000D9
:10017000000000000000000000000000000000007F
:100180000000000091420008000000000000000094
:080190009142000891420008B1
:1001980010B5054C237833B9044B13B10448AFF3B9
:1001A80000800123237010BD7C00002000000000A7
:1001B8003857000808B5034B1BB103490348AFF390
:1001C800008008BD000000008000002038570008AB
:1001D80081F0004102E000BF83F0004330B54FEAF0
:1001E80041044FEA430594EA050F08BF90EA020F5D
:1001F8001FBF54EA000C55EA020C7FEA645C7FEAF0
:10020800655C00F0E2804FEA5454D4EB5555B8BF12
:100218006D420CDD2C4480EA020281EA030382EA83
:10022800000083EA010180EA020281EA0303362D15
:1002380088BF30BD11F0004F4FEA01314FF4801CE8
:100248004CEA113102D0404261EB410113F0004FFA
:100258004FEA03334CEA133302D0524263EB4303B1
:1002680094EA050F00F0A780A4F10104D5F1200E4F
:100278000DDB02FA0EFC22FA05F2801841F10001AA
:1002880003FA0EF2801843FA05F359410EE0A5F17E
:1002980020050EF1200E012A03FA0EFC28BF4CF0AF
:1002A800020C43FA05F3C01851EBE37101F0004565
:1002B80007D54FF0000EDCF1000C7EEB00006EEB72
:1002C8000101B1F5801F1BD3B1F5001F0CD34908FC
:1002D8005FEA30004FEA3C0C04F101044FEA445253
:1002E80012F5800F80F09A80BCF1004F08BF5FEADA
:1002F800500C50F1000041EB045141EA050130BDBA
:100308005FEA4C0C404141EB010111F4801FA4F15C
:100318000104E9D191F0000F04BF01460020B1FAB1
:1003280081F308BF2033A3F10B03B3F120020CDAE9
:100338000C3208DD02F1140CC2F10C0201FA0CF0C7
:1003480021FA02F10CE002F11402D8BFC2F1200C2C
:1003580001FA02F120FA0CFCDCBF41EA0C019040E2
:10036800E41AA2BF01EB0451294330BD6FEA04042B
:100378001F3C1CDA0C340EDC04F11404C4F1200216
:1003880020FA04F001FA02F340EA030021FA04F328
:1003980045EA030130BDC4F10C04C4F1200220FA7F
:1003A80002F001FA04F340EA0300294630BD21FABD
:1003B80004F0294630BD94F0000F83F4801306BF83
:1003C80081F480110134013D4EE77FEA645C18BF77
:1003D8007FEA655C29D094EA050F08BF90EA020F0E
:1003E80005D054EA000C04BF1946104630BD91EA06
:1003F800030F1EBF0021002030BD5FEA545C05D109
:100408004000494128BF41F0004130BD14F5800447
:100418003CBF01F5801130BD01F0004545F0FE41BB
:1004280041F470014FF0000030BD7FEA645C1ABFF0
:10043800194610467FEA655C1CBF0B46024650EA27
:10044800013406BF52EA033591EA030F41F4002153
:1004580030BD00BF90F0000F04BF0021704730B5D9
:100468004FF4806404F132044FF000054FF00001AE
:1004780050E700BF90F0000F04BF0021704730B56F
:100488004FF4806404F1320410F0004548BF404244
:100498004FF000013EE700BF42004FEAE2014FEA99
:1004A80031014FEA02701FBF12F07F4393F07F4F74
:1004B80081F06051704732F07F4208BF704793F077
:1004C8007F4F04BF41F40021704730B54FF460748A
:1004D80001F0004521F000411CE700BF50EA01028D
:1004E80008BF704730B54FF000050AE050EA010236
:1004F80008BF704730B511F0004502D5404261EBA6
:1005080041014FF4806404F132045FEA915C3FF4E6
:10051800D8AE4FF003025FEADC0C18BF03325FEA83
:10052800DC0C18BF033202EBDC02C2F1200300FA34
:1005380003FC20FA02F001FA03FE40EA0E0021FA59
:1005480002F11444BDE600BF70B54FF0FF0C4CF447
:10055800E06C1CEA11541DBF1CEA135594EA0C0FF9
:1005680095EA0C0F00F0DEF82C4481EA030621EA34
:100578004C5123EA4C5350EA013518BF52EA03356F
:1005880041F4801143F4801338D0A0FB02CE4FF021
:100598000005E1FB02E506F00042E0FB03E54FF051
:1005A8000006E1FB03569CF0000F18BF4EF0010E49
:1005B800A4F1FF04B6F5007F64F5407404D25FEA45
:1005C8004E0E6D4146EB060642EAC62141EA5551F8
:1005D8004FEAC52040EA5E504FEACE2EB4F1FD0C3A
:1005E80088BFBCF5E06F1ED8BEF1004F08BF5FEAB8
:1005F800500E50F1000041EB045170BD06F000466A
:1006080046EA010140EA020081EA0301B4EB5C0416
:10061800C2BFD4EB0C0541EA045170BD41F480110E
:100628004FF0000E013C00F3AB8014F1360FDEBF33
:10063800002001F0004170BDC4F10004203C35DA0F
:100648000C341BDC04F11404C4F1200500FA05F392
:1006580020FA04F001FA05F240EA020001F0004233
:1006680021F0004110EBD37021FA04F642EB0601A9
:100678005EEA430E08BF20EAD37070BDC4F10C04D3
:10068800C4F1200500FA04F320FA05F001FA04F297
:1006980040EA020001F0004110EBD37041F1000183
:1006A8005EEA430E08BF20EAD37070BDC4F120058E
:1006B80000FA05F24EEA020E20FA04F301FA05F2F6
:1006C80043EA020321FA04F001F0004121FA04F29E
:1006D80020EA020000EBD3705EEA430E08BF20EA6E
:1006E800D37070BD94F0000F0FD101F000464000A8
:1006F80041EB010111F4801F08BF013CF7D041EA2A
:10070800060195F0000F18BF704703F0004652002D
:1007180043EB030313F4801F08BF013DF7D043EAFE
:100728000603704794EA0C0F0CEA135518BF95EAB4
:100738000C0F0CD050EA410618BF52EA4306D1D13B
:1007480081EA030101F000414FF0000070BD50EA5A
:10075800410606BF1046194652EA430619D094EAE4
:100768000C0F02D150EA013613D195EA0C0F05D1CE
:1007780052EA03361CBF104619460AD181EA030122
:1007880001F0004141F0FE4141F470014FF00000DA
:1007980070BD41F0FE4141F4780170BD70B54FF075
:1007A800FF0C4CF4E06C1CEA11541DBF1CEA1355F5
:1007B80094EA0C0F95EA0C0F00F0A7F8A4EB0504D7
:1007C80081EA030E52EA03354FEA013100F08880CE
:1007D8004FEA03334FF0805545EA131343EA126397
:1007E8004FEA022245EA111545EA10654FEA00264C
:1007F8000EF000419D4208BF964244F1FD0404F505
:10080800407402D25B084FEA3202B61A65EB030560
:100818005B084FEA32024FF480104FF4002CB6EB1D
:10082800020E75EB030E22BFB61A754640EA0C009D
:100838005B084FEA3202B6EB020E75EB030E22BFDD
:10084800B61A754640EA5C005B084FEA3202B6EB1E
:10085800020E75EB030E22BFB61A754640EA9C00DD
:100868005B084FEA3202B6EB020E75EB030E22BFAD
:10087800B61A754640EADC0055EA060E18D04FEA6B
:10088800051545EA16754FEA06164FEAC30343EA0B
:1008980052734FEAC2025FEA1C1CC0D111F4801FD8
:1008A8000BD141EA00014FF000004FF0004CB6E7D1
:1008B80011F4801F04BF01430020B4F1FD0C88BF70
:1008C800BCF5E06F3FF6AFAEB5EB030C04BFB6EB7B
:1008D800020C5FEA500C50F1000041EB045170BD6E
:1008E8000EF0004E4EEA113114EB5C04C2BFD4EB9B
:1008F8000C0541EA045170BD41F480114FF0000E1F
:10090800013C90E645EA060E8DE60CEA135594EA9A
:100918000C0F08BF95EA0C0F3FF43BAF94EA0C0F9D
:100928000AD150EA01347FF434AF95EA0C0F7FF412
:1009380025AF104619462CE795EA0C0F06D152EA66
:1009480003353FF4FDAE1046194622E750EA41064A
:1009580018BF52EA43067FF4C5AE50EA41047FF45B
:100968000DAF52EA43057FF4EBAE12E74FF0FF3CC0
:1009780006E000BF4FF0010C02E000BF4FF0010C91
:100988004DF804CD4FEA410C7FEA6C5C4FEA430C0A
:1009980018BF7FEA6C5C1BD001B050EA410C0CBF59
:1009A80052EA430C91EA030F02BF90EA020F0020BB
:1009B800704710F1000F91EA030F58BF994208BF22
:1009C80090422CBFD8176FEAE37040F001007047DF
:1009D8004FEA410C7FEA6C5C02D150EA013C07D136
:1009E8004FEA430C7FEA6C5CD6D152EA033CD3D081
:1009F8005DF8040B704700BF8446104662468C467B
:100A08001946634600E000BF01B5FFF7B7FF0028AD
:100A180048BF10F1000F01BD4DF808EDFFF7F4FFD6
:100A28000CBF012000205DF808FB00BF4DF808ED61
:100A3800FFF7EAFF34BF012000205DF808FB00BF84
:100A48004DF808EDFFF7E0FF94BF012000205DF8A6
:100A580008FB00BF4DF808EDFFF7CEFF94BF01205B
:100A680000205DF808FB00BF4DF808EDFFF7C4FF54
:100A780034BF012000205DF808FB00BF4FEA4102A7
:100A8800B2F1E04324BFB3F5001CDCF1FE5C0DD9E4
:100A980001F0004C4FEAC0024CEA5070B2F1004F2E
:100AA80040EB830008BF20F00100704711F0804F31
:100AB80021D113F13872BCBF01F00040704741F4F6
:100AC80080114FEA5252C2F11802C2F1200C10FAFA
:100AD8000CF320FA02F018BF40F001004FEAC123DE
:100AE8004FEAD32303FA0CFC40EA0C0023FA02F382
:100AF8004FEA4303CCE77FEA625307D150EA013358
:100B08001EBF4FF0FE4040F44000704701F0004027
:100B180040F0FE4040F40000704700BF53B94AB9A6
:100B2800002908BF00281CBF4FF0FF314FF0FF30ED
:100B380000F072B9ADF1080C6DE904CE00F006F8CA
:100B4800DDF804E0DDE9022304B070472DE9F04741
:100B5800089E04468846002B4BD18A42154667D921
:100B6800B2FA82F24AB1C2F1200701FA02F320FA7E
:100B780007F7954047EA030894404FEA154E230CBF
:100B8800B8FBFEF71FFA85FC0EFB178843EA0843FB
:100B980007FB0CF1994209D9EB1807F1FF3080F0F7
:100BA8001B81994240F21881023F2B445B1AA4B280
:100BB800B3FBFEF00EFB103344EA034400FB0CFCCD
:100BC800A44509D92C1900F1FF3380F00781A44509
:100BD80040F2048102382C4440EA0740A4EB0C049C
:100BE80000271EB1D4400023C6E900433946BDE8BA
:100BF800F0878B4209D9002E00F0EB800027C6E968
:100C0800000138463946BDE8F087B3FA83F7002F6C
:100C180047D18B4202D3824200F2FA80841A61EBF8
:100C2800030301209846002EE0D0C6E90048DDE71E
:100C380002B9FFDEB2FA82F2002A40F08F80491B27
:100C48004FEA154E1FFA85F80127B1FBFEFC230C6D
:100C58000EFB1C1143EA014308FB0CF1994207D92A
:100C6800EB180CF1FF3002D2994200F2CD80844695
:100C7800591AA3B2B1FBFEF00EFB101443EA044468
:100C880008FB00F8A04507D92C1900F1FF3302D260
:100C9800A04500F2B6801846A4EB080440EA0C40D0
:100CA8009FE7C7F1200CBB4022FA0CFE4EEA030E68
:100CB80001FA07F420FA0CF521FA0CF34FEA1E4862
:100CC8002543B3FBF8F92C0C08FB19331FFA8EFAED
:100CD80044EA034309FB0AF49C4202FA07F200FAC9
:100CE80007F10BD91EEB030309F1FF3080F0878071
:100CF8009C4240F28480A9F1020973441B1BADB2E7
:100D0800B3FBF8F008FB103345EA034400FB0AFA8A
:100D1800A24508D91EEB040400F1FF336BD2A245AB
:100D280069D90238744440EA0940A0FB0289A4EB5F
:100D38000A044C45C2464B4654D351D0002E69D0C4
:100D4800B1EB0A0564EB030404FA0CFCFD40FC401B
:100D58004CEA0505C6E90054002747E7C2F120031D
:100D680020FA03F7954001FA02F021FA03F34FEA5B
:100D7800154E3843010CB3FBFEF71FFA85F80EFB3E
:100D8800173341EA034107FB08F38B4204FA02F4E4
:100D980007D9691807F1FF3C2FD28B422DD9023FA2
:100DA8002944CB1A81B2B3FBFEF00EFB103341EAA3
:100DB800034100FB08F38B4207D9691800F1FF3C97
:100DC80017D28B4215D902382944C91A40EA074775
:100DD8003BE73746304609E70746E7E61846FBE6AD
:100DE8004145ABD2B8EB020A69EB0E020138134653
:100DF800A4E76046E9E7184695E76746D1E78146E4
:100E08007CE702382C4447E7ACF1020C2B442FE76F
:100E1800384608E73746E9E6704700BF0123037004
:100E2800002303614361044A4260044AC260044AE1
:100E38008261C361704700BFCDCC4C3E6666663F99
:100E4800CDCC4C3F08B5DFED070AB3EE040A00F03D
:100E5800FDFDDFED057A80EE270A044B83ED000ADD
:100E680008BD00BF000096440000FA46AC00002010
:100E780010B52DED028B0446B0EE408A10EE100A34
:100E8800FFF70AFB0EA3D3E90023FFF7EDFD08B136
:100E98009FED098AB6EE000A28EE008A84ED018AE1
:100EA8009FED060A28EE000A00F046FE84ED020ACD
:100EB800BDEC028B10BD00BF3333233FDB0F49402D
:100EC800666666666666E43FF7EE007A37EEC00A45
:100ED80080ED030ADFED047AB4EEE70AF1EE10FACA
:100EE80001D5C0ED037A70470AD7233C08B507EE51
:100EF800900AB8EEE70ADFED047A80EE270A034885
:100F0800FFF7E2FF08BD00BF0000FE42B00000206E
:100F180008B5400007EE900AB8EEE70ADFED047A5C
:100F280080EE270A03F0E4F9024B187008BD00BFF1
:100F38000000FE42B000002010B52DED0C8B0446D9
:100F4800F0EE409A90ED028A90ED017ADFED5B7A3F
:100F5800B4EEE77AF1EE10FA80F2888090ED03BAE9
:100F680028EE089A94ED060A20EE290A00F0D4FD2E
:100F7800B0EE40AA94ED070A30EE0A0AF6EE00BA7F
:100F880020EE2B0A84ED07AA7BEE0BAAD4ED047A97
:100F98006AEEA77A30EE670AD4ED057A30EE670A72
:100FA80020EE2B0A00F06CFDF0EE408A94ED040A66
:100FB80020EE2B0A00F064FDF0EE40BA68EE287AC5
:100FC80077EEA77A27EE8B7AB7EE006A37EE067AC5
:100FD80086EE07DA94ED040AD4ED056A69EE0D7A17
:100FE80067EEA87A67EEAB7A2AEE277A37EE267A8A
:100FF80068EE0D6A66EEAB6A66EE806A37EE267AB0
:1010080077EE867A87EE27CA3AEE4C9A29EE289A26
:1010180000F082FD68EE09CA70EE2CCA6CEE8DCA2B
:1010280094ED040A00F078FD38EE088A78EEA88A74
:1010380068EE8B8A68EEAC8A79EE688A68EE288A50
:1010480070EE288AC4ED048AD4ED057A28EE2B8A3E
:1010580028EE2C8A37EE888A84ED058A2378012BBE
:1010680007D0022B1CD0B0EE690A06E0B7EE00BA32
:1010780076E7B0EE4C0A00F025FDF7EE007AB4EE04
:10108800E70AF1EE10FA01DDB0EE670AFFEE007A2A
:10109800B4EEE70AF1EE10FA0DD4BDEC0C8B10BDDE
:1010A8002AEEAC0A3AEE400A70EE4C9A9FED040A1A
:1010B80029EE800AE1E7B0EE670AEEE74B59E63E13
:1010C800AE47613F08B57F4B1B78B02B00D008BDF9
:1010D8007D4B18787D4B1B78013B622BF7D801A21A
:1010E80052F823F079120008D7100008D71000082A
:1010F800D7100008D71000087F12000885120008D2
:10110800D7100008D7100008D7100008D71000081B
:10111800D7100008D7100008D7100008D71000080B
:10112800D7100008D7100008D7100008D7100008FB
:10113800D7100008D7100008D7100008D7100008EB
:10114800D7100008D7100008D7100008D7100008DB
:10115800D7100008D7100008D7100008D7100008CB
:10116800D7100008D7100008D7100008D7100008BB
:10117800D7100008D7100008D7100008D7100008AB
:10118800D71000088B120008911200089712000867
:101198009D120008D7100008D7100008D7100008C3
:1011A800D7100008D7100008D7100008D71000087B
:1011B800D7100008D7100008D7100008D71000086B
:1011C800D7100008D7100008D7100008D71000085B
:1011D800A3120008D7100008D7100008D71000087D
:1011E800D7100008D7100008D7100008D71000083B
:1011F800D7100008A9120008AF120008B51200089D
:10120800D7100008BB120008C1120008D710000848
:10121800D7100008D7100008D7100008D71000080A
:10122800D7100008D7100008D7100008D7100008FA
:10123800D7100008D7100008D7100008D7100008EA
:10124800D7100008D7100008D7100008D7100008DA
:10125800D7100008D7100008D7100008D7100008CA
:10126800D7100008D7100008D7100008C7120008C8
:1012780000F092FF2BE700F0B1FF28E700F07AFFBB
:1012880025E700F049F822E700F07EF81FE700F0B4
:10129800B1F81CE700F0D4F819E700F08FFF16E763
:1012A80000F0CEFF13E700F0E5FF10E7FFF71EFEA2
:1012B8000DE7FFF72DFE0AE7FFF7C4FD07E700F08B
:1012C800A3FF04E79C100020A3100020EC100020CE
:1012D80000230361044B03604360044A8260C360D7
:1012E80004234361704700BFCDCCCC3D6666663FA2
:1012F800002343617047032343617047DFED057A9C
:1013080020EE270AB3EE097AC7EE007AC0ED007A1C
:10131800704700BF0000FA4608B59FED0D0AF8EEC9
:10132800082A07EE900AB8EE672AF6EE001AB0EE21
:10133800401ADFED080A00F027FC074B83ED000A8E
:10134800DFED067A30EE270A0548FFF7D7FF08BD1C
:10135800000000000000FE429800002017B7D138B6
:10136800D0000020DFED057A20EE270A9FED047AF1
:10137800C7EE007AC0ED017A704700BF0000FA4658
:10138800000020420000000008B5FFF773F80DA325
:10139800D3E90023FFF7D8F80CA3D3E90023FFF71C
:1013A800FDF90CA3D3E90023FEF718FFFFF766FB4E
:1013B80000EE100A0248FFF7D5FF08BDAFF3008022
:1013C800D0000020666666666666D63F00000000AC
:1013D80000C05F40000000E0E2361A3F4369022B7C
:1013E80002D080ED020A704780ED020A80ED040AFF
:1013F8007047000008B507EE900AB8EEE77ADFED0F
:10140800067A87EE270ADFED057A30EE270A0448C8
:10141800FFF7E4FF08BD00BF0000FE4217B7D13850
:10142800D0000020DFED057A20EE270AB3EE097A16
:10143800C7EE007AC0ED037A704700BF0000FA4695
:1014480008B59FED0D0AF9EE042A07EE900AB8EEEA
:10145800672AF6EE001AB0EE401ADFED080A00F02F
:1014680093FB074B83ED010ADFED067A30EE270A7E
:101478000548FFF7D7FF08BD000000000000FE4246
:101488009800002017B7D138D000002000000000D5
:101498002DE9D04304464369012B34D0032B60D097
:1014A8001BB194ED040ABDE8D0830069FEF7F4FF90
:1014B80006460F462068FEF7EFFF8046894632460B
:1014C8003B463FA1D1E90001FEF786FE02460B46E6
:1014D80040464946FFF738F802460B46304639463B
:1014E800FEF77CFEFFF7CAFA07EE900A2061B7EE16
:1014F800007AF4EEC77AF1EE10FAD2DB84ED047AC2
:1015080001236361CDE70069FEF7C6FF06460F4673
:101518006068FEF7C1FF8046894632463B462AA1ED
:10152800D1E90001FEF758FE02460B4640464946FF
:10153800FFF70AF802460B4630463946FEF74EFEDC
:10154800FFF79CFA07EE900A206194ED027AF4EE18
:10155800C77AF1EE10FAA4D884ED047A0223636105
:101568009FE70069FEF798FF06460F46E068FEF71A
:1015780093FF8046894632463B4615A1D1E90001D2
:10158800FEF72AFE02460B4640464946FEF7DCFFB8
:1015980002460B4630463946FEF720FEFFF76EFA44
:1015A80007EE900A2061F5EEC07AF1EE10FA3FF6E8
:1015B80078AF002323610423636172E7AFF30080EF
:1015C800555555555555F53F545555555555D5BF50
:1015D800B22CCBB22CCBE2BF82B0002100910B4BD6
:1015E8001A6B42F080021A631A6B02F080020092B2
:1015F800009A01911A6B42F001021A631B6B03F007
:1016080001030193019B02B0704700BF00380240FC
:1016180008B50948094B03604FF400734360002381
:101628008360C36003614FF4FA4242618361C3611E
:10163800036201F0CDFB08BDA4100020003001407A
:1016480000B583B000220192094B196B41F4800167
:1016580019631B6B03F480030193019B0D213A204E
:1016680001F06EF83A2001F09FF803B05DF804FB32
:101678000038024008B50848084B036047F61223B3
:10168800436000238360C36003610C22426183616D
:10169800C36102F079FC08BDF0100020004400404E
:1016A80008B54FF4FA71024800F03AFF08BD00BFD0
:1016B800FC00002008B54FF4FA71024800F030FF32
:1016C80008BD00BFCC08002010B5124B1B783BB1F9
:1016D80000230F2B1CDC104AD25C72B10133F8E7EF
:1016E8000D4C20700D48FFF703FE22780C4B1A7042
:1016F800084A1378013313700AE0074AD054084B9C
:1017080018700648FFF7F4FD024A13780133137086
:1017180010BD00BFA0000020E8000020D00000207D
:101728000000002038B50446274B1B78834210D0B0
:10173800264B1B78012B28D9244B1D78012D41D924
:1017480000230F2B3EDC224AD25CA24228D0013370
:10175800F7E71E4B1B78012BEAD900250F2D31DC4A
:101768001B4B5B5DA34201D00135F7E76B1E184C9C
:10177800E25C154B1A701748FFF7BAFD0023635552
:10178800124A1378013B13701CE01248FFF7B3FDAF
:101798000F4B00221A700D4A1378013B1370CBE7E8
:1017A8000B4A0021D1545A1C04E00949885CC854EA
:1017B800013301320F2AF8DD054B0022DA73013DAF
:1017C800024B1D7038BD00BF00000020A0000020A3
:1017D800E8000020D000002010B5114B1A78114BFA
:1017E8001B7843EAC213A3F5005300EE903AF8EED3
:1017F800E00ADFED0D7A60EEA70A0C4C637807EE7D
:10180800903AF8EEE77A67EEA00AF2EE087AC0EEB0
:10181800A70AB0EE000A02F047FE84ED010A10BDE7
:10182800A3100020EC100020000000390000002068
:1018380008B51F4A13781F490B7050781E49087065
:1018480092781E490A700AB9902B08D0802B0ED0C6
:10185800902B14D0B02B1AD0E02B20D008BDFFF766
:1018680061FF01221649174802F0BDFBF6E7FFF7B2
:1018780059FF01221249134802F0B5FBEEE7FFF7C2
:1018880023FF01220E490F4802F0ADFBE6E7FFF700
:1018980019FC01220A490B4802F0A5FBDEE7FFF715
:1018A8009BFF01220649074802F09DFBD6E700BFCF
:1018B800A01000209C100020EC100020A310002095
:1018C800F8000020F010002008B5194B1B78EF2B0A
:1018D8000FD813F0800F12D1164A5278D2B9164A8F
:1018E80053700122134B5A701149144802F07BFBC4
:1018F80008BD01220E49114802F075FBF8E70E4AAF
:1019080013700C4B00225A70012209490B4802F04F
:101918006AFBEDE7074A00215170074A93700122DC
:101928000349064802F05FFBFFF782FFE0E700BFCC
:10193800F8000020A0000020A0100020F0100020D7
:1019480070B59AB0302200210EA802F0C9FC00241C
:1019580009940A940B940C940D940394049405949C
:1019680006940794089401941F4B1A6C42F0805215
:101978001A641B6C03F080530193019B02941B4B68
:101988001A6842F440421A601B6803F44043029309
:10199800029B01260E964FF480330F93022514956F
:1019A8004FF4800315930C2316936023179318950F
:1019B800042319930EA801F0A1FD0F2309930A959A
:1019C8000B944FF480530C930D94032109A801F054
:1019D800DBFF0396C223059310230493069503A8FF
:1019E80002F0A8F81AB070BD00380240007000403C
:1019F80008B500F067FEFFF7A3FFFFF7EDFDFFF75F
:101A08001FFEFFF705FEFFF735FE00F02FFD094C1E
:101A1800204601F0DDF94FF4FA620749204601F04B
:101A2800A5FA064B00225A7001220549054802F022
:101A3800DAFAF9E7A4100020FC000020A01000202A
:101A4800F8000020F01000207047000008B52DEDC8
:101A5800028B07EE900AB0EE408AB0EE600AF8EE0C
:101A6800E77ADFED060AC7EEA00A80EE080A02F060
:101A78001BFD20EE080ABDEC028B08BD0000FE42EB
:101A880060EE006A9FED0C7A36EE877A27EE267AAA
:101A98009FED0A6A37EE067AF2EE0E7A66EEA77ABC
:101AA8009FED070A37EE800A20EE260A30EE060A76
:101AB80087EE000A704700BF0000D24200406C4425
:101AC8000000D243DFED107AB4EEE70AF1EE10FA27
:101AD80013D4DFED0E7AB4EEE70AF1EE10FA0FDC5C
:101AE8009FED0B7A20EE077A20EE000ADFED097AE7
:101AF80070EE277A87EE270A7047BFEE000A704714
:101B0800B7EE000A704700BF9A99F9BF9A99F93F52
:101B1800CDCC8440AE47894008B52DED028BB0EEA0
:101B2800408AB6EE000A28EE000AFFF7A9FF20EE69
:101B3800080ABDEC028B08BDBAEE0E7A20EE077AD1
:101B480060EE007A67EE807A37EE277A70EE007AD8
:101B580027EE800AF1EE047A30EE670AF0EE087A92
:101B680020EE270A87EE000A704730EE600A32EE50
:101B7800612A20EE020A71EE600AC0EE207A37EE82
:101B8800A10A70470000000008B52DED068BF0EEA5
:101B9800409AB0EE60AAF0EE418AB0EE619AB0EEDB
:101BA800428AF2EE047AF4EEE72AF1EE10FA01DD49
:101BB800F0EE672AFAEE047AF4EEE72AF1EE10FA6C
:101BC80001D5F0EE672A12EE900AFEF765FC25A310
:101BD800D3E90023FEF7B8FCFEF750FF00EE900AA9
:101BE800B2EE040A02F060FCF0EE400AB4EEE98AB4
:101BF800F1EE10FA01D5B0EE698AB4EECA8AF1EEB8
:101C080010FA01DDB0EE4A8A7AEE697AB4EEE89A03
:101C1800F1EE10FA13DD39EE689A002338EE698A7E
:101C280088EE270AF4EECA9AF1EE10FA12DC53B9DC
:101C380002F03AFC20EE099A39EE280A0CE038EE58
:101C4800C99A0123EAE702F02FFC20EE099A38EE40
:101C5800C90A01E09FED020ABDEC068B08BD00BF72
:101C6800000000009A9999999999B9BF80ED000AE6
:101C780080ED010A002303734373C0ED020A0023B9
:101C88000361036283614FF07E53C361704780ED47
:101C9800020A704705E09FED297A77EE877AC0ED52
:101CA800047AD0ED047AF5EEC07AF1EE10FAF2D4A7
:101CB80005E09FED227A77EEC77AC0ED047AD0ED81
:101CC800047A9FED1E7AF4EEC77AF1EE10FAF0DA94
:101CD8009FED1B7AF4EEC77AF1EE10FA1ED490ED60
:101CE800007AF6EE006A27EE267A9FED156AC7EEAF
:101CF800866AB0EE006A76EEC66A27EE267A80ED2E
:101D0800087A90ED027ADFED0F6A27EE267A77EEF1
:101D1800877AC0ED047A90ED080A704790ED007A52
:101D2800F6EE006A27EE267A9FED056AC7EE866A08
:101D380027EE267A80ED087AE3E700BFDB0FC9407B
:101D4800DB0F49402FE34D3905E09FED277A77EE09
:101D5800877AC0ED047AD0ED047AF5EEC07AF1EE18
:101D680010FAF2D405E09FED207A77EEC77AC0ED3D
:101D7800047AD0ED047A9FED1C7AF4EEC77AF1EE7E
:101D880010FAF0DA9FED197AF4EEC77AF1EE10FA4C
:101D98001AD4D0ED006A9FED167A27EE877AB0EE56
:101DA800086A37EE467A26EE877A80ED087A90ED53
:101DB800027ADFED106A27EE267A77EE877AC0ED91
:101DC800047A90ED080A7047D0ED006A9FED0A7A10
:101DD80027EE877AB7EE006A37EE067A26EE877A1C
:101DE80080ED087AE3E700BFDB0FC940DB0F49400D
:101DF80083F9223F2FE34D3983F922BF05E09FED98
:101E08001D7A77EE877AC0ED047AD0ED047AF5EE84
:101E1800C07AF1EE10FAF2D405E09FED167A77EE6B
:101E2800C77AC0ED047AD0ED047A9FED127AF4EE09
:101E3800C77AF1EE10FAF0DA9FED0F7AF4EEC77A6E
:101E4800F1EE10FA12D490ED007AB1EE477A80EDF7
:101E5800087A90ED027ADFED096A27EE267A77EEA6
:101E6800877AC0ED047A90ED080A70470368036228
:101E7800EFE700BFDB0FC940DB0F49402FE34D39C7
:101E880010B52DED028B044605E09FED1A7A77EE2A
:101E9800877AC4ED047AD4ED047AF5EEC07AF1EECF
:101EA80010FAF2D405E0DFED137A38EE678A84ED94
:101EB800048A94ED048ADFED0F7AB4EEE78AF1EE36
:101EC80010FAF0DAB0EE480A02F0ACFAD4ED007A73
:101ED80027EE800A84ED080AD4ED027A9FED067A8F
:101EE80067EE877A38EE278A84ED048ABDEC028B88
:101EF80010BD00BFDB0FC9402FE34D3905E09FED52
:101F0800377A77EE877AC0ED047AD0ED047AF5EE69
:101F1800C07AF1EE10FAF2D405E09FED307A77EE50
:101F2800C77AC0ED047AD0ED047A9FED2C7AF4EEEE
:101F3800C77AF1EE10FAF0DA90ED027ADFED286A4E
:101F4800B4EEE67AF1EE10FA34D5DFED266A67EEE4
:101F5800266AC0ED056A90ED056ADFED236AB4EEE6
:101F6800E66AF1EE10FA01D8C0ED056AD0ED056A0F
:101F7800F4EEE67AF1EE10FA1FD490ED005A37EE3F
:101F8800A76ADFED165A36EE656A36EE666A25EE02
:101F9800066A75EEE66AC6EE265AC0ED085ADFED07
:101FA800136A27EE267A77EE877AC0ED047A90EDE9
:101FB800080A70470E4B4361CDE7D0ED005AB8EEE2
:101FC800005A85EE266A67EE866AB7EE006A76EEF4
:101FD800866A65EEA66AC0ED086AE0E7DB0FC940CD
:101FE8000000FA452EE3CD3917B7D1382FE34D3924
:101FF800DB0F49400000000010B52DED028B0446B0
:1020080005E09FED357A77EE877AC4ED047AD4ED52
:10201800047AF5EEC07AF1EE10FAF2D405E0DFEDBD
:102028002E7A38EE678A84ED048A94ED048ADFED0F
:102038002A7AB4EEE78AF1EE10FAF0DA274BD3EDFC
:10204800008A18EE900AFEF727FA21A3D3E90023A5
:10205800FEF70AFDF0B1B4EEE88AF1EE10FA12D5F7
:1020680023682362D4ED027A9FED1D7A27EE877AE2
:10207800D4ED047A77EE877AC4ED047A94ED080AF1
:10208800BDEC028B10BDD4ED007AF1EE677AC4ED99
:10209800087AE7E71348FFF7F3FEB1EE082ADFED09
:1020A800121AB7EE001AFFEE000AFFF75EFDB4EE53
:1020B800C08AF1EE10FA06D4D4ED007AF1EE677A10
:1020C800C4ED087ACEE723682362CBE7AFF300803C
:1020D8007B14AE47E17AC43FDB0FC940A40000205F
:1020E8002FE34D39B41100209A99193E00000000E1
:1020F80010B504461C48FFF7CAFD052C2DD8DFE8AB
:1021080004F003070F13171B1748FFF7C3FD10BD93
:102118001548FFF773FEDFED157A20EE270AF6E77C
:102128001148FFF711FEF2E70F48FFF7A9FEEEE7A7
:102138000D48FFF7E3FEEAE70B48FFF75DFF10EEF7
:10214800100AFEF7A9F906A3D3E90023FEF7FCF964
:10215800FEF794FC00EE100AD9E79FED050AD6E7D2
:102168009A9999999999D93F90110020CDCCCC3E54
:102178000000000007EE900AF8EEE76A9FED047A87
:10218800C6EE877A67EEA77A024BC3ED007A7047EE
:102198000000FE420012002007EE900AF8EEE77AEF
:1021A8009FED047A67EE877A67EEA77A024BC3ED54
:1021B800007A70470402813BD811002007EE900A8C
:1021C800F8EEE77A9FED037A67EE877A024BC3ED64
:1021D800027A70470683C13DD811002008B507EE82
:1021E800900AB8EEE70ADFED067A20EE270A02F039
:1021F800BFF8FCEEC07A17EE902A024B1A7008BDA1
:102208008542213DFC11002008B5B1EE082ADFED1A
:10221800081A9FED081ADFED080A07EE900AB8EED3
:10222800670AFFF7A2FC054B83ED000A08BD00BF53
:102238009A99193E0000FE4200000000A400002008
:1022480008B5DFED090AB7EE002AF0EE601A9FED37
:10225800071A07EE900AB8EE670AFFF786FC044BE8
:1022680083ED000A08BD00BF000000000000FE4228
:10227800B411002008B5DFED090AB0EE042AF0EE2B
:10228800601A9FED071A07EE900AB8EE670AFFF783
:102298006CFC044B83ED020A08BD00BF000000007F
:1022A8000000FE42B411002082B0002100910B4BC7
:1022B8005A6C42F480425A645A6C02F4804200928A
:1022C800009A01911A6C42F080521A641B6C03F058
:1022D80080530193019B02B0704700BF0038024051
:1022E80030B589B0002303930493059306930793AD
:1022F8000268264B9A4201D009B030BD0446002539
:10230800019503F584335A6C42F480525A645A6C2E
:1023180002F480520192019A02951A6B42F001026E
:102328001A631B6B03F001030293029BB023039310
:10233800022304930523079303A9154800F074FCAE
:102348001448154B03604FF080634360402383605B
:10235800C5604FF4806303614FF4006343614FF439
:10236800005383614FF48073C361056204234362A1
:1023780003238362C562056300F0BAFA18B9054BF6
:10238800A3639C63B8E7FFF75FFBF8E70030014001
:1023980000000240301100204064024010B588B0AF
:1023A8000023039304930593069307930268184B3D
:1023B8009A4201D008B010BD0024019403F5FA3305
:1023C8001A6C42F400321A641A6C02F40032019258
:1023D800019A02941A6B42F001021A631B6B03F014
:1023E80001030293029B0C23039302230493032308
:1023F80006930723079303A9064800F015FC224615
:102408002146262000F09CF9262000F0CDF9D1E7DE
:1024180000440040000002407047FEE7FEE7FEE788
:10242800FEE770477047704708B500F065F908BDCA
:1024380008B5024801F064FE08BD00BFF010002096
:1024480008B5024800F002FB08BD00BF30110020AB
:10245800054BD3F8882042F47002C3F888204FF067
:1024680000629A60704700BF00ED00E008B52DEDEE
:10247800028B1C4B4FF07E521A60DFED1B8A1B4B00
:10248800C3ED008A1A48FEF723FF9FED1A8ADFED95
:102498001A0AB0EE480A1948FFF7E8FBF2EE040AF8
:1024A800B0EE680A1648FFF7E1FB1648FEF7B6FCDF
:1024B800DFED150AB3EE040A7F20FFF7C7FADFED58
:1024C800137A80EE270A124B83ED000A5A20FEF792
:1024D8000DFD104B83ED008A0F4A9A60BDEC028B0C
:1024E80008BD00BF0012002000000000A800002066
:1024F800D0000020CDCC4C3F00C0124490110020E9
:10250800D8110020B0000020000096440000FA46D0
:10251800AC000020B41100209A99993E00000000F8
:102528002DE970432DED028B05460E46484B187871
:10253800453807EE900AF8EEE77A17EE900AFDF7AD
:10254800ABFF41A3D3E90023FDF7FEFFFEF796FAA0
:1025580000EE900AB0EE000A01F0A6FF10EE100A95
:10256800FDF79AFF00223B4BFDF7EEFF80468946B8
:10257800394B1868FDF790FF42464B46FDF7E4FFDC
:10258800FEF77CFA354BD3ED088AF7EE007A78EE41
:10259800A78A07EE900A67EEA88A3148FEF778FF07
:1025A800304B83ED000A304B93ED000A2F48FEF7BD
:1025B8005FFC002413E02D48FEF7BEFC2AE0DFEDA7
:1025C8002C7A20EE270ABDEEC00A10EE103A9BB214
:1025D8002A4622F8043B6B800134A4B21546B44263
:1025E8002BD2B0EE680A234B1878FFF781FDB0EEC6
:1025F800408A1A48FFF7A8FB1F4B93ED000A194BB6
:10260800D3ED007A20EE270A20EE080A174B1B7834
:10261800002BD0D1F7EE007AB4EEE70AF1EE10FA0B
:1026280001DDB0EE670AFFEE007AB4EEE70AF1EEDC
:1026380010FAC4D5B0EE670AC1E7BDEC028BBDE85D
:10264800708300BFAFF30080694B04475555B53F11
:102658000000002000807B4004000020D8110020EA
:10266800D0000020A8000020AC000020B00000200E
:1026780000FEFF46FC1100200012002010B50446A1
:102688000E4B18784FF47A73B3FBF0F30C4A1068CA
:10269800B0FBF3F000F096F868B90F2C01D90120CF
:1026A8000AE0002221464FF0FF3000F049F8034BC2
:1026B8005C60002000E0012010BD00BF0C0000207D
:1026C8000800002008B50B4B1A6842F400721A6023
:1026D8001A6842F480621A601A6842F480721A60BA
:1026E800032000F01BF80020FFF7C8FFFFF7DCFD10
:1026F800002008BD003C0240034A1168034B1B78C8
:102708000B441360704700BF041200200C00002027
:10271800014B1868704700BF04120020074AD368AD
:1027280023F4E0631B041B0C000200F4E060034385
:1027380043F0BF6343F40033D360704700ED00E01B
:1027480030B4174BDB68C3F30223C3F10704042C2E
:1027580028BF04241D1D062D18D9033B4FF0FF3553
:1027680005FA04F421EA0401994005FA03F322EA80
:102778000303194300280BDB0901C9B200F16040CB
:1027880000F5614080F8001330BC70470023E5E78E
:1027980000F00F000901C9B2024B1954F4E700BF59
:1027A80000ED00E014ED00E0002807DB00F01F0258
:1027B800400901239340024A42F82030704700BF85
:1027C80000E100E00138B0F1807F0AD2064B586082
:1027D800064AF02182F823100020986007221A6028
:1027E80070470120704700BF10E000E000ED00E0F6
:1027F80030B405682C6824F480242C600468636075
:102808008368402B05D0036899600368DA6030BCA0
:10281800704703689A600368D960F8E710B40368E2
:10282800D9B210390C4AA2FB014212090B4CA25C26
:10283800C2655F2909D923F47F7323F003030433A6
:102848008365806D5DF8044B704723F47F7323F034
:1028580003038365F5E700BFABAAAAAA6857000877
:10286800836A826992B9012B0AD0022B02D00BB17C
:1028780000207047C36A13F0807F28D1002070477A
:10288800C36AB3F1C07F24D000207047B2F5005F5F
:1028980009D0022B25D9032B25D1C36A13F0807FD9
:1028A80023D100207047032B03D8DFE803F014047A
:1028B800140A00207047C36A13F0807F0DD10020EE
:1028C8007047C36AB3F1C07F09D000207047012068
:1028D8007047012070470120704701207047012090
:1028E80070470120704700207047012070470000A2
:1028F80070B50446FFF70CFF002C5BD0054600239B
:1029080084F83430022384F835302268136823F0C1
:102918000103136023681A6812F0010F0AD0FFF749
:10292800F7FE431B052BF5D920236365032084F8A4
:10293800350070BD1A68204810406168A2680A43D3
:10294800E1680A4321690A4361690A43A1690A43A4
:10295800E1690A43216A0A430243616A04291ED0D5
:102968001A602668756925F00705636A1D43042BFC
:1029780007D1A36A1D43E36A1BB12046FFF770FF26
:1029880090B975612046FFF749FFE26D3F239340F8
:10299800836000206065012384F83530C9E7E16A67
:1029A800206B01430A43DBE740236365012084F879
:1029B8003500BEE70120BCE73F8010F038B504467B
:1029C800856D90F8340001282BD0012084F834005C
:1029D80094F83500C0B2012804D0002384F83430BC
:1029E800022038BD022084F83500002060652046AA
:1029F800FFF7FEFEE26D3F239340AB602268136849
:102A080043F016031360236C23B12268136843F064
:102A1800080313602268136843F001031360002061
:102A2800DFE70220DDE790F83530DBB2022B03D078
:102A38008023436501207047052380F835300268FC
:102A4800136823F00103136000207047F0B583B0CA
:102A5800044600230193724B1D68724BA3FB053596
:102A6800AD0A876D3E68C26D08239340334210D08B
:102A780003681A6812F0040F0BD01A6822F00402D7
:102A88001A60C26D08239340BB60436D43F0010395
:102A98004365E26D01239340334209D022685269AD
:102AA80012F0800F04D0BB60636D43F002036365CE
:102AB800E26D04239340334209D02268126812F071
:102AC800020F04D0BB60636D43F004036365E26DDD
:102AD80010239340334224D02268126812F0080F62
:102AE8001FD0BB6023681A6812F4802F0DD01B68B2
:102AF80013F4002F04D1236C9BB12046984710E0B3
:102B0800A36C73B1204698470BE01A6812F4807FD3
:102B180003D11A6822F008021A60236C0BB1204610
:102B28009847E26D20239340334255D022681268BB
:102B380012F0100F50D0BB6094F83530DBB2052B83
:102B48000ED023681A6812F4802F33D01B6813F450
:102B5800002F2AD1636C002B3ED0204698473BE0DB
:102B68002268136823F0160313602268536923F060
:102B780080035361236CA3B12268136823F0080310
:102B88001360E26D3F239340BB60002384F8343028
:102B9800012384F83530236D002B3FD02046984719
:102BA8003CE0A36C002BE7D1EBE7E36BA3B1204635
:102BB800984711E01A6812F4807F09D11A6822F048
:102BC80010021A60002384F83430012384F8353069
:102BD800E36B0BB120469847636DFBB1636D13F04F
:102BE800010F17D0052384F835302268136823F0C5
:102BF80001031360019B01330193AB4204D823689E
:102C08001B6813F0010FF5D1002384F83430012339
:102C180084F83530E36C0BB12046984703B0F0BD1B
:102C280008000020B5814E1B00230F2B00F2C7803F
:102C3800F0B583B039E0042200E00022B2403A4304
:102C480002345F4E46F824205E4A1468EA4324EAB8
:102C580005064F6817F4803F01D045EA0406594C31
:102C68002660646802EA04064F6817F4003F01D042
:102C780045EA0406534C6660A46802EA04064F68F5
:102C880017F4801F01D045EA04064E4CA660E4689C
:102C980022404E6816F4001F01D045EA0402494C50
:102CA800E26001330F2B00F2888001229A400C6801
:102CB80004EA020532EA0404F3D14C68661E012EC8
:102CC80003D9112C01D0122C12D186685F0003247D
:102CD800BC4026EA0406CC68BC403443846046689D
:102CE80026EA02064C68C4F300129A403243426056
:102CF800C7685E000324B440E24327EA04078C68EF
:102D0800B4403C43C4604C68022C01D0122C13D14F
:102D1800DF08083750F827E003F007044FEA840C6F
:102D28000F2404FA0CF42EEA040E0C6904FA0CF4CD
:102D380044EA0E0440F82740046814404A6802F048
:102D48000302B240224302604A6812F0805FA8D0B2
:102D5800002201921C4A546C44F480445464526C1E
:102D680002F480420192019A9C08A61C144A52F867
:102D7800267003F0030296000F22B24027EA0207EA
:102D8800124A90423FF459AF02F5806290420ED049
:102D980002F5806290420CD002F5806290420AD01F
:102DA80002F5806290423FF446AF072246E70122CF
:102DB80044E7022242E7032240E703B0F0BD704730
:102DC80000380140003C0140003802400000024049
:102DD800002800F0BF8070B5044690F84130002B01
:102DE80051D0022284F841202168CB6923F47B6307
:102DF80023F00F03CB6123681A626369934263D09F
:102E0800E368002B46D11025A368202B00D86D005D
:102E1800012000F047FF2369B3F5007F3CD0B0FBE9
:102E2800F5F000EB800043006069B3FBF0F3053375
:102E3800494AA2FB0323C3F3C002C2EBD3035B08D6
:102E480011029A1EFD2A41D822690A4321681343B8
:102E58000B622168CB6923F47B6323F00F0362685C
:102E6800A0680243E0680243A0690243134343F4A5
:102E78000063CB61236A012B2ED0002060640123FC
:102E880084F8413070BD80F84030344B4363FFF71D
:102E980027FAA6E72025B7E7E36853B1AD00B0FBF2
:102EA800F5F000EB800043006069B3FBF0F30533F5
:102EB800BEE7ED00B0FBF5F000EB80004300606971
:102EC800B3FBF0F30533B3E70021BAE7636C43F0D3
:102ED800100363640120D5E7214B63632268214B0B
:102EE8009A421FD04FF04022D36923F47B6323F02A
:102EF8000F03D36122681B4B9A4215D04FF0402331
:102F080002221A622268174B9A4210D04FF04021D1
:102F1800CA6992B26368B3F5007F0AD0C3B94FF4A7
:102F2800807608E0104ADFE7A3F58063E8E70E49FA
:102F3800EEE74FF48076A068E568238B2B439BB2BD
:102F480003439BB23343134343F40063CB6194E7D9
:102F58000026F0E701207047CDCCCCCCF330000838
:102F68002D330008003800400034004000295ED0AE
:102F780038B50446002A5CD094F84030DBB2012B07
:102F880059D0012384F8403094F84150EDB29D4265
:102F980010D1032384F841300023636461622368FD
:102FA800DB6903F00703032B09D0052B07D0228523
:102FB800628508E0002384F8403002203AE052009D
:102FC80092B222856285A36B1C4A1A64A36B1C4AC1
:102FD800DA63A36B1B4ADA642268238D9BB20C3236
:102FE800616AA06BFFF7EAFCA8B92368DA6912F4F2
:102FF800806F03D1DA6942F48062DA6123685A6823
:1030080012F0020F03D15A6842F002025A600023FC
:1030180084F840300EE0636C43F0080363640123D6
:1030280084F84130002384F84030284602E001202B
:103038007047012038BD0220FCE700BF513000086E
:1030480093300008C331000808B5806BFEF728FBF1
:1030580008BD08B5426A03681288DA60436A023319
:103068004362438D9BB2013B9BB24385438D9BB228
:1030780003B108BD0268536823F0A003536001231D
:1030880080F84130FEF716FBF3E708B50346806B7E
:10309800DB694BB90268536823F0020353600023CD
:1030A8004385012380F84130FEF704FB08BD7047D3
:1030B80008B50368DA68C36A1A80C36A0233C36250
:1030C800438E9BB2013B9BB24386438E9BB203B1B6
:1030D80008BD0268536823F060035360012380F839
:1030E8004130FFF7E4FFF3E7704710B584B00446BA
:1030F80002689368039390F84130DBB2042B06D042
:1031080094F84130DBB2032B2CD004B010BD039BE4
:1031180013F0010F03D0536813F0400F1FD1039B26
:1031280013F0400FECD023685A6812F0200FE7D054
:103138005A6822F060025A60002301932368DA6813
:1031480001929B680193019B012384F84130636CD1
:1031580043F0020363642046FFF7C6FFD0E7FFF79A
:10316800A7FFDCE7039B13F0020F04D023685B681A
:1031780013F0800F1DD1039B13F0080FC5D02368EF
:103188005A6812F0200FC0D05A6822F0A0025A6084
:103198000023029323689B680293029B012384F80F
:1031A8004130636C43F0040363642046FFF79CFFDF
:1031B800ABE72046FFF74DFFDDE708B5806B0268F7
:1031C800536823F003035360002343854386012398
:1031D80080F84130436C43F008034364FFF784FFF1
:1031E80008BD704708B5436A9A1C426202681B888A
:1031F800D360438D9BB2013B9BB24385438D9BB209
:103208003BB90268536823F0A0035360438E9BB216
:1032180003B108BD012380F84130FFF7E2FFF8E76A
:1032280008B50268154B9A421CD04FF04023DA6863
:10323800C36A991CC1621A80438E9BB2013B9BB240
:103248004386438E9BB263B902680C4B9A420CD0FA
:103258004FF04022536823F060035360438D9BB2C4
:103268002BB108BDA3F58063E1E7054AF2E7012326
:1032780080F84130FFF7B5FFF3E700BF00380040A2
:103288000034004008B5436A9A1C42621A880168F3
:10329800134B994218D04FF04023DA60438D9BB20C
:1032A800013B9BB24385438D9BB263B902680C4BCB
:1032B8009A420CD04FF04022536823F0A003536089
:1032C800438E9BB22BB108BDA3F58063E5E7054AA1
:1032D800F2E7012380F84130FFF783FFF3E700BFEF
:1032E800003800400034004008B50368DA68C36A53
:1032F800991CC1621A80438E9BB2013B9BB24386E4
:10330800438E9BB23BB90268536823F06003536055
:10331800438D9BB203B108BD012380F84130FFF70C
:1033280060FFF8E710B586B0044603689A6805920E
:10333800704A93426FD04FF04022916804915B68C5
:103348000393536802936368B3F5007F01D0002BA1
:1033580070D1059B13F0020F03D0039B13F0800F6D
:103368005CD1049B13F0010F03D0029B13F0400FB4
:1033780058D1049B13F0400F24D0029B13F0200F68
:1033880020D022685B4B9A4250D04FF040225368BD
:1033980023F0600353602268536823F0A00353604E
:1033A800002300932368DA6800929B680093009BCF
:1033B800012384F84130636C43F0020363642046C0
:1033C800FFF792FE059B13F0080F22D0039B13F022
:1033D800200F1ED02268536823F0A0035360226890
:1033E800444B9A4224D04FF04022536823F06003A4
:1033F80053600023019323689B680193019B012379
:1034080084F84130636C43F0040363642046FFF79B
:103418006BFE06B010BDA2F580628EE72046FFF76E
:10342800E1FE9EE72046FFF7FBFEA2E7324AAEE741
:10343800314ADAE7049B13F0020F03D0029B13F022
:10344800800F4AD1059B13F0010F03D0039B13F0A3
:10345800400F46D1059B13F0400F1CD0039B13F07F
:10346800200F18D02268536823F060035360226845
:10347800204B9A4239D04FF04022536823F0A003E2
:103488005360012384F84130636C43F002036364A2
:103498002046FFF729FE049B13F0080FB9D0029BC2
:1034A80013F0200FB5D02268124B9A421FD04FF06C
:1034B8004022536823F0A00353602268536823F026
:1034C80060035360012384F84130636C43F00403C4
:1034D80063642046FFF708FE9BE72046FFF7D2FE0D
:1034E800B0E72046FFF700FFB4E7034AC5E7024A02
:1034F800DFE700BF0038004000340040002800F03B
:10350800D98170B582B00446036813F0010F3BD02F
:10351800A64B9B6803F00C03042B2CD0A34B9B6891
:1035280003F00C03082B21D06368B3F5803F4FD01C
:10353800B3F5A02F52D09D4B1A6822F480321A603E
:103548001A6822F480221A606368002B50D0FFF7B3
:10355800DFF80546954B1B6813F4003F14D1FFF7BD
:10356800D7F8401B6428F5D90320AAE18F4B5B6884
:1035780013F4800FD8D08D4B1B6813F4003F03D091
:103588006368002B00F09881236813F0020F54D071
:10359800864B9B6813F00C0F3ED0844B9B6803F05E
:1035A8000C03082B33D0E368002B67D0804B012233
:1035B8001A60FFF7ADF805467C4B1B6813F0020F45
:1035C80053D1FFF7A5F8401B0228F5D9032078E16D
:1035D800764A136843F480331360B5E7734B1A686F
:1035E80042F480221A601A6842F480321A60ABE70B
:1035F800FFF78EF805466D4B1B6813F4003FC3D0E8
:10360800FFF786F8401B6428F5D9032059E1674B7A
:103618005B6813F4800FC6D1644B1B6813F0020F6C
:1036280003D0E368012B40F04981604A136823F016
:10363800F803216943EAC1031360236813F0080FF4
:1036480040D0636963B35B4B01221A60FFF760F8EF
:103658000546564B5B6F13F0020F33D1FFF758F84E
:10366800401B0228F5D903202BE1504A136823F0A8
:10367800F803216943EAC1031360DEE74C4B0022DB
:103688001A60FFF745F80546484B1B6813F0020F10
:10369800D3D0FFF73DF8401B0228F5D9032010E1ED
:1036A800444B00221A60FFF733F805463F4B5B6F27
:1036B80013F0020F06D0FFF72BF8401B0228F5D9AC
:1036C8000320FEE0236813F0040F78D0374B1B6CFF
:1036D80013F0805F0DD100230193344B1A6C42F034
:1036E80080521A641B6C03F080530193019B0125DF
:1036F80000E00025304B1B6813F4807F21D0A368BD
:10370800012B32D0052B36D0284B1A6F22F001023C
:103718001A671A6F22F004021A67A368002B34D0C4
:10372800FEF7F6FF0646214B1B6F13F0020F45D13B
:10373800FEF7EEFF801B41F288339842F3D903204D
:10374800BFE01D4A136843F480731360FEF7E0FF7F
:103758000646194B1B6813F4807FD0D1FEF7D8FFBB
:10376800801B0228F5D90320ABE0104A136F43F001
:1037780001031367D1E70D4B1A6F42F004021A6771
:103788001A6F42F001021A67C7E7FEF7C1FF064643
:10379800064B1B6F13F0020F10D0FEF7B9FF801B0A
:1037A80041F288339842F3D903208AE00038024076
:1037B80000004742800E474200700040E5B9A36907
:1037C800002B7DD0464A926802F00C02082A51D09C
:1037D800022B17D0434B00221A60FEF799FF0446CC
:1037E8003F4B1B6813F0007F42D0FEF791FF001B90
:1037F8000228F5D9032064E0394A136C23F080537A
:103808001364DCE7374B00221A60FEF781FF054698
:10381800334B1B6813F0007F06D0FEF779FF401B7F
:103828000228F5D903204CE0E369226A1343626A4F
:1038380043EA8213A26A5208013A43EA0243E26A5F
:1038480043EA0263264A5360264B01221A60FEF7B8
:103858005FFF0446224B1B6813F0007F06D1FEF77A
:1038680057FF001B0228F5D903202AE0002028E092
:10387800002026E0012B26D0194B5B6803F4800159
:10388800E269914221D103F03F02216A8A421ED1A6
:10389800616A47F6C0721A408A421AD103F440326C
:1038A800A16A8A4217D103F07063E26A934214D185
:1038B800002006E001207047012002E0012000E01E
:1038C800002002B070BD0120FBE70120F9E70120CC
:1038D800F7E70120F5E70120F3E70120F1E700BF52
:1038E8000038024060004742F8B5244B9B6803F05B
:1038F8000C03042B3DD0082B3DD1204B5A6802F015
:103908003F025B6813F4800F12D01C4B5968C1F357
:10391800881100231A48A1FB0001FDF7FFF8174B97
:103928005B68C3F3014301335B00B0FBF3F023E0B2
:10393800124B5B68C3F388135C010025E41A65F138
:103948000005AE0146EA9466A701381B66EB05013F
:10395800CC0044EA5074C500E81844F100018B0219
:1039680043EA90538402204619460023FDF7D6F80F
:10397800D5E7034800E00348F8BD00BF003802401F
:1039880040787D010024F400002800F09B8070B589
:103998000D4604464F4B1B6803F00F038B4208D2B9
:1039A800CBB24C4A1370136803F00F038B4240F0FC
:1039B8008B80236813F0020F17D013F0040F04D084
:1039C800454A936843F4E0539360236813F0080F63
:1039D80004D0414A936843F4604393603E4A936835
:1039E80023F0F003A1680B439360236813F0010FE1
:1039F80032D06368012B21D09A1E012A25D9364A74
:103A0800126812F0020F61D033498A6822F003026B
:103A180013438B60FEF77CFE06462F4B9B6803F032
:103A28000C036268B3EB820F16D0FEF771FE801BA1
:103A380041F288339842F0D9032042E0264A1268BE
:103A480012F4003FE0D101203BE0234A126812F053
:103A5800007FD9D1012034E01E4B1B6803F00F030F
:103A6800AB4207D9EAB21B4B1A701B6803F00F036D
:103A7800AB422DD1236813F0040F06D0164A936881
:103A880023F4E053E1680B439360236813F0080FB5
:103A980007D0114A936823F46043216943EAC103BC
:103AA8009360FFF721FF0C4B9B68C3F303130B4A8A
:103AB800D35CD8400A4B18600A4B1868FEF7DEFD45
:103AC800002070BD012070470120FAE70120F8E7C7
:103AD8000120F6E7003C0240003802405057000839
:103AE8000800002010000020014B1868704700BF34
:103AF8000800002008B5FFF7F7FF044B9B68C3F3E5
:103B08008223034AD35CD84008BD00BF0038024076
:103B18006057000808B5FFF7E7FF044B9B68C3F33D
:103B28004233034AD35CD84008BD00BF0038024086
:103B38006057000830B583B00446036813F0050FDA
:103B48000ED1236813F0020F38D1236813F0080F41
:103B580000F09B80227D4E4B1A60002003B030BDE0
:103B68004C4B00221A60FEF7D3FD05464A4B1B68F2
:103B780013F0006F06D0FEF7CBFD431B022BF5D9DF
:103B88000320EBE76368A26843EA8213E26843EA2A
:103B98000273414AC2F884303E4B01221A60FEF794
:103BA800B7FD05463C4B1B6813F0006FC9D1FEF703
:103BB800AFFD401B0228F5D90320CFE7002301936E
:103BC800354B1A6C42F080521A641B6C03F0805318
:103BD8000193019B314A136843F480731360FEF725
:103BE80097FD05462D4B1B6813F4807F06D1FEF721
:103BF8008FFD431B022BF5D90320AFE7264B1B6F24
:103C080013F4407312D0226902F440729A420DD024
:103C1800214B1A6F22F440722149012008600020CC
:103C280008601A671B6F13F0010F12D1236903F4A0
:103C38004072B2F5407F1DD0174A936823F4F813F9
:103C4800936015490B6F2269C2F30B0213430B678C
:103C58007BE7FEF75DFD05460F4B1B6F13F0020F68
:103C6800E4D1FEF755FD401B41F288339842F3D961
:103C7800032073E708498A6822F4F81223F0704396
:103C880023F4407313438B60DBE7002066E700BF33
:103C9800E011474268004742003802400070004087
:103CA800400E4742012801D000207047174B9B68FF
:103CB80013F4000303D0012B25D115487047134B8B
:103CC8005B6813F4800F15D0104BD3F8843003F0E1
:103CD8003F031048B0FBF3F00C4AD2F88430C3F32A
:103CE800881300FB03F0D2F88430C3F30273B0FBEF
:103CF800F3F07047054BD3F8843003F03F030648D0
:103D0800B0FBF3F0E8E70020704700BF003802403E
:103D18000080BB0040787D010024F4000268D3686D
:103D280023F49073D3600268536923F0010353614D
:103D3800202380F83A30704790F83930DBB2212BD5
:103D480001D0022070478368B3F5805F17D0036AFB
:103D58005A1C02621A7803685A60C38C9BB2013BF2
:103D68009BB2C3844BB90268D36823F08003D36045
:103D78000268D36843F04003D36000207047036AA9
:103D88001B880268C3F30803536003691BB9036AFD
:103D980002330362E1E7036A01330362DDE70000EF
:103DA80070B504460268136923F44053C1680B4395
:103DB800136183680269134342691343C2691A4352
:103DC8000168CB6823F4164323F00C031343CB603C
:103DD8000268536923F4407381690B435361C369D3
:103DE800B3F5004F36D00368654A934200F09A80D5
:103DF80002F58062934200F09580FFF77BFE002673
:103E0800051846EB06012D1846EB0101CB0043EAE5
:103E18005573EA001546194663689A009B0F2818DF
:103E280046EB0101FCF77AFE564DA5FB003251091D
:103E3800642303FB11031B013233A5FB03235B0936
:103E480003F0F00202EB011203F00F0321681344A0
:103E58008B6093E003684A4A934233D002F580624C
:103E680093422FD0FFF746FE0026051846EB0601C1
:103E78002D1846EB0101CB0043EA5573EA001546BD
:103E8800194662683346921846EB0303281846EB36
:103E98000101FCF743FE3B4DA5FB003251096423A9
:103EA80003FB1103DB003233A5FB03235B095A0034
:103EB80002F4F87202EB011203F0070321681344BD
:103EC8008B605BE0FFF726FE0026051846EB06012F
:103ED8002D1846EB0101CB0043EA5573EA0015465D
:103EE800194662683346921846EB0303281846EBD6
:103EF8000101FCF713FE234DA5FB00325109642391
:103F080003FB1103DB003233A5FB03235B095A00D3
:103F180002F4F87202EB011203F00703216813445C
:103F28008B602BE0FFF7F6FD0026051846EB06012F
:103F38002D1846EB0101CB0043EA5573EA001546FC
:103F4800194663689A009B0F281846EB0101FCF795
:103F5800E5FD0C4DA5FB00325109642303FB110359
:103F68001B013233A5FB03235B0903F0F00202EBCC
:103F7800011203F00F03216813448B6070BD00BF6A
:103F8800001001401F85EB5158B310B5044690F856
:103F980039300BB3242384F839302268D36823F4EA
:103FA8000053D3602046FFF7FBFE2268136923F411
:103FB800904313612268536923F02A0353612268EE
:103FC800D36843F40053D3600020E063202384F8CF
:103FD800393084F83A3010BD80F83830FEF7DEF911
:103FE800D8E70120704790F83A30DBB2202B20D177
:103FF80009B312B390F83830012B20D08162828542
:10400800C2850023C363222280F83A2080F8383022
:104018000168CA6842F48072CA6001684A6942F05D
:1040280001024A610168CA6842F02002CA60184663
:104038007047022070470120704701207047022016
:104048007047704708B50168CA6822F04002CA6024
:10405800202280F83920FFF7F4FF002008BD08B5BA
:1040680090F83A30DBB2222B46D18368B3F5805FF3
:104078000FD003690BBB03685A68836A591C8162B5
:104088001A70C38D9BB2013B9BB2C385F3B100206C
:1040980008BD826A036943B903685B68C3F3080310
:1040A8001380836A02338362EBE703685B68DBB2E1
:1040B8001380836A01338362E3E703685B68826A7B
:1040C800511C816203F07F031370DAE70268D3683A
:1040D80023F02003D3600268D36823F48073D3608D
:1040E8000268536923F001035361202380F83A30B2
:1040F800FDF7EAFB0020CBE70220C9E77047000084
:1041080010B5044602681368D168526913F00F00AD
:1041180005D113F0200F02D011F0200F13D128B1D0
:1041280012F0010213D111F4907F10D113F0800F17
:1041380002D011F0800F6CD113F0400F02D011F0B3
:10414800400F6AD110BD2046FFF789FFFAE713F048
:10415800010F06D011F4807F03D0E06B40F001001E
:10416800E06313F0040F04D01AB1E06B40F00200D2
:10417800E06313F0020F04D01AB1E06B40F00400C2
:10418800E06313F0080F07D011F0200F00D11AB127
:10419800E26B42F00802E263E26B002AD2D013F02D
:1041A800200F02D011F0200F21D123685B6903F0A2
:1041B8004003E26B12F0080F00D123B32046FFF74B
:1041C800ADFD23685A6912F0400F18D05A6922F0E1
:1041D80040025A61636B73B1124A1A65606BFEF74D
:1041E80022FC0028AED0606B036D9847AAE72046F2
:1041F800FFF735FFD9E72046FFF780FFA2E7204603
:10420800FFF77CFF9EE72046FFF778FF0023E36374
:1042180098E72046FFF790FD94E72046FFF712FF46
:1042280090E700BF3142000808B5806B0023C385C2
:10423800C384FFF763FF08BDDFF834D0002103E033
:104248000C4B5B58435004310B480C4B42189A42B4
:10425800F6D30B4A02E0002342F8043B094B9A428A
:10426800F9D3FEF7F5F800F017F8FDF7C1FB704732
:1042780000000220805B0008000000207C00002075
:104288007C00002008120020FEE70000014B18689F
:10429800704700BF1400002070B50D4E0D4CA41BD4
:1042A800A4100025A54209D10B4E0C4C01F040FA90
:1042B800A41BA4100025A54205D170BD56F82530D1
:1042C80098470135EEE756F8253098470135F2E76B
:1042D800785B0008785B0008785B00087C5B000866
:1042E80002440346934200D1704703F8011BF9E7E3
:1042F80010EE103AC3F3C752A2F17F001E2882B015
:104308002EDC411C02DA002002B0704716284FEA62
:10431800D37109DDC3F3160040F40000963A9040CB
:104328000029F1D04042EFE7104B03EB810393EDF6
:10433800007A37EE000A8DED010ADDED017A77EE9D
:10434800C77A17EE903A33F00042DCD0C3F3160078
:10435800C3F3C75340F40000C3F19603D840DFE726
:10436800FDEEC07A17EE900ACEE700BF705700083E
:1043780013B510EE101A21F00043DC0D7F3C162C0B
:1043880046DC2BB3002C10EE102A4FEAD17021DA4C
:10439800C1F316035B42214A5B0A090D03F480034B
:1043A80009050B4302EB800207EE903AD2ED006A52
:1043B80036EEA77A8DED017ADDED017A77EEE67AB1
:1043C80017EE903A23F0004343EAC07300EE103A28
:1043D80002B010BD124B23411942F9D05B081942B3
:1043E80006D021EA03024FF4001343FA04F42243EF
:1043F8000A4B03EB800090ED007A07EE902A77EEE7
:10440800277ACDED017A9DED010A30EE470ADFE704
:10441800B3F1FF4FDCD330EE000AD9E77857000834
:10442800FFFF7F0010EE103A07B51D4A23F0004346
:10443800934205DCDFED1B0A002001F069F804E077
:10444800B3F1FF4F04DB30EE400A03B05DF804FB24
:10445800684600F04DFC00F00300012808D002284F
:104468000DD0B0B90120DDED010A9DED000AE4E7A9
:10447800DDED010A9DED000A00F06AFDE5E7012087
:10448800DDED010A9DED000A01F042F8B1EE400AA7
:10449800DBE7DDED010A9DED000A00F059FDF5E7C7
:1044A800D80F493F000000002DE970432DED048B23
:1044B800A74C8AB0F0EE408AB0EE608A00F058F956
:1044C80094F900506B1CB0EE409A26465FD0B4EECB
:1044D800488AF1EE10FA5AD6F4EE688AF1EE10FA2C
:1044E80021D7B5EE408AF1EE10FA50D1012300939E
:1044F800984B019318EE900A00230893FBF7CCFF22
:10450800CDE9020118EE100AFBF7C6FF924B002214
:10451800022DCDE90401CDE9062332D0684601F029
:104528003FF840BB65E0DFED8D9AF4EE698AF1EE65
:1045380010FA63D1B4EE698AF1EE10FA2ED1012394
:104548000093844B019318EE900A00230893FBF71D
:10455800A3FFCDE9020118EE100AFBF79DFF002228
:104568000023CDE90401CDE90623002DD6D07A4BEE
:104578000022CDE90623089B1BB1FFF787FE089BA5
:104588000360DDE90601FCF779FA09EE100AB0EEDE
:10459800490A0AB0BDEC048BBDE87083B0EE480A46
:1045A80001F007F80028F2D0B5EEC08AF1EE10FA53
:1045B800EDD501230093674B019318EE900A002371
:1045C8000893FBF769FFCDE9020118EE100AFBF723
:1045D80063FF94F90030CDE9040123B900220023D8
:1045E800CDE906239AE75E490020CDE90601022BB2
:1045F80094D1FFF74BFE21230360BCE700F0D9FFFD
:104608000546002873D1B0EE680A00F0D2FF0028F2
:104618006DD0B0EE480A00F0CCFF002867D018EE45
:10462800900AFBF739FF804618EE100A8946FBF717
:1046380033FFB4EE499AF1EE10FA94F90040454B75
:1046480013D70122CDE900230895CDE90289CDE9E8
:104658000401002CC2D0C9EEA97A17EE900AFBF724
:104668001BFF022CCDE90601C2E70322F6EE007A11
:10467800CDE900230895CDE90289CDE9040128EEAA
:10468800278AFCB9374BF5EEC08A4FF06042F1EE4D
:1046980010FACDE9062353D5B0EE480AFFF768FEB5
:1046A800B4EE480AF1EE10FA04D02F4B4FF06042F6
:1046B800CDE9062396F90030022B41D1FFF7E6FD3C
:1046C800222399E7294BF5EEC08A0022F1EE10FA71
:1046D800CDE90623EED5B0EE480AFFF749FEB4EE61
:1046E800480AF1EE10FAE5D000221D4BE0E7B5EEDE
:1046F800409AF1EE10FA7FF44AAFB0EE680A00F083
:1047080058FF00283FF443AFB0EE480A00F051FFCD
:1047180000283FF43CAF042300930E4B019318EE9E
:10472800900A00230893FBF7B7FECDE9020118EEC3
:10473800100AFBF7B1FE0022CDE904010023B7E718
:10474800684600F02DFF00287FF415AFB6E700BFDC
:1047580078000020805700080000F03F00000000AB
:104768000000F0FFFFFFEF47FFFFEFC70000F07FFB
:104778002DE9F04110EE905A35F000472DED028BEF
:10478800B0EE408AF0EE608A00F0938210EE108A54
:1047980028F00044B4F1FF4F06DCB7F1FF4F0ADD03
:1047A800B4F17E5F00F08582BDEC028BD948BDE88C
:1047B800F04100F04BBFB8F1000F1DDAB7F1974F89
:1047C8002CDAB7F17E5F30DBFB15C3F1960347FAAD
:1047D80003F606FA03F3BB4227D106F00106C6F139
:1047E8000206B7F17E5F22D1002D80F26882F7EED3
:1047F800007A87EE880A0DE00026B7F1FF4FF0D166
:10480800B4F17E5F00F055820ADD002D80F25482FB
:104818009FEDC10ABDEC028BBDE8F0810226ECE7F2
:10482800002DF5DAB1EE680AF4E70026D9E7B5F10C
:10483800804F02D128EE080AECE7B5F17C5FB0EEB4
:10484800480A08D1B8F1000F05DBBDEC028BBDE8C2
:10485800F04100F079BB00F0A5FE24B128F04043F8
:10486800B3F17E5F17D1002DBCBFF7EE007A87EE5B
:10487800800AB8F1000FCDDAA4F17E5454EA060399
:1048880004D170EE407A87EEA70AC3E7012EC1D1A2
:10489800B1EE400ABEE74FEAD870013856EA000385
:1048A80004D138EE488A88EE080AB3E7B7F19A4F80
:1048B8006DDD9A4B9C4206DC002DA9DA9FED980A23
:1048C80020EE000AA6E7974B9C4202DD002DF5DC9E
:1048D8009EE7F7EE007A30EE670A9FED937AF1EEE5
:1048E800406AF5EE007AA6EEA77AF6EE007AE7EED1
:1048F800407A60EE000A9FED8D7A67EEA00ADFED40
:104908008C7A67EEE07AE0EE077A9FED8A7AB0EE6D
:10491800676AA0EE076A16EE103A23F47F6323F065
:104928000F0300EE903AE6EE870A77EEE07A25F478
:104938007F6525F00F0507EE105A67EEA80A38EED6
:10494800C77A07EE903AE7EE270A013E56EA0002D8
:1049580007EE105A67EE877AB7EE008A30EEA77A2C
:10496800BFEE000A17EE104A08BFB0EE408A002CCE
:1049780024F0004340F38481B3F1864F40F3FC8078
:10498800DFED677A28EE270A20EE270A42E7B4F51A
:10499800000FBFBFDFED687A60EE277A6FF017026D
:1049A80017EE904A4FEAE453A8BF00227F3B134416
:1049B800624AC4F31604944244F07E5106DD604A0C
:1049C800944240F3A5800133A1F5000100245D4A1B
:1049D800A7003A4407EE901A92ED007A5A4A37EE49
:1049E800276AB7EE005AC5EE066A491041F0005131
:1049F80001F5802101EB445177EEC75A06EE101AF3
:104A080065EEA64A14EE90CA02EA0C0C05EE10CA2E
:104A1800B1EE454AE4EE065A36EE476A9FED4B7A08
:104A280037EEC66A64EEA47AE4EE065A67EEA73A51
:104A380025EEA66ADFED465AA7EEA57ADFED455AC0
:104A4800E7EE275A9FED387AA5EEA77ADFED425AAE
:104A5800E7EE275A9FED417A75EE246AA5EEA77A0C
:104A680066EE866AF0EE085AF0EE657AE3EE876A3B
:104A7800E5EE057A77EEA67A17EE901A114007EE62
:104A8800901A37EEE57ADFED365AA4EE057A36EE5F
:104A9800C77A27EE247AA7EE867AB0EE476AA5EEA3
:104AA800276A16EE101A114006EE901AE4EE276AED
:104AB800DFED2C7A37EE667A06EE101A27EE277AA3
:104AC800DFED297A2949A6EE277A3944D1ED007A13
:104AD80037EE277A07EE903AF0EE470A244BE6EED7
:104AE800250A3B4493ED005AF8EEE76A70EE850A12
:104AF80070EEA67A17EE903A134007EE903A77EEEA
:104B0800E67A77EEC57AE6EE657A77EE677A0EE7AB
:104B180001245CE78457000800000000F7FF7F3F8E
:104B2800CAF249710700803FABAAAA3E70A5EC36CD
:104B38003BAAB83F00AAB83F0000804B71C41C00D4
:104B4800D6B35D008857000800F0FFFF55326C3E71
:104B580042F1533E05A38B3EB76DDB3E9A99193F50
:104B68000038763F4F38763FA0C39D3698570008E7
:104B7800905700083CAA383340F092805FED036AF2
:104B880037EE677A70EEA66AF4EEC76AF1EE10FAAD
:104B98003FF7F6AEDB15A3F17E004FF400030341A7
:104BA8002344C3F3C75247497F3A114123EA01011D
:104BB800C3F3160007EE101A40F40000C2F1170202
:104BC8001041002C77EEC77AB8BF404237EEA07A82
:104BD800DFED3D6A17EE103A23F47F6323F00F03ED
:104BE80007EE103A77EE677A70EEE70ADFED377A6C
:104BF80067EE277AE0EEA67ADFED356AB0EE670A4F
:104C0800A7EE260AB0EE406AA7EE666A20EE007AA2
:104C180077EEC67ADFED2F6A9FED2F6AA7EE266A38
:104C2800DFED2E6AE6EE076A9FED2D6AA6EE876A2B
:104C3800DFED2C6AE6EE076AB0EE406AA6EEC76AB8
:104C4800F0EE006AB0EE467A77EE666A20EE066A03
:104C5800E0EE277A86EE267A77EE677A37EEC00A94
:104C6800F7EE007A37EEC00A10EE103A03EBC053A5
:104C7800B3F5000F1ADA00F0EFFC20EE080AC9E5D8
:104C8800194A934202DDDFED197A7BE608D137EE47
:104C9800677AB4EEE07AF1EE10FAFFF67BAFF2E74E
:104CA800B3F17C5F3FF776AF00208FE700EE103A54
:104CB800E3E7B7EE000AADE5B0EE680AAAE5B0EEA4
:104CC800480AA7E5FFFF7F001872313F8CBEBF3549
:104CD8000072313F4CBB31330EEADDB555B38A382B
:104CE800610B36BBABAA2A3E000016436042A20DF8
:104CF800F0B510EE106A864B26F000449C4287B04F
:104D0800054605DC002385ED000A4360002020E00D
:104D1800804B9C4238DC002E24F00F049FED7E7AF5
:104D28007E4B18DD9C4270EE477A09BF9FED7C7A76
:104D38009FED7C7A77EEC77A9FED7B7A77EEC76A2C
:104D480077EEE67AC0ED006A77EEC77AC0ED017AB1
:104D5800012007B0F0BD9C4270EE077A09BF9FEDB5
:104D6800707A9FED707A77EE877A9FED6F7A77EE9B
:104D7800876A77EEE67AC0ED006A77EE877AC0ED4B
:104D8800017A4FF0FF30E4E7684B9C4271DC00F099
:104D980009FC9FED677AF6EE007AE0EE077AFDEE01
:104DA800E77AB8EEE76A17EE900ADFED5B7AB1EEC4
:104DB800467AA7EE270A1F28DFED5A7A66EE277A89
:104DC80070EE676A16EE903A1CDC471E594951F896
:104DD800271024F0FF028A4214D02B6095ED007A48
:104DE80030EE470A002E30EE670A85ED010AB0DA88
:104DF800B1EE477AB1EE400A85ED007A85ED010AF9
:104E08004042A6E7E415C3F3C752A21A082AE4DD14
:104E1800DFED437AF0EE406AE7EE276A30EE660A85
:104E2800A7EE270ADFED407A96EE270A76EEC05AFB
:104E3800F0EE407A15EE903AC3F3C752A41A192C33
:104E480004DCC5ED005AB0EE660AC7E7DFED3A5A52
:104E5800B0EE660AA7EE250A76EEC07AE7EE257A66
:104E68009FED367AD6EE077A30EE677A85ED007ACE
:104E7800B4E7B4F1FF4F06DB70EE407AC0ED017A7B
:104E8800C0ED007A42E7E215863AA4EBC25307EE7A
:104E9800903ABDEEE77ADFED2A6AB8EEC77A77EE88
:104EA800C77A8DED037A67EEA67ABDEEE77AB8EE9B
:104EB800C77A77EEC77A8DED047A67EEA67AF5EEB3
:104EC800407AF1EE10FACDED057A1ED1B5EE407AB2
:104ED800F1EE10FA0CBF012302231A4901910221B5
:104EE800009103A8294600F091F8002EBFF631AFD3
:104EF800D5ED007AF1EE677AC5ED007AD5ED017A45
:104F0800F1EE677AC5ED017A7AE70323E5E700BF9A
:104F1800D80F493FE3CB1640800FC93FD00FC93F98
:104F2800004435374344353708A3852E800F49435D
:104F380084F9223FA057000800A3852E32318D2422
:104F48000000804320580008B1EEC00A70470000F6
:104F580010EE103A23F00043B3F1485FF7EE006A11
:104F680005DAFDEEC07A17EE902A002A3BD020EE33
:104F7800006AB6EE007ADFED1D5A1D4A66EE077A22
:104F88009FED1C7AA6EE257A9342DFED1B5AE7EED9
:104F9800065A9FED1A7AA5EE867ADFED195AE7EEE2
:104FA800065A9FED187AA5EE867A60EEC00A27EEBB
:104FB800067AE6EE070A04DC77EEE00A36EEE00A47
:104FC8007047114A9342DABF03F17F4307EE103A64
:104FD800B5EE027A77EEC77A36EEC70A77EEE07A50
:104FE80030EE670A7047B0EE660A70474ED747AD95
:104FF8009999993EF6740F317CF293B4010DD0372C
:10500800610BB6BAABAA2A3D0000483F2DE9F04F24
:105018002DED048BD7B09B460E46BE4B649902908B
:1050280053F8219065989FEDBF7AD11E082391FB14
:10503800F3F121EAE1710BF1FF3A4C1CA2EBC40435
:10504800A1EB0A051AAA09EB0A0700EB850C96469C
:105058000023BB420FDD42AF00224A4527DC0DF199
:10506800680C0BEB02030CEB8303029DDFEDAD7ABA
:105078004FF0000C15E0DD425DBF5CF8232007EE21
:10508800902AF8EEE77AF0EE477AEEEC017A0133EF
:10509800DFE7F5EC016A33ED017AE6EE877A0CF189
:1050A800010CD445F5DDE7EC017A0132D5E706AB12
:1050B80003EB89030493DFED9A8A9FED989A00EB3E
:1050C800810303934D4656AB05F1804703EB8503F7
:1050D800013F13ED140ABF0056ABDA194C3A00230E
:1050E800E91A00294CDC204600F0B6FAB0EE408AF6
:1050F800B4EE000A28EE000A00F066FAF2EE007A32
:10510800A0EE678A002CFDEEC87ACDED017AF8EEA4
:10511800E77A38EE678A48DD691E06ABC4F10800F5
:1051280053F821C0019A4CFA00F31A4483400192C3
:10513800ACEB030206AB43F82120C4F1070342FAA3
:1051480003F8B8F1000F41DD019B00200133019302
:10515800014685426DDC002C04DD012C7ED0022C3A
:1051680000F08680B8F1020F30D1B7EE000A30EEB9
:10517800488A59B3204600F06FFA38EE408A25E095
:1051880060EE287A06A8FDEEE77AF8EEE77AA7EE51
:10519800C90ABDEEC00A10EE101A32ED010A40F835
:1051A800231037EE800A01339AE706D16B1E06AA50
:1051B80052F823204FEA2228C3E7F6EE007AB4EE2D
:1051C800E78AF1EE10FA31DA4FF00008B5EE408ABE
:1051D800F1EE10FA40F0A8806B1E184600224845F0
:1051E8004DDA002A00F0878006AA083C52F82310FE
:1051F800002900F08D802046B7EE000A029300F0E7
:105208002BFA029B9FED467A990042AA5018051D79
:105218001C46002C80F2B88000255C1B002CC0F2D4
:10522800D8803D4FDFED3F7A0024C6E04FF00208FA
:105238008AE706AB53F8203049B92BB106AAC3F563
:10524800807342F8203001230130194681E706AA0D
:10525800C3F1FF0342F820300B46F5E7681E06ABA2
:1052680053F8203003F07F0306AA42F8203079E78C
:10527800681E06AB53F8203003F03F03F4E706A995
:1052880051F8201001380A43A9E70CF1010C53F832
:10529800042D002AF9D00BEB05031AAA9B009818D5
:1052A8000430691C04370022654405908D42FFF6DE
:1052B8000AAF1AA802EB030C84440398DDF808E04F
:1052C80050F82100019007EE900AF8EEE77A059869
:1052D800CCED007ADFED137A00EB02084FF0000CFA
:1052E800D4450CDD02EB070C42A88444CCED017ACE
:1052F80001310432DAE7049B4FF0010CC7E7FEECFA
:10530800016A38ED017A0CF1010CE6EE877AE7E7DD
:10531800013B69E7645B0008385B000800008043D4
:105328000000803B000000006042B0EE480A00F038
:1053380093F91FED067AB4EEC70AF1EE10FA1ADBFC
:105348005FED097A60EE277A06AAFDEEE77A06A9EC
:10535800F8EEE77A0834A7EEC70AFDEEE77ABDEE65
:10536800C00A10EE103A42F825306B1C17EE902A4E
:1053780041F823203FE7BDEEC00A06AA10EE103A16
:1053880042F825302B4636E706AA52F82420029226
:1053980007EE902AF8EEE77A013C67EE807A20EE75
:1053A800070A65ED017A34E700EB840CF7EC016A33
:1053B8009CED007AE6EE877A01344C4501DCA54283
:1053C800F2DA56AA02EB850444ED287A013504384E
:1053D80023E7649A032A4DD8DFE802F03E1F1F0234
:1053E80056AA11449C3908461C46002C5FDC084626
:1053F8001C46012C6BDC5FED357A012B77DCDDED8B
:105408002E6A9DED2F7AB8F1000F76D1C6ED006AAD
:1054180086ED017AC6ED027A2CE056AA11441FEDFA
:105428003F7A9C391846002832DAB8F1000F35D097
:10543800F1EE477AC6ED007ADDED2E7A77EEC77A7F
:105448002FA801218B422CDAB8F1000F01D0F1EE20
:10545800677AC6ED017A0DE056AA11445FED4F7ADE
:105468009C39002B0EDAB8F1000F01D0F1EE677A03
:10547800C6ED007A019B03F0070057B0BDEC048B22
:10548800BDE8F08F31ED017A013B77EE877AE8E7E6
:1054980071ED017A013837EE277AC4E7F0EE477AE2
:1054A800C8E7B0EC017A013177EE877ACAE750EDA8
:1054B800027A70ED016A37EEA67A013C77EEC77A78
:1054C80000ED017A77EEA67AC0ED007A8DE750ED0F
:1054D800027A70ED016A37EEA67A013C77EEC77A58
:1054E80000ED017A77EEA67AC0ED007A81E731ED1A
:1054F800017A013B77EE877A7FE7F1EE666AB1EED3
:10550800477AC6ED006A86ED017AF1EE677A81E79F
:1055180010EE103A23F00043B3F1485F04DAFDEED1
:10552800C07A17EE903A5BB320EE007ADFED157A79
:105538009FED156AA7EE276ADFED147AE6EE077A83
:105548009FED136AA7EE876ADFED127A60EE076AAD
:10555800E6EE077A30B99FED106AA7EE276AA6EE45
:10556800260A704767EEE67AB6EE006AE0EE867ABB
:10557800D7EE870ADFED097AE6EEA70A30EE600A71
:10558800704700BFD3C92E2F342FD7B21BEF383640
:10559800010D50B98988083CABAA2ABEABAA2A3E9D
:1055A8000020704710EE103A23F0004300EE103A46
:1055B800704710EE103A23F00040B0F1FF4FACBF37
:1055C800002001207047000010EE103A23F000413F
:1055D800CA0D7F3A162A2ADC002A11DADFED187A7A
:1055E80030EE270AB5EEC00AF1EE10FA05DD002B01
:1055F80023DA144A002918BF134600EE103A704700
:10560800114911410B42FAD0DFED0D7A30EE270A2D
:10561800B5EEC00AF1EE10FAEFDD002BBEBF4FF475
:10562800000040FA02F29B1823EA0103E5E7B1F112
:10563800FF4FE4D330EE000A70470023DDE700BFD8
:10564800CAF24971000080BFFFFF7F009FED010A89
:10565800704700BF0000C07F08B510EE102A32F076
:1056680000432DED028BF0EE400A04D0B3F1FF4F5A
:1056780006D370EE000ABDEC028BB0EE600A08BDDE
:10568800B3F5000F1CD21F4BDFED1F7A984260EE76
:10569800270A10DB10EE902AC2F3C753193B0344C4
:1056A800FE2B0FDD9FED198AB0EE480A00F034F8A2
:1056B80060EE080ADFE7DFED167A60EEA70ADAE7A0
:1056C800DB0DECE7002B06DD22F0FF4242EAC35374
:1056D80000EE903ACFE713F1160F06DA4CF250338A
:1056E8009842DFDC9FED0A8ADEE7193322F0FF4299
:1056F80042EAC353DFED077A07EE103A67EE270A4E
:10570800B9E700BFB03CFFFF0000004CCAF2497186
:105718006042A20D0000003310EE103A10EE902AFD
:1057280023F0004302F00042134300EE103A7047A2
:10573800F8B500BFF8BC08BC9E467047F8B500BF76
:08574800F8BC08BC9E46704746
:105750000000000000000000010203040607080921
:1057600000000000010203040006101600061016D7
:105770000000004B000000CB0000004B000000CBFD
:10578000706F7766000000000000803F0000C03F9F
:105790000000000000C0153F00000000DCCFD13544
:1057A000000FC93F000F494000CB9640000FC94091
:1057B0000053FB4000CB164100ED2F41000F494143
:1057C0000031624100537B41003A8A4100CB96414F
:1057D000005CA34100EDAF41007EBC41000FC94118
:1057E00000A0D5410031E24100C2EE410053FB412F
:1057F00000F20342003A0A420083104200CB1642F4
:1058000000141D42005C234200A5294200ED2F42F6
:1058100000363642007E3C4200C74242000F4942F9
:10582000A2000000F9000000830000006E000000EC
:105830004E00000044000000150000002900000098
:10584000FC0000002700000057000000D10000000D
:10585000F500000034000000DD000000C000000082
:10586000DB000000620000009500000099000000CD
:105870003C000000430000009000000041000000D8
:10588000FE0000005100000063000000AB000000BB
:10589000DE000000BB000000C50000006100000049
:1058A000B7000000240000006E0000003A00000075
:1058B000420000004D000000D2000000E0000000A7
:1058C00006000000490000002E000000EA00000071
:1058D00009000000D1000000920000001C00000040
:1058E000FE0000001D000000EB0000001C00000096
:1058F000B100000029000000A70000003E000000E9
:10590000E80000008200000035000000F500000003
:105910002E000000BB0000004400000084000000D6
:10592000E90000009C00000070000000260000005C
:10593000B40000005F0000007E0000004100000095
:105940003900000091000000D6000000390000007E
:10595000830000005300000039000000F400000044
:105960009C000000840000005F0000008B0000002D
:10597000BD000000F9000000280000003B0000000E
:105980001F000000F800000097000000FF0000006A
:10599000DE00000005000000980000000F0000007D
:1059A000EF0000002F000000110000008B0000003D
:1059B0005A0000000A0000006D0000001F000000F7
:1059C0006D000000360000007E000000CF000000E7
:1059D00027000000CB00000009000000B700000015
:1059E0004F000000460000003F000000660000007D
:1059F0009E0000005F000000EA0000002D00000093
:105A00007500000027000000BA000000C700000079
:105A1000EB000000E5000000F10000007B0000004A
:105A20003D0000000700000039000000F700000002
:105A30008A0000005200000092000000EA0000000E
:105A40006B000000FB0000005F000000B1000000E0
:105A50001F0000008D0000005D0000000800000035
:105A60005600000003000000300000004600000067
:105A7000FC0000007B0000006B000000AB00000099
:105A8000F0000000CF000000BC000000200000007B
:105A90009A000000F4000000360000001D00000025
:105AA000A9000000E3000000910000006100000078
:105AB0005E000000E60000001B000000080000007F
:105AC0006500000099000000850000005F000000F4
