:020000040800F2
:10000000000002206D2500082509000827090008C6
:10001000290900082B0900082D090008000000002C
:100020000000000000000000000000002F09000890
:1000300031090008000000003309000835090008F4
:10004000BD250008BD250008BD250008BD25000808
:10005000BD250008BD250008BD250008BD250008F8
:10006000BD250008BD250008BD250008BD250008E8
:10007000BD250008BD250008BD250008BD250008D8
:10008000BD250008BD250008BD25000800000000B2
:10009000000000000000000000000000BD25000876
:1000A000BD250008BD250008BD250008BD250008A8
:1000B000BD250008BD250008BD250008BD25000898
:1000C000BD250008BD250008BD250008BD25000888
:1000D000BD250008BD2500083D09000800000000FE
:1000E000BD250008BD250008BD2500080000000052
:1000F000000000000000000000000000BD25000816
:1001000000000000BD250008BD250008BD25000831
:1001100000000000000000000000000000000000DF
:10012000BD250008BD2500084D090008BD250008B3
:10013000BD250008000000000000000000000000D5
:10014000000000000000000000000000BD250008C5
:10015000BD250008BD250008BD250008BD250008F7
:10016000BD250008BD2500080000000000000000BB
:10017000000000000000000000000000000000007F
:1001800000000000BD250008000000000000000085
:08019000BD250008BD25000893
:1001980010B5054C237833B9044B13B10448AFF3B9
:1001A80000800123237010BD0C0000200000000017
:1001B8001826000808B5034B1BB103490348AFF3E1
:1001C800008008BD0000000010000020182600086C
:1001D80053B94AB9002908BF00281CBF4FF0FF31A6
:1001E8004FF0FF3000F06EB9ADF1080C6DE904CEA8
:1001F80000F006F8DDF804E0DDE9022304B07047FA
:100208002DE9F047089D04468C46002B40F083807A
:100218008A42174647D9B2FA82F242B1C2F12000A7
:1002280024FA00F09140974040EA010C94404FEACC
:100238001748230CBCFBF8F61FFA87FE08FB16C10B
:1002480043EA014306FB0EF1994209D9FB1806F16E
:10025800FF3080F01981994240F21681023E3B44FA
:100268005B1AA4B2B3FBF8F008FB103344EA03446A
:1002780000FB0EFEA64509D93C1900F1FF3380F0BA
:100288000581A64540F2028102383C4440EA064016
:10029800A4EB0E0400261DB1D4400023C5E9004399
:1002A8003146BDE8F08702B9FFDEB2FA82F2002AD1
:1002B80050D1CB1B4FEA174E1FFA87F80126B3FB24
:1002C800FEFC210C0EFB1C3341EA034108FB0CF336
:1002D8008B4207D979180CF1FF3002D28B4200F219
:1002E800E9808446C91AA3B2B1FBFEF00EFB1011D7
:1002F80043EA014408FB00F8A04507D93C1900F17E
:10030800FF3302D2A04500F2D9801846A4EB0804B6
:1003180040EA0C40BFE78B4209D9002D00F0B180BC
:100328000026C5E9000130463146BDE8F087B3FA3A
:1003380083F6002E4AD18B4202D3824200F2B88063
:10034800841A61EB030101208C46002DA8D0C5E971
:10035800004CA5E7C2F1200320FA03F6974001FA02
:1003680002F04FEA174ED9403043030CB1FBFEF6BA
:100378001FFA87F80EFB161143EA014306FB08F142
:10038800994204FA02F409D9FB1806F1FF3C80F0FF
:100398008D80994240F28A80023E3B445B1A81B2CA
:1003A800B3FBFEF00EFB103341EA034100FB08F3F8
:1003B8008B4207D9791800F1FF3C73D28B4271D96F
:1003C80002383944CB1A40EA064678E7C6F1200CD1
:1003D80003FA06F422FA0CF31C4320FA0CF701FA8C
:1003E80006F34FEA144E21FA0CF11F433B0CB1FB04
:1003F800FEF91FFA84F80EFB191143EA014109FBC3
:1004080008FA8A4502FA06F200FA06F308D96118D2
:1004180009F1FF3048D28A4546D9A9F10209214499
:10042800A1EB0A01BFB2B1FBFEF00EFB101147EAC7
:10043800014700FB08F8B84507D9E71900F1FF3173
:100448002ED2B8452CD90238274440EA0940A7EBF8
:100458000807A0FB02894F45C64649461AD317D05C
:100468005DB1B3EB0E0267EB010707FA0CFCF24033
:100478004CEA0202F740C5E9002700263146BDE8EC
:10048800F0872E4628460BE70646E9E61846FDE6BD
:100498004345E5D2B8EB020E69EB04010138DFE70A
:1004A8000846D2E760468DE78146B9E7664675E7B4
:1004B80030464AE7ACF1020C394413E702383C44B1
:1004C80024E700BF704700BF82B0002100910B4BAA
:1004D8001A6B42F080021A631A6B02F080020092D3
:1004E800009A01911A6B42F001021A631B6B03F028
:1004F80001030193019B02B0704700BF003802401E
:1005080008B50948094B03604FF4007343600023A2
:100518008360C36003614FF4FA4242618361C3613F
:10052800036200F019FE08BDCC0F00200030014026
:1005380000B583B000220192094B196B41F4800188
:1005480019631B6B03F480030193019B0D213A206F
:1005580000F0BAFA3A2000F0EBFA03B05DF804FBB9
:100568000038024008B50848084B036047F61223D4
:10057800436000238360C36003610C22426183618E
:10058800C36101F0C5FE08BD1410002000440040FE
:1005980008B54FF4FA71024800F0FAF908BD00BF37
:1005A8002C00002008B54FF4FA71024800F0F0F969
:1005B80008BD00BFFC07002070B59AB030220021AA
:1005C8000EA802F01DF8002409940A940B940C94C8
:1005D8000D94039404940594069407940894019444
:1005E8001F4B1A6C42F080521A641B6C03F0805344
:1005F8000193019B02941B4B1A6842F440421A6013
:100608001B6803F440430293029B01260E964FF4A5
:1006180080330F93022514954FF4800315930C2310
:100628001693602317931895042319930EA801F0C5
:1006380029F90F2309930A950B944FF480530C93CF
:100648000D94032109A801F063FB0396C2230593C7
:1006580010230493069503A801F030FC1AB070BD6E
:10066800003802400070004008B500F0EFF9FFF7CD
:10067800A3FFFFF729FFFFF75BFFFFF741FFFFF736
:1006880071FF00F075F9054C204600F065FD4FF448
:10069800FA620349204600F02DFEFEE7CC0F002049
:1006A8002C000020704780ED000A80ED010A00232D
:1006B80003734373C0ED020A00230361036283617D
:1006C8004FF07E53C361704780ED020A7047000007
:1006D800D0ED047AF5EEC07AF1EE10FA0CD59FED64
:1006E800257A77EE877AC0ED047AF1E79FED217AD3
:1006F80077EEC77AC0ED047AD0ED047A9FED1D7AC3
:10070800F4EEC77AF1EE10FAF0DA9FED1B7AF4EE08
:10071800C77AF1EE10FA1AD590ED007AF6EE006A73
:1007280027EE267A9FED146AC7EE866A27EE267AA8
:1007380080ED087A90ED027ADFED106A27EE267ACE
:1007480077EE877AC0ED047A90ED080A704790ED4D
:10075800007AF6EE006A27EE267A9FED076AC7EE62
:10076800866AB0EE006A76EEC66A27EE267A80EDD3
:10077800087ADFE7DB0FC940DB0F49402FE34D392B
:1007880010B5064C2046FFF79FFF2046FFF7A0FF55
:10079800DFED037A20EE270A10BD00BFB410002059
:1007A800CDCC4C3F82B0002100910B4B5A6C42F4E7
:1007B80080425A645A6C02F480420092009A019175
:1007C8001A6C42F080521A641B6C03F08053019338
:1007D800019B02B0704700BF0038024030B589B0B5
:1007E8000023039304930593069307930268274B0A
:1007F8009A4201D009B030BD04460025019503F5A1
:1008080084335A6C42F480525A645A6C02F480520F
:100818000192019A02951A6B42F001021A631B6B4E
:1008280003F001030293029BB02303930223049372
:10083800059506950523079303A9154800F0B8FB0D
:100848001448154B03604FF0806343604023836076
:10085800C5604FF4806303614FF4006343614FF454
:10086800005383614FF48073C361056204234362BC
:1008780003238362C562056300F0FEF918B9054BCE
:10088800A3639C63B6E7FFF70DFFF8E7003001406C
:1008980000000240541000204064024010B588B0A7
:1008A8000023039304930593069307930268194B57
:1008B8009A4201D008B010BD0024019403F5FA3320
:1008C8001A6C42F400321A641A6C02F40032019273
:1008D800019A02941A6B42F001021A631B6B03F02F
:1008E80001030293029B0C230393022304930594B0
:1008F800032306930723079303A9074800F058FB2F
:1009080022462146262000F0DFF8262000F010F9C4
:10091800D0E700BF00440040000002407047FEE7F7
:10092800FEE7FEE7FEE770477047704708B500F03E
:10093800A7F808BD08B5024801F078FD08BD00BF5A
:100948001410002008B5024800F044FA08BD00BFA2
:1009580054100020054BD3F8882042F47002C3F8E5
:1009680088204FF000629A60704700BF00ED00E0F9
:1009780008B5DFED040A9FED040A0448FFF793FE6B
:1009880008BD00BF00C01244CDCC4C3FB4100020BD
:1009980070B505460E46184B184A1A6000240FE039
:1009A800DFED177A20EE270ABDEEC00A10EE103AE6
:1009B8009BB22A4622F8043B6B800134A4B2154648
:1009C800B44217D20C4B93ED000AFFF7D9FEF7EEAD
:1009D800007AB4EEE70AF1EE10FA01DDB0EE670A2C
:1009E800FFEE007AB4EEE70AF1EE10FAD8D5B0EED1
:1009F800670AD5E770BD00BF280000200000484303
:100A080000FEFF4610B504460E4B18784FF47A7373
:100A1800B3FBF0F30C4A1068B0FBF3F000F096F863
:100A280068B90F2C01D901200AE0002221464FF0B5
:100A3800FF3000F049F8034B5C60002000E0012023
:100A480010BD00BF040000200000002008B50B4BBB
:100A58001A6842F400721A601A6842F480621A60D6
:100A68001A6842F480721A60032000F01BF8002014
:100A7800FFF7C8FFFFF796FE002008BD003C0240C4
:100A8800034A1168034B1B780B441360704700BF7F
:100A9800D810002004000020014B1868704700BFE0
:100AA800D8100020074AD36823F4E0631B041B0C0A
:100AB800000200F4E060034343F0BF6343F40033F3
:100AC800D360704700ED00E030B4174BDB68C3F328
:100AD8000223C3F10704042C28BF04241D1D062D7E
:100AE80018D9033B4FF0FF3505FA04F421EA040155
:100AF800994005FA03F322EA0303194300280BDBA4
:100B08000901C9B200F1604000F5614080F80013A6
:100B180030BC70470023E5E700F00F000901C9B2B7
:100B2800024B1954F4E700BF00ED00E014ED00E0BB
:100B3800002807DB00F01F02400901239340024A06
:100B480042F82030704700BF00E100E00138B0F102
:100B5800807F0AD2064B5860064AF02182F823109B
:100B68000020986007221A6070470120704700BF74
:100B780010E000E000ED00E030B405682C6824F4D3
:100B880080242C60046863608368402B05D0036868
:100B980099600368DA6030BC704703689A6003683C
:100BA800D960F8E710B40368D9B210390C4AA2FB2F
:100BB800014212090B4CA25CC2655F2909D923F4D2
:100BC8007F7323F0030304338365806D5DF8044B62
:100BD800704723F47F7323F003038365F5E700BFB1
:100BE800ABAAAAAA48260008836A826992B9012B8F
:100BF8000AD0022B02D00BB100207047C36A13F051
:100C0800807F28D100207047C36AB3F1C07F24D009
:100C180000207047B2F5005F09D0022B25D9032BBD
:100C280025D1C36A13F0807F23D100207047032B9E
:100C380003D8DFE803F01404140A00207047C36ADD
:100C480013F0807F0DD100207047C36AB3F1C07FD5
:100C580009D000207047012070470120704701200B
:100C6800704701207047012070470120704700201D
:100C7800704701207047000070B50446FFF70CFF6D
:100C8800002C5BD00546002384F83430022384F816
:100C980035302268136823F00103136023681A684B
:100CA80012F0010F0AD0FFF7F7FE431B052BF5D909
:100CB80020236365032084F8350070BD1A68204836
:100CC80010406168A2680A43E1680A4321690A433F
:100CD80061690A43A1690A43E1690A43216A0A432F
:100CE8000243616A04291ED01A602668756925F0D6
:100CF8000705636A1D43042B07D1A36A1D43E36AF2
:100D08001BB12046FFF770FF90B975612046FFF7C9
:100D180049FFE26D3F239340836000206065012313
:100D280084F83530C9E7E16A206B01430A43DBE701
:100D380040236365012084F83500BEE70120BCE745
:100D48003F8010F038B50446856D90F834000128CE
:100D58002BD0012084F8340094F83500C0B2012863
:100D680004D0002384F83430022038BD022084F8EF
:100D78003500002060652046FFF7FEFEE26D3F2348
:100D88009340AB602268136843F016031360236C2A
:100D980023B12268136843F00803136022681368BC
:100DA80043F0010313600020DFE70220DDE790F83D
:100DB8003530DBB2022B03D0802343650120704716
:100DC800052380F835300268136823F001031360A7
:100DD80000207047F0B583B0044600230193724B9E
:100DE8001D68724BA3FB0535AD0A876D3E68C26D61
:100DF80008239340334210D003681A6812F0040F96
:100E08000BD01A6822F004021A60C26D08239340BE
:100E1800BB60436D43F001034365E26D01239340DA
:100E2800334209D02268526912F0800F04D0BB60A7
:100E3800636D43F002036365E26D0423934033421C
:100E480009D02268126812F0020F04D0BB60636DEB
:100E580043F004036365E26D10239340334224D0CA
:100E68002268126812F0080F1FD0BB6023681A6846
:100E780012F4802F0DD01B6813F4002F04D1236CBB
:100E88009BB12046984710E0A36C73B12046984761
:100E98000BE01A6812F4807F03D11A6822F0080266
:100EA8001A60236C0BB120469847E26D20239340CB
:100EB800334255D02268126812F0100F50D0BB6030
:100EC80094F83530DBB2052B0ED023681A6812F47B
:100ED800802F33D01B6813F4002F2AD1636C002BAA
:100EE8003ED0204698473BE02268136823F016035B
:100EF80013602268536923F080035361236CA3B104
:100F08002268136823F008031360E26D3F239340BF
:100F1800BB60002384F83430012384F83530236D16
:100F2800002B3FD0204698473CE0A36C002BE7D12C
:100F3800EBE7E36BA3B12046984711E01A6812F477
:100F4800807F09D11A6822F010021A60002384F801
:100F58003430012384F83530E36B0BB120469847D1
:100F6800636DFBB1636D13F0010F17D0052384F88F
:100F780035302268136823F001031360019B0133A5
:100F88000193AB4204D823681B6813F0010FF5D115
:100F9800002384F83430012384F83530E36C0BB136
:100FA8002046984703B0F0BD00000020B5814E1BD5
:100FB80000230F2B00F2C780F0B583B039E004227C
:100FC80000E00022B2403A4302345F4E46F8242043
:100FD8005E4A1468EA4324EA05064F6817F4803F1E
:100FE80001D045EA0406594C2660646802EA040602
:100FF8004F6817F4003F01D045EA0406534C666079
:10100800A46802EA04064F6817F4801F01D045EA75
:1010180004064E4CA660E46822404E6816F4001F91
:1010280001D045EA0402494CE26001330F2B00F27B
:10103800888001229A400C6804EA020532EA040416
:10104800F3D14C68661E012E03D9112C01D0122C45
:1010580012D186685F000324BC4026EA0406CC68E7
:10106800BC4034438460466826EA02064C68C4F3F0
:1010780000129A4032434260C7685E000324B440BD
:10108800E24327EA04078C68B4403C43C4604C68D8
:10109800022C01D0122C13D1DF08083750F827E0B2
:1010A80003F007044FEA840C0F2404FA0CF42EEA28
:1010B800040E0C6904FA0CF444EA0E0440F82740C4
:1010C800046814404A6802F00302B24022430260F6
:1010D8004A6812F0805FA8D0002201921C4A546C22
:1010E80044F480445464526C02F480420192019AA0
:1010F8009C08A61C144A52F8267003F003029600B6
:101108000F22B24027EA0207124A90423FF459AF31
:1011180002F5806290420ED002F5806290420CD0B7
:1011280002F5806290420AD002F5806290423FF454
:1011380046AF072246E7012244E7022242E703229C
:1011480040E703B0F0BD704700380140003C014063
:101158000038024000000240002800F0BF8070B54F
:10116800044690F84130002B51D0022284F84120E7
:101178002168CB6923F47B6323F00F03CB612368D9
:101188001A626369934263D0E368002B46D1102545
:10119800A368202B00D86D00012000F047FF2369C9
:1011A800B3F5007F3CD0B0FBF5F000EB80004300C6
:1011B8006069B3FBF0F30533494AA2FB0323C3F389
:1011C800C002C2EBD3035B0811029A1EFD2A41D864
:1011D80022690A43216813430B622168CB6923F40F
:1011E8007B6323F00F036268A0680243E068024350
:1011F800A0690243134343F40063CB61236A012BC4
:101208002ED000206064012384F8413070BD80F83E
:101218004030344B4363FFF7E1FAA6E72025B7E7F0
:10122800E36853B1AD00B0FBF5F000EB800043007C
:101238006069B3FBF0F30533BEE7ED00B0FBF5F0F2
:1012480000EB800043006069B3FBF0F30533B3E7BC
:101258000021BAE7636C43F0100363640120D5E70B
:10126800214B63632268214B9A421FD04FF04022E2
:10127800D36923F47B6323F00F03D36122681B4BEC
:101288009A4215D04FF0402302221A622268174B67
:101298009A4210D04FF04021CA6992B26368B3F500
:1012A800007F0AD0C3B94FF4807608E0104ADFE720
:1012B800A3F58063E8E70E49EEE74FF48076A0686F
:1012C800E568238B2B439BB203439BB23343134301
:1012D80043F40063CB6194E70026F0E701207047F0
:1012E800CDCCCCCC7B140008B516000800380040E3
:1012F8000034004000295ED038B50446002A5CD08E
:1013080094F84030DBB2012B59D0012384F84030E7
:1013180094F84150EDB29D4210D1032384F8413036
:101328000023636461622368DB6903F00703032B0E
:1013380009D0052B07D02285628508E0002384F8B0
:10134800403002203AE0520092B222856285A36BB7
:101358001C4A1A64A36B1C4ADA63A36B1B4ADA643F
:101368002268238D9BB20C32616AA06BFFF7EAFCFE
:10137800A8B92368DA6912F4806F03D1DA6942F4F4
:101388008062DA6123685A6812F0020F03D15A6842
:1013980042F002025A60002384F840300EE0636C89
:1013A80043F008036364012384F84130002384F880
:1013B8004030284602E001207047012038BD022055
:1013C800FCE700BFD91300081B1400084B150008E0
:1013D80008B5806BFFF7DCF808BD08B5426A0368FA
:1013E8001288DA60436A02334362438D9BB2013B41
:1013F8009BB24385438D9BB203B108BD0268536815
:1014080023F0A0035360012380F84130FFF7CAF8A6
:10141800F3E708B50346806BDB694BB9026853688C
:1014280023F00203536000234385012380F84130F1
:10143800FFF7B8F808BD704708B50368DA68C36AEB
:101448001A80C36A0233C362438E9BB2013B9BB2CC
:101458004386438E9BB203B108BD0268536823F0EC
:1014680060035360012380F84130FFF7E4FFF3E79E
:10147800704710B584B0044602689368039390F8E7
:101488004130DBB2042B06D094F84130DBB2032B99
:101498002CD004B010BD039B13F0010F03D0536888
:1014A80013F0400F1FD1039B13F0400FECD02368BB
:1014B8005A6812F0200FE7D05A6822F060025A608A
:1014C800002301932368DA6801929B680193019BCA
:1014D800012384F84130636C43F0020363642046BF
:1014E800FFF7C6FFD0E7FFF7A7FFDCE7039B13F082
:1014F800020F04D023685B6813F0800F1DD1039B93
:1015080013F0080FC5D023685A6812F0200FC0D016
:101518005A6822F0A0025A600023029323689B684D
:101528000293029B012384F84130636C43F0040367
:1015380063642046FFF79CFFABE72046FFF74DFFAB
:10154800DDE708B5806B0268536823F00303536036
:10155800002343854386012380F84130436C43F0E0
:1015680008034364FFF784FF08BD704708B5436A62
:101578009A1C426202681B88D360438D9BB2013B70
:101588009BB24385438D9BB23BB90268536823F0F5
:10159800A0035360438E9BB203B108BD012380F8BA
:1015A8004130FFF7E2FFF8E708B50268154B9A42A9
:1015B8001CD04FF04023DA68C36A991CC1621A80B4
:1015C800438E9BB2013B9BB24386438E9BB263B969
:1015D80002680C4B9A420CD04FF04022536823F01B
:1015E80060035360438D9BB22BB108BDA3F58063A4
:1015F800E1E7054AF2E7012380F84130FFF7B5FF3C
:10160800F3E700BF003800400034004008B5436AE3
:101618009A1C42621A880168134B994218D04FF0FD
:101628004023DA60438D9BB2013B9BB24385438DD7
:101638009BB263B902680C4B9A420CD04FF040221F
:10164800536823F0A0035360438E9BB22BB108BDAF
:10165800A3F58063E5E7054AF2E7012380F8413006
:10166800FFF783FFF3E700BF003800400034004075
:1016780008B50368DA68C36A991CC1621A80438E88
:101688009BB2013B9BB24386438E9BB23BB9026837
:10169800536823F060035360438D9BB203B108BDC8
:1016A800012380F84130FFF760FFF8E710B586B0F6
:1016B800044603689A680592704A93426FD04FF0C7
:1016C8004022916804915B680393536802936368AE
:1016D800B3F5007F01D0002B70D1059B13F0020FEA
:1016E80003D0039B13F0800F5CD1049B13F0010F10
:1016F80003D0029B13F0400F58D1049B13F0400F06
:1017080024D0029B13F0200F20D022685B4B9A4212
:1017180050D04FF04022536823F060035360226892
:10172800536823F0A0035360002300932368DA680A
:1017380000929B680093009B012384F84130636CFE
:1017480043F0020363642046FFF792FE059B13F003
:10175800080F22D0039B13F0200F1ED02268536875
:1017680023F0A00353602268444B9A4224D04FF0E0
:101778004022536823F060035360002301932368D9
:101788009B680193019B012384F84130636C43F00B
:10179800040363642046FFF76BFE06B010BDA2F594
:1017A80080628EE72046FFF7E1FE9EE72046FFF7BE
:1017B800FBFEA2E7324AAEE7314ADAE7049B13F0B0
:1017C800020F03D0029B13F0800F4AD1059B13F040
:1017D800010F03D0039B13F0400F46D1059B13F074
:1017E800400F1CD0039B13F0200F18D022685368B9
:1017F80023F0600353602268204B9A4239D04FF09F
:101808004022536823F0A0035360012384F8413039
:10181800636C43F0020363642046FFF729FE049BD0
:1018280013F0080FB9D0029B13F0200FB5D022682F
:10183800124B9A421FD04FF04022536823F0A00366
:1018480053602268536823F060035360012384F8CF
:101858004130636C43F0040363642046FFF708FEDD
:101868009BE72046FFF7D2FEB0E72046FFF700FFD0
:10187800B4E7034AC5E7024ADFE700BF0038004083
:1018880000340040002800F0D98170B582B00446C9
:10189800036813F0010F3BD0A64B9B6803F00C03C1
:1018A800042B2CD0A34B9B6803F00C03082B21D0EE
:1018B8006368B3F5803F4FD0B3F5A02F52D09D4B4E
:1018C8001A6822F480321A601A6822F480221A6098
:1018D8006368002B50D0FFF7DFF80546954B1B686F
:1018E80013F4003F14D1FFF7D7F8401B6428F5D94B
:1018F8000320AAE18F4B5B6813F4800FD8D08D4B7F
:101908001B6813F4003F03D06368002B00F0988134
:10191800236813F0020F54D0864B9B6813F00C0F0A
:101928003ED0844B9B6803F00C03082B33D0E3684C
:10193800002B67D0804B01221A60FFF7ADF80546EF
:101948007C4B1B6813F0020F53D1FFF7A5F8401B1F
:101958000228F5D9032078E1764A136843F48033E6
:101968001360B5E7734B1A6842F480221A601A684C
:1019780042F480321A60ABE7FFF78EF805466D4BEC
:101988001B6813F4003FC3D0FFF786F8401B642898
:10199800F5D9032059E1674B5B6813F4800FC6D172
:1019A800644B1B6813F0020F03D0E368012B40F06F
:1019B8004981604A136823F0F803216943EAC103A7
:1019C8001360236813F0080F40D0636963B35B4B5F
:1019D80001221A60FFF760F80546564B5B6F13F05B
:1019E800020F33D1FFF758F8401B0228F5D903201E
:1019F8002BE1504A136823F0F803216943EAC10335
:101A08001360DEE74C4B00221A60FFF745F80546E5
:101A1800484B1B6813F0020FD3D0FFF73DF8401B6B
:101A28000228F5D9032010E1444B00221A60FFF781
:101A380033F805463F4B5B6F13F0020F06D0FFF7F4
:101A48002BF8401B0228F5D90320FEE0236813F089
:101A5800040F78D0374B1B6C13F0805F0DD1002337
:101A68000193344B1A6C42F080521A641B6C03F0D9
:101A780080530193019B012500E00025304B1B6832
:101A880013F4807F21D0A368012B32D0052B36D0E8
:101A9800284B1A6F22F001021A671A6F22F004020B
:101AA8001A67A368002B34D0FEF7F6FF0646214BD1
:101AB8001B6F13F0020F45D1FEF7EEFF801B41F2BA
:101AC80088339842F3D90320BFE01D4A136843F4D2
:101AD80080731360FEF7E0FF0646194B1B6813F48A
:101AE800807FD0D1FEF7D8FF801B0228F5D90320CC
:101AF800ABE0104A136F43F001031367D1E70D4BB6
:101B08001A6F42F004021A671A6F42F001021A674C
:101B1800C7E7FEF7C1FF0646064B1B6F13F0020F1F
:101B280010D0FEF7B9FF801B41F288339842F3D9F1
:101B380003208AE00038024000004742800E4742F6
:101B480000700040E5B9A369002B7DD0464A926831
:101B580002F00C02082A51D0022B17D0434B002266
:101B68001A60FEF799FF04463F4B1B6813F0007F8D
:101B780042D0FEF791FF001B0228F5D9032064E04C
:101B8800394A136C23F080531364DCE7374B002287
:101B98001A60FEF781FF0546334B1B6813F0007F80
:101BA80006D0FEF779FF401B0228F5D903204CE048
:101BB800E369226A1343626A43EA8213A26A5208FB
:101BC800013A43EA0243E26A43EA0263264A53605F
:101BD800264B01221A60FEF75FFF0446224B1B6862
:101BE80013F0007F06D1FEF757FF001B0228F5D936
:101BF80003202AE0002028E0002026E0012B26D040
:101C0800194B5B6803F48001E269914221D103F02A
:101C18003F02216A8A421ED1616A47F6C0721A40A1
:101C28008A421AD103F44032A16A8A4217D103F0DA
:101C38007063E26A934214D1002006E001207047E5
:101C4800012002E0012000E0002002B070BD012068
:101C5800FBE70120F9E70120F7E70120F5E701207C
:101C6800F3E70120F1E700BF003802406000474277
:101C7800F8B5244B9B6803F00C03042B3DD0082BCC
:101C88003DD1204B5A6802F03F025B6813F4800F85
:101C980012D01C4B5968C1F3881100231A48A1FBC4
:101CA8000001FEF795FA174B5B68C3F30143013354
:101CB8005B00B0FBF3F023E0124B5B68C3F38813BF
:101CC8005C010025E41A65F10005AE0146EA946658
:101CD800A701381B66EB0501CC0044EA5074C50027
:101CE800E81844F100018B0243EA9053840220462D
:101CF80019460023FEF76CFAD5E7034800E00348CD
:101D0800F8BD00BF0038024040787D010024F4008F
:101D1800002800F09B8070B50D4604464F4B1B68A9
:101D280003F00F038B4208D2CBB24C4A13701368EE
:101D380003F00F038B4240F08B80236813F0020FEF
:101D480017D013F0040F04D0454A936843F4E053C6
:101D58009360236813F0080F04D0414A936843F452
:101D6800604393603E4A936823F0F003A1680B43F5
:101D78009360236813F0010F32D06368012B21D0E0
:101D88009A1E012A25D9364A126812F0020F61D02C
:101D980033498A6822F0030213438B60FEF77CFE06
:101DA80006462F4B9B6803F00C036268B3EB820F67
:101DB80016D0FEF771FE801B41F288339842F0D9A5
:101DC800032042E0264A126812F4003FE0D10120C5
:101DD8003BE0234A126812F0007FD9D1012034E099
:101DE8001E4B1B6803F00F03AB4207D9EAB21B4B2B
:101DF8001A701B6803F00F03AB422DD1236813F050
:101E0800040F06D0164A936823F4E053E1680B43A5
:101E18009360236813F0080F07D0114A936823F4DE
:101E28006043216943EAC1039360FFF721FF0C4B2C
:101E38009B68C3F303130B4AD35CD8400A4B186062
:101E48000A4B1868FEF7DEFD002070BD01207047C0
:101E58000120FAE70120F8E70120F6E7003C0240FC
:101E6800003802403026000800000020080000204A
:101E7800014B1868704700BF0000002008B5FFF745
:101E8800F7FF044B9B68C3F38223034AD35CD84013
:101E980008BD00BF003802404026000808B5FFF71B
:101EA800E7FF044B9B68C3F34233034AD35CD84033
:101EB80008BD00BF003802404026000830B583B096
:101EC8000446036813F0050F0ED1236813F0020FC0
:101ED80038D1236813F0080F00F09B80227D4E4B09
:101EE8001A60002003B030BD4C4B00221A60FEF788
:101EF800D3FD05464A4B1B6813F0006F06D0FEF76A
:101F0800CBFD431B022BF5D90320EBE76368A268DE
:101F180043EA8213E26843EA0273414AC2F8843012
:101F28003E4B01221A60FEF7B7FD05463C4B1B6885
:101F380013F0006FC9D1FEF7AFFD401B0228F5D999
:101F48000320CFE700230193354B1A6C42F08052EF
:101F58001A641B6C03F080530193019B314A136888
:101F680043F480731360FEF797FD05462D4B1B68FD
:101F780013F4807F06D1FEF78FFD431B022BF5D9A2
:101F88000320AFE7264B1B6F13F4407312D022696E
:101F980002F440729A420DD0214B1A6F22F440721B
:101FA800214901200860002008601A671B6F13F0A0
:101FB800010F12D1236903F44072B2F5407F1DD09E
:101FC800174A936823F4F813936015490B6F226935
:101FD800C2F30B0213430B677BE7FEF75DFD054673
:101FE8000F4B1B6F13F0020FE4D1FEF755FD401B9A
:101FF80041F288339842F3D9032073E708498A6885
:1020080022F4F81223F0704323F4407313438B60D7
:10201800DBE7002066E700BFE0114742680047425F
:102028000038024000700040400E4742012801D0AD
:1020380000207047174B9B6813F4000303D0012B53
:1020480025D115487047134B5B6813F4800F15D0E2
:10205800104BD3F8843003F03F031048B0FBF3F083
:102068000C4AD2F88430C3F3881300FB03F0D2F88B
:102078008430C3F30273B0FBF3F07047054BD3F819
:10208800843003F03F030648B0FBF3F0E8E7002094
:10209800704700BF003802400080BB0040787D01D7
:1020A8000024F4000268D36823F49073D3600268B4
:1020B800536923F001035361202380F83A307047B5
:1020C80090F83930DBB2212B01D0022070478368A9
:1020D800B3F5805F17D0036A5A1C02621A78036846
:1020E8005A60C38C9BB2013B9BB2C3844BB9026854
:1020F800D36823F08003D3600268D36843F04003B9
:10210800D36000207047036A1B880268C3F3080382
:10211800536003691BB9036A02330362E1E7036A88
:1021280001330362DDE7000070B5044602681369F5
:1021380023F44053C1680B43136183680269134356
:1021480042691343C2691A430168CB6823F41643F2
:1021580023F00C031343CB600268536923F44073E4
:1021680081690B435361C369B3F5004F36D00368E7
:10217800654A934200F09A8002F58062934200F02B
:102188009580FFF77BFE0026051846EB06012D1803
:1021980046EB0101CB0043EA5573EA0015461946A0
:1021A80063689A009B0F281846EB0101FEF710F8A8
:1021B800564DA5FB00325109642303FB11031B0193
:1021C8003233A5FB03235B0903F0F00202EB011293
:1021D80003F00F03216813448B6093E003684A4AB5
:1021E800934233D002F5806293422FD0FFF746FE28
:1021F8000026051846EB06012D1846EB0101CB0019
:1022080043EA5573EA001546194662683346921840
:1022180046EB0303281846EB0101FDF7D9FF3B4DB8
:10222800A5FB00325109642303FB1103DB003233A1
:10223800A5FB03235B095A0002F4F87202EB0112B2
:1022480003F00703216813448B605BE0FFF726FE69
:102258000026051846EB06012D1846EB0101CB00B8
:1022680043EA5573EA0015461946626833469218E0
:1022780046EB0303281846EB0101FDF7A9FF234DA0
:10228800A5FB00325109642303FB1103DB00323341
:10229800A5FB03235B095A0002F4F87202EB011252
:1022A80003F00703216813448B602BE0FFF7F6FD6A
:1022B8000026051846EB06012D1846EB0101CB0058
:1022C80043EA5573EA001546194663689A009B0F5E
:1022D800281846EB0101FDF77BFF0C4DA5FB0032EA
:1022E8005109642303FB11031B013233A5FB0323AC
:1022F8005B0903F0F00202EB011203F00F032168FF
:1023080013448B6070BD00BF001001401F85EB5166
:1023180058B310B5044690F839300BB3242384F829
:1023280039302268D36823F40053D3602046FFF77E
:10233800FBFE2268136923F49043136122685369F2
:1023480023F02A0353612268D36843F40053D3600F
:102358000020E063202384F8393084F83A3010BD37
:1023680080F83830FEF79AFAD8E7012070477047AE
:1023780008B50168CA6822F04002CA60202280F8C5
:102388003920FFF7F4FF002008BD704708B590F822
:102398003A30DBB2222B46D18368B3F5805F0FD089
:1023A80003690BBB03685A68836A591C81621A70F7
:1023B800C38D9BB2013B9BB2C385F3B1002008BD1E
:1023C800826A036943B903685B68C3F3080313802F
:1023D800836A02338362EBE703685B68DBB21380CE
:1023E800836A01338362E3E703685B68826A511C8E
:1023F800816203F07F031370DAE70268D36823F081
:102408002003D3600268D36823F48073D360026822
:10241800536923F001035361202380F83A30FFF712
:10242800B4FF0020CBE70220C9E7704710B5044687
:1024380002681368D168526913F00F0005D113F0D0
:10244800200F02D011F0200F13D128B112F0010291
:1024580013D111F4907F10D113F0800F02D011F036
:10246800800F6CD113F0400F02D011F0400F6AD1E9
:1024780010BD2046FFF78AFFFAE713F0010F06D0D8
:1024880011F4807F03D0E06B40F00100E06313F0AB
:10249800040F04D01AB1E06B40F00200E06313F0BF
:1024A800020F04D01AB1E06B40F00400E06313F0AF
:1024B800080F07D011F0200F00D11AB1E26B42F0DB
:1024C8000802E263E26B002AD2D013F0200F02D098
:1024D80011F0200F21D123685B6903F04003E26B00
:1024E80012F0080F00D123B32046FFF7DBFD236865
:1024F8005A6912F0400F18D05A6922F040025A6106
:10250800636B73B1124A1A65606BFEF750FC0028C2
:10251800AED0606B036D9847AAE72046FFF736FFF9
:10252800D9E72046FFF781FFA2E72046FFF77DFFA6
:102538009EE72046FFF779FF0023E36398E72046EC
:10254800FFF7BEFD94E72046FFF712FF90E700BFB4
:102558005D25000808B5806B0023C385C384FFF799
:1025680064FF08BDDFF834D0002103E00C4B5B5852
:10257800435004310B480C4B42189A42F6D30B4A8D
:1025880002E0002342F8043B094B9A42F9D3FEF7D4
:10259800E1F900F011F8FEF767F870470000022033
:1025A80060260008000000200C0000200C0000201D
:1025B800DC100020FEE7000070B50D4D0D4C641BCB
:1025C800A4100026A64209D10B4D0C4C00F020F8AF
:1025D800641BA4100026A64205D170BD55F8043B23
:1025E80098470136EEE755F8043B98470136F2E77D
:1025F8005826000858260008582600085C260008B7
:1026080002440346934200D1704703F8011BF9E7DF
:10261800F8B500BFF8BC08BC9E467047F8B500BFC7
:08262800F8BC08BC9E46704797
:102630000000000000000000010203040607080972
:102640000000000001020304000610160006101628
:08265000B8DBFF7F0100000070
:04265800BD010008B8
:04265C0099010008D8
:0C2660000024F400010000001000000045
:040000050800256D5D
:00000001FF
