:020000040800F2
:1000000000000220D13200085515000857150008DD
:10001000591500085B1500085D1500080000000078
:100020000000000000000000000000005F15000854
:100030006115000800000000631500086515000840
:100040002133000821330008213300082133000840
:100050002133000821330008213300082133000830
:100060002133000821330008213300082133000820
:100070002133000821330008213300082133000810
:10008000213300082133000821330008000000005C
:100090000000000000000000000000002133000804
:1000A00021330008213300082133000821330008E0
:1000B00021330008213300082133000821330008D0
:1000C00021330008213300082133000821330008C0
:1000D00021330008213300086D15000800000000DE
:1000E00021330008213300082133000800000000FC
:1000F00000000000000000000000000021330008A4
:1001000000000000213300082133000821330008DB
:1001100000000000000000000000000000000000DF
:1001200021330008213300087D1500082133000821
:100130002133000800000000000000000000000063
:100140000000000000000000000000002133000853
:10015000213300082133000821330008213300082F
:1001600021330008213300080000000000000000D7
:10017000000000000000000000000000000000007F
:100180000000000021330008000000000000000013
:080190002133000821330008AF
:1001980010B5054C237833B9044B13B10448AFF3B9
:1001A80000800123237010BD7C00002000000000A7
:1001B800943D000808B5034B1BB103490348AFF34E
:1001C800008008BD0000000080000020943D000869
:1001D80081F0004102E000BF83F0004330B54FEAF0
:1001E80041044FEA430594EA050F08BF90EA020F5D
:1001F8001FBF54EA000C55EA020C7FEA645C7FEAF0
:10020800655C00F0E2804FEA5454D4EB5555B8BF12
:100218006D420CDD2C4480EA020281EA030382EA83
:10022800000083EA010180EA020281EA0303362D15
:1002380088BF30BD11F0004F4FEA01314FF4801CE8
:100248004CEA113102D0404261EB410113F0004FFA
:100258004FEA03334CEA133302D0524263EB4303B1
:1002680094EA050F00F0A780A4F10104D5F1200E4F
:100278000DDB02FA0EFC22FA05F2801841F10001AA
:1002880003FA0EF2801843FA05F359410EE0A5F17E
:1002980020050EF1200E012A03FA0EFC28BF4CF0AF
:1002A800020C43FA05F3C01851EBE37101F0004565
:1002B80007D54FF0000EDCF1000C7EEB00006EEB72
:1002C8000101B1F5801F1BD3B1F5001F0CD34908FC
:1002D8005FEA30004FEA3C0C04F101044FEA445253
:1002E80012F5800F80F09A80BCF1004F08BF5FEADA
:1002F800500C50F1000041EB045141EA050130BDBA
:100308005FEA4C0C404141EB010111F4801FA4F15C
:100318000104E9D191F0000F04BF01460020B1FAB1
:1003280081F308BF2033A3F10B03B3F120020CDAE9
:100338000C3208DD02F1140CC2F10C0201FA0CF0C7
:1003480021FA02F10CE002F11402D8BFC2F1200C2C
:1003580001FA02F120FA0CFCDCBF41EA0C019040E2
:10036800E41AA2BF01EB0451294330BD6FEA04042B
:100378001F3C1CDA0C340EDC04F11404C4F1200216
:1003880020FA04F001FA02F340EA030021FA04F328
:1003980045EA030130BDC4F10C04C4F1200220FA7F
:1003A80002F001FA04F340EA0300294630BD21FABD
:1003B80004F0294630BD94F0000F83F4801306BF83
:1003C80081F480110134013D4EE77FEA645C18BF77
:1003D8007FEA655C29D094EA050F08BF90EA020F0E
:1003E80005D054EA000C04BF1946104630BD91EA06
:1003F800030F1EBF0021002030BD5FEA545C05D109
:100408004000494128BF41F0004130BD14F5800447
:100418003CBF01F5801130BD01F0004545F0FE41BB
:1004280041F470014FF0000030BD7FEA645C1ABFF0
:10043800194610467FEA655C1CBF0B46024650EA27
:10044800013406BF52EA033591EA030F41F4002153
:1004580030BD00BF90F0000F04BF0021704730B5D9
:100468004FF4806404F132044FF000054FF00001AE
:1004780050E700BF90F0000F04BF0021704730B56F
:100488004FF4806404F1320410F0004548BF404244
:100498004FF000013EE700BF42004FEAE2014FEA99
:1004A80031014FEA02701FBF12F07F4393F07F4F74
:1004B80081F06051704732F07F4208BF704793F077
:1004C8007F4F04BF41F40021704730B54FF460748A
:1004D80001F0004521F000411CE700BF50EA01028D
:1004E80008BF704730B54FF000050AE050EA010236
:1004F80008BF704730B511F0004502D5404261EBA6
:1005080041014FF4806404F132045FEA915C3FF4E6
:10051800D8AE4FF003025FEADC0C18BF03325FEA83
:10052800DC0C18BF033202EBDC02C2F1200300FA34
:1005380003FC20FA02F001FA03FE40EA0E0021FA59
:1005480002F11444BDE600BF70B54FF0FF0C4CF447
:10055800E06C1CEA11541DBF1CEA135594EA0C0FF9
:1005680095EA0C0F00F0DEF82C4481EA030621EA34
:100578004C5123EA4C5350EA013518BF52EA03356F
:1005880041F4801143F4801338D0A0FB02CE4FF021
:100598000005E1FB02E506F00042E0FB03E54FF051
:1005A8000006E1FB03569CF0000F18BF4EF0010E49
:1005B800A4F1FF04B6F5007F64F5407404D25FEA45
:1005C8004E0E6D4146EB060642EAC62141EA5551F8
:1005D8004FEAC52040EA5E504FEACE2EB4F1FD0C3A
:1005E80088BFBCF5E06F1ED8BEF1004F08BF5FEAB8
:1005F800500E50F1000041EB045170BD06F000466A
:1006080046EA010140EA020081EA0301B4EB5C0416
:10061800C2BFD4EB0C0541EA045170BD41F480110E
:100628004FF0000E013C00F3AB8014F1360FDEBF33
:10063800002001F0004170BDC4F10004203C35DA0F
:100648000C341BDC04F11404C4F1200500FA05F392
:1006580020FA04F001FA05F240EA020001F0004233
:1006680021F0004110EBD37021FA04F642EB0601A9
:100678005EEA430E08BF20EAD37070BDC4F10C04D3
:10068800C4F1200500FA04F320FA05F001FA04F297
:1006980040EA020001F0004110EBD37041F1000183
:1006A8005EEA430E08BF20EAD37070BDC4F120058E
:1006B80000FA05F24EEA020E20FA04F301FA05F2F6
:1006C80043EA020321FA04F001F0004121FA04F29E
:1006D80020EA020000EBD3705EEA430E08BF20EA6E
:1006E800D37070BD94F0000F0FD101F000464000A8
:1006F80041EB010111F4801F08BF013CF7D041EA2A
:10070800060195F0000F18BF704703F0004652002D
:1007180043EB030313F4801F08BF013DF7D043EAFE
:100728000603704794EA0C0F0CEA135518BF95EAB4
:100738000C0F0CD050EA410618BF52EA4306D1D13B
:1007480081EA030101F000414FF0000070BD50EA5A
:10075800410606BF1046194652EA430619D094EAE4
:100768000C0F02D150EA013613D195EA0C0F05D1CE
:1007780052EA03361CBF104619460AD181EA030122
:1007880001F0004141F0FE4141F470014FF00000DA
:1007980070BD41F0FE4141F4780170BD70B54FF075
:1007A800FF0C4CF4E06C1CEA11541DBF1CEA1355F5
:1007B80094EA0C0F95EA0C0F00F0A7F8A4EB0504D7
:1007C80081EA030E52EA03354FEA013100F08880CE
:1007D8004FEA03334FF0805545EA131343EA126397
:1007E8004FEA022245EA111545EA10654FEA00264C
:1007F8000EF000419D4208BF964244F1FD0404F505
:10080800407402D25B084FEA3202B61A65EB030560
:100818005B084FEA32024FF480104FF4002CB6EB1D
:10082800020E75EB030E22BFB61A754640EA0C009D
:100838005B084FEA3202B6EB020E75EB030E22BFDD
:10084800B61A754640EA5C005B084FEA3202B6EB1E
:10085800020E75EB030E22BFB61A754640EA9C00DD
:100868005B084FEA3202B6EB020E75EB030E22BFAD
:10087800B61A754640EADC0055EA060E18D04FEA6B
:10088800051545EA16754FEA06164FEAC30343EA0B
:1008980052734FEAC2025FEA1C1CC0D111F4801FD8
:1008A8000BD141EA00014FF000004FF0004CB6E7D1
:1008B80011F4801F04BF01430020B4F1FD0C88BF70
:1008C800BCF5E06F3FF6AFAEB5EB030C04BFB6EB7B
:1008D800020C5FEA500C50F1000041EB045170BD6E
:1008E8000EF0004E4EEA113114EB5C04C2BFD4EB9B
:1008F8000C0541EA045170BD41F480114FF0000E1F
:10090800013C90E645EA060E8DE60CEA135594EA9A
:100918000C0F08BF95EA0C0F3FF43BAF94EA0C0F9D
:100928000AD150EA01347FF434AF95EA0C0F7FF412
:1009380025AF104619462CE795EA0C0F06D152EA66
:1009480003353FF4FDAE1046194622E750EA41064A
:1009580018BF52EA43067FF4C5AE50EA41047FF45B
:100968000DAF52EA43057FF4EBAE12E74FEA4102BE
:10097800B2F1E04324BFB3F5001CDCF1FE5C0DD9F5
:1009880001F0004C4FEAC0024CEA5070B2F1004F3F
:1009980040EB830008BF20F00100704711F0804F42
:1009A80021D113F13872BCBF01F00040704741F407
:1009B80080114FEA5252C2F11802C2F1200C10FA0B
:1009C8000CF320FA02F018BF40F001004FEAC123EF
:1009D8004FEAD32303FA0CFC40EA0C0023FA02F393
:1009E8004FEA4303CCE77FEA625307D150EA013369
:1009F8001EBF4FF0FE4040F44000704701F0004039
:100A080040F0FE4040F40000704700BF53B94AB9B7
:100A1800002908BF00281CBF4FF0FF314FF0FF30FE
:100A280000F072B9ADF1080C6DE904CE00F006F8DB
:100A3800DDF804E0DDE9022304B070472DE9F04752
:100A4800089E04468846002B4BD18A42154667D932
:100A5800B2FA82F24AB1C2F1200701FA02F320FA8F
:100A680007F7954047EA030894404FEA154E230CD0
:100A7800B8FBFEF71FFA85FC0EFB178843EA08430C
:100A880007FB0CF1994209D9EB1807F1FF3080F008
:100A98001B81994240F21881023F2B445B1AA4B291
:100AA800B3FBFEF00EFB103344EA034400FB0CFCDE
:100AB800A44509D92C1900F1FF3380F00781A4451A
:100AC80040F2048102382C4440EA0740A4EB0C04AD
:100AD80000271EB1D4400023C6E900433946BDE8CB
:100AE800F0878B4209D9002E00F0EB800027C6E979
:100AF800000138463946BDE8F087B3FA83F7002F7E
:100B080047D18B4202D3824200F2FA80841A61EB09
:100B1800030301209846002EE0D0C6E90048DDE72F
:100B280002B9FFDEB2FA82F2002A40F08F80491B38
:100B38004FEA154E1FFA85F80127B1FBFEFC230C7E
:100B48000EFB1C1143EA014308FB0CF1994207D93B
:100B5800EB180CF1FF3002D2994200F2CD808446A6
:100B6800591AA3B2B1FBFEF00EFB101443EA044479
:100B780008FB00F8A04507D92C1900F1FF3302D271
:100B8800A04500F2B6801846A4EB080440EA0C40E1
:100B98009FE7C7F1200CBB4022FA0CFE4EEA030E79
:100BA80001FA07F420FA0CF521FA0CF34FEA1E4873
:100BB8002543B3FBF8F92C0C08FB19331FFA8EFAFE
:100BC80044EA034309FB0AF49C4202FA07F200FADA
:100BD80007F10BD91EEB030309F1FF3080F0878082
:100BE8009C4240F28480A9F1020973441B1BADB2F8
:100BF800B3FBF8F008FB103345EA034400FB0AFA9C
:100C0800A24508D91EEB040400F1FF336BD2A245BC
:100C180069D90238744440EA0940A0FB0289A4EB70
:100C28000A044C45C2464B4654D351D0002E69D0D5
:100C3800B1EB0A0564EB030404FA0CFCFD40FC402C
:100C48004CEA0505C6E90054002747E7C2F120032E
:100C580020FA03F7954001FA02F021FA03F34FEA6C
:100C6800154E3843010CB3FBFEF71FFA85F80EFB4F
:100C7800173341EA034107FB08F38B4204FA02F4F5
:100C880007D9691807F1FF3C2FD28B422DD9023FB3
:100C98002944CB1A81B2B3FBFEF00EFB103341EAB4
:100CA800034100FB08F38B4207D9691800F1FF3CA8
:100CB80017D28B4215D902382944C91A40EA074786
:100CC8003BE73746304609E70746E7E61846FBE6BE
:100CD8004145ABD2B8EB020A69EB0E020138134664
:100CE800A4E76046E9E7184695E76746D1E78146F5
:100CF8007CE702382C4447E7ACF1020C2B442FE781
:100D0800384608E73746E9E6704700BF08B50C4B98
:100D18001B78B02B00D008BD0A4B18780A4B1B78FB
:100D2800072B06D03C2B07D0012BF4D100F034FB65
:100D3800F1E700F01FFBEEE700F040FBEBE700BF38
:100D48005010002057100020A010002082B0002171
:100D580000910B4B1A6B42F080021A631A6B02F077
:100D680080020092009A01911A6B42F001021A6304
:100D78001B6B03F001030193019B02B0704700BF96
:100D88000038024008B50948094B03604FF4007366
:100D9800436000238360C36003614FF4FA424261F9
:100DA8008361C361036201F047F808BD5810002051
:100DB8000030014000B583B000220192094B196B45
:100DC80041F4800119631B6B03F480030193019BB9
:100DD8000D213A2000F0EEFC3A2000F01FFD03B090
:100DE8005DF804FB0038024008B50848084B03606A
:100DF80047F61223436000238360C36003610C221B
:100E080042618361C36102F009F908BDA4100020A2
:100E18000044004008B54FF4FA71024800F0E4FBC2
:100E280008BD00BFB000002008B54FF4FA710248B1
:100E380000F0DAFB08BD00BF80080020134B1978CA
:100E480051B1134B00221A6000230F2B1CDC114AEE
:100E5800D25C6AB10133F8E70E4B18700C4B4FF0B7
:100E68007E521A600C4B18700131084B197070478C
:100E7800084AD054084B1870054B4FF07E521A6040
:100E88000131024B19707047704700BF980000206D
:100E9800441100209C0000200000002010B4294BC1
:100EA8001B78834210D0284B1B78012B2BD9264B5B
:100EB8001C78012C43D900230F2B40DC234AD25C39
:100EC80082422AD00133F7E71F4B19780129EAD962
:100ED8001F4B00221A6000230F2B30DC1B4AD25C08
:100EE800824201D00133F7E7581E184A145C1548AE
:100EF800047017484FF07E5404600020D054013924
:100F0800114B19701BE0124A002111600F4A002191
:100F18001170013B0C4A1370C9E70C4A0021D154E7
:100F28005A1C04E00949885CC854013301320F2A6D
:100F3800F8DD064B0022DA73013C034B1C705DF8A8
:100F4800044B704700000020980000209C000020FF
:100F58004411002010B5114B1A78114B1B7843EA45
:100F6800C213A3F5005300EE903AF8EEE00ADFED65
:100F78000D7A60EEA70A0C4C637807EE903AF8EE0B
:100F8800E77A67EEA00AF2EE087AC0EEA70AB0EE9A
:100F9800000A02F0F5F984ED010A10BD571000208F
:100FA800A0100020000000390000002008B51F4AEA
:100FB80013781F490B7050781E49087092781E49A3
:100FC8000A700AB9902B08D0802B0ED0902B14D021
:100FD800B02B1AD0E02B20D008BDFFF75FFF01220D
:100FE8001649174802F049F8F6E7FFF757FF0122BC
:100FF8001249134802F041F8EEE7FFF71FFF0122FC
:101008000E490F4802F039F8E6E7FFF77FFE0122A4
:101018000A490B4802F031F8DEE7FFF79BFF01228F
:101028000649074802F029F8D6E700BF5410002007
:1010380050100020A010002057100020AC00002005
:10104800A410002008B5194B1B78EF2B0FD813F00C
:10105800800F12D1164A5278D2B9164A537001221B
:10106800134B5A701149144802F007F808BD0122C1
:101078000E49114802F001F8F8E70E4A13700C4BBC
:1010880000225A70012209490B4801F0F6FFEDE7EA
:10109800074A00215170074A937001220349064804
:1010A80001F0EBFFFFF782FFE0E700BFAC00002094
:1010B8009800002054100020A410002070B59AB0A9
:1010C800302200210EA802F053F9002409940A9452
:1010D8000B940C940D94039404940594069407942B
:1010E800089401941F4B1A6C42F080521A641B6CCE
:1010F80003F080530193019B02941B4B1A6842F43E
:1011080040421A601B6803F440430293029B012685
:101118000E964FF480330F93022514954FF48003F5
:1011280015930C231693602317931895042319938A
:101138000EA801F011FA0F2309930A950B944FF4A6
:1011480080530C930D94032109A801F04FFC0396DA
:10115800C223059310230493069503A801F01CFDF0
:101168001AB070BD003802400070004008B500F0A9
:10117800E3FAFFF7A3FFFFF7E9FDFFF71BFEFFF711
:1011880001FEFFF731FE00F00BFA084C204600F094
:1011980053FE4FF4FA620649204600F01BFF012275
:1011A8000449054801F069FFF9E700BF581000201D
:1011B800B0000020AC000020A4100020704780ED93
:1011C800000A80ED010A002303734373C0ED020A8D
:1011D80000230361036283614FF07E53C36170474C
:1011E80080ED020A7047000005E09FED297A77EE4E
:1011F800877AC0ED047AD0ED047AF5EEC07AF1EE84
:1012080010FAF2D405E09FED227A77EEC77AC0EDA6
:10121800047AD0ED047A9FED1E7AF4EEC77AF1EEE7
:1012280010FAF0DA9FED1B7AF4EEC77AF1EE10FAB5
:101238001ED490ED007AF6EE006A27EE267A9FED2E
:10124800156AC7EE866AB0EE006A76EEC66A27EEC1
:10125800267A80ED087A90ED027ADFED0F6A27EEA4
:10126800267A77EE877AC0ED047A90ED080A7047FF
:1012780090ED007AF6EE006A27EE267A9FED056A71
:10128800C7EE866A27EE267A80ED087AE3E700BF84
:10129800DB0FC940DB0F49402FE34D3905E09FEDD7
:1012A800277A77EE877AC0ED047AD0ED047AF5EEE6
:1012B800C07AF1EE10FAF2D405E09FED207A77EECD
:1012C800C77AC0ED047AD0ED047A9FED1C7AF4EE6B
:1012D800C77AF1EE10FAF0DA9FED197AF4EEC77AD0
:1012E800F1EE10FA1AD4D0ED006A9FED167A27EEC7
:1012F800877AB0EE086A37EE467A26EE877A80ED6E
:10130800087A90ED027ADFED106A27EE267A77EEFA
:10131800877AC0ED047A90ED080A7047D0ED006A2C
:101328009FED0A7A27EE877AB7EE006A37EE067ADB
:1013380026EE877A80ED087AE3E700BFDB0FC94025
:10134800DB0F494083F9223F2FE34D3983F922BF50
:1013580010B5064C2046FFF743FF2046FFF744FF31
:10136800DFED037A20EE270A10BD00BF44110020EC
:10137800CDCC4C3F07EE900AF8EEE76A9FED047A71
:10138800C6EE877A67EEA77A024BC3ED007A7047FC
:101398000000FE428C11002007EE900AF8EEE77A72
:1013A8009FED047A67EE877A67EEA77A024BC3ED62
:1013B800007A70470402813B6811002007EE900A0A
:1013C800F8EEE77A9FED037A67EE877A024BC3ED72
:1013D800027A70470683C13D6811002082B000215F
:1013E80000910B4B5A6C42F480425A645A6C02F4D6
:1013F80080420092009A01911A6C42F080521A645D
:101408001B6C03F080530193019B02B0704700BF2F
:101418000038024030B589B0002303930493059344
:10142800069307930268264B9A4201D009B030BD53
:1014380004460025019503F584335A6C42F4805222
:101448005A645A6C02F480520192019A02951A6BFE
:1014580042F001021A631B6B03F001030293029B23
:10146800B0230393022304930523079303A9154884
:1014780000F010FC1448154B03604FF08063436084
:1014880040238360C5604FF4806303614FF40063B9
:1014980043614FF4005383614FF48073C361056265
:1014A8000423436203238362C562056300F056FA8E
:1014B80018B9054BA3639C63B8E7FFF77FFEF8E70D
:1014C8000030014000000240E41000204064024067
:1014D80010B588B0002303930493059306930793EC
:1014E8000268184B9A4201D008B010BD002401943C
:1014F80003F5FA331A6C42F400321A641A6C02F4D7
:1015080000320192019A02941A6B42F001021A63A6
:101518001B6B03F001030293029B0C23039302232A
:101528000493032306930723079303A9064800F0AF
:10153800B1FB22462146262000F03CF9262000F087
:101548006DF9D1E700440040000002407047FEE713
:10155800FEE7FEE7FEE770477047704708B500F002
:1015680005F908BD08B5024801F012FE08BD00BF24
:10157800A410002008B5024800F09EFA08BD00BF7C
:10158800E4100020054BD3F8882042F47002C3F819
:1015980088204FF000629A60704700BF00ED00E0BD
:1015A80008B52DED028B0B4B4FF07E521A609FED64
:1015B8000A8ADFED0A0AB0EE480A0948FFF7FFFD7C
:1015C800F2EE040AB0EE480A0648FFF7F8FDBDEC53
:1015D800028B08BD8C1100200000000000C01244DE
:1015E80044110020681100202DE970432DED028B75
:1015F80005460E46384B1878453807EE900AF8EE3F
:10160800E77A17EE900AFEF747FF31A3D3E90023E4
:10161800FEF79AFFFFF7AAF900EE900AB0EE000A6B
:1016280001F0AEFE10EE100AFEF736FF00222B4B3B
:10163800FEF78AFF80468946294B1868FEF72CFF7B
:1016480042464B46FEF780FFFFF790F9254B93ED96
:10165800088AF7EE007A38EE278A07EE900A27EE16
:10166800888A00240FE0DFED207A20EE270ABDEEFD
:10167800C00A10EE103A9BB22A4622F8043B6B804F
:101688000134A4B21546B4421ED21648FFF706FE2E
:10169800B0EE480AFFF75CFE144BD3ED007A20EE5B
:1016A800270AF7EE007AB4EEE70AF1EE10FA01DD48
:1016B800B0EE670AFFEE007AB4EEE70AF1EE10FA30
:1016C800D1D5B0EE670ACEE7BDEC028BBDE87083DA
:1016D800694B04475555B53F0000002000807B400A
:1016E800040000206811002000FEFF468C11002035
:1016F80010B504460E4B18784FF47A73B3FBF0F329
:101708000C4A1068B0FBF3F000F096F868B90F2C9B
:1017180001D901200AE0002221464FF0FF3000F0F5
:1017280049F8034B5C60002000E0012010BD00BFB9
:101738000C0000200800002008B50B4B1A6842F482
:1017480000721A601A6842F480621A601A6842F4D9
:1017580080721A60032000F01BF80020FFF7C8FF12
:10176800FFF73CFE002008BD003C0240034A116818
:10177800034B1B780B441360704700BF9011002087
:101788000C000020014B1868704700BF9011002022
:10179800074AD36823F4E0631B041B0C000200F41F
:1017A800E060184340F0BF6040F40030D0607047FC
:1017B80000ED00E030B4174BDB68C3F30223C3F13C
:1017C8000704042C28BF04241D1D062D18D9033B2B
:1017D8004FF0FF3505FA04F421EA0401994005FAAF
:1017E80003F322EA0303194300280BDB0901C9B2FA
:1017F80000F1604000F5614080F8001330BC70478C
:101808000023E5E700F00F000901C9B2024B1954A3
:10181800F4E700BF00ED00E014ED00E0002807DB6E
:1018280000F01F02400901239340024A42F8203089
:10183800704700BF00E100E00138B0F1807F0AD2B4
:10184800064B5860064AF02182F823100020986061
:1018580007221A6070470120704700BF10E000E0BF
:1018680000ED00E030B405682C6824F480242C6076
:10187800046863608368402B05D003689960036837
:10188800DA6030BC704703689A600368D960F8E78B
:101898000268D3B2103B0B49A1FB03131B090A4989
:1018A800C95CC165032B06D822F47F7222F00302BB
:1018B8008265806D704722F47F7222F00302043241
:1018C8008265F6E7ABAAAAAAC43D0008836A8269C2
:1018D80092B9012B0AD01BB1022B01D0002070470E
:1018E800C36A13F0807F2CD100207047C36AB3F11C
:1018F800C07F28D000207047B2F5005F05D0022BCA
:1019080029D9032B15D000207047032B03D8DFE813
:1019180003F01C041C0A00207047C36A13F0807F80
:1019280015D100207047C36AB3F1C07F11D00020E1
:101938007047C36A13F0807F01D0012070470020F0
:10194800704701207047012070470120704701202F
:1019580070470120704701207047000070B50446A9
:10196800FFF710FF002C5BD00546002384F83430C5
:10197800022384F835302268136823F001031360CA
:1019880023681A6812F0010F0AD0FFF7FBFE401B0C
:101998000528F5D920236365032084F8350070BD38
:1019A8001A68204810406168A2680A43E1680A433F
:1019B80021690A4361690A43A1690A43E1690A4343
:1019C800216A0A430243616A04291ED01A60266804
:1019D800756925F00705636A1D43042B07D1A36ABF
:1019E8001D43E36A1BB12046FFF770FF90B975618C
:1019F8002046FFF74DFFE26D3F23934083600020B0
:101A08006065012384F83530C9E7E16A206B01433A
:101A18000A43DBE740236365012084F83500BEE70D
:101A28000120BCE73F8010F038B5856D90F8344050
:101A3800012C2CD0012480F8344090F83540E4B2D1
:101A4800012C04D0002380F83430022038BD04462D
:101A5800022084F83500002060652046FFF702FF69
:101A6800E26D3F239340AB602268136843F016038E
:101A78001360236C23B12268136843F008031360D2
:101A88002268136843F0010313600020DEE7022098
:101A9800DCE790F83530DBB2022B03D080234365B6
:101AA80001207047052380F835300268136823F059
:101AB8000103136000207047F0B583B0044600238B
:101AC8000193724B1D68724BA3FB0535AD0A876DF8
:101AD8003E68C26D08239340334210D003681A68E9
:101AE80012F0040F0BD01A6822F004021A60C26DBB
:101AF80008239340BB60436D43F001034365E26DE7
:101B080001239340334209D02268526912F0800FB2
:101B180004D0BB60636D43F002036365E26D042388
:101B28009340334209D02268126812F0020F04D0A1
:101B3800BB60636D43F004036365E26D102393405B
:101B4800334224D02268126812F0080F1FD0BB60FD
:101B580023681A6812F4802F0DD01B6813F4002F25
:101B680004D1236C9BB12046984710E0A36C73B155
:101B7800204698470BE01A6812F4807F03D11A6850
:101B880022F008021A60236C0BB120469847E26DD8
:101B980020239340334255D02268126812F0100F68
:101BA80050D0BB6094F83530DBB2052B0ED02368DB
:101BB8001A6812F4802F33D01B6813F4002F2AD12F
:101BC800636C002B3ED0204698473BE022681368A0
:101BD80023F0160313602268536923F080035361CE
:101BE800236CA3B12268136823F008031360E26D25
:101BF8003F239340BB60002384F83430012384F8EA
:101C08003530236D002B3FD0204698473CE0A36C2D
:101C1800002BE7D1EBE7E36BA3B12046984711E02F
:101C28001A6812F4807F09D11A6822F010021A602B
:101C3800002384F83430012384F83530E36B0BB18A
:101C480020469847636DFBB1636D13F0010F17D001
:101C5800052384F835302268136823F001031360E4
:101C6800019B01330193AB4204D823681B6813F02E
:101C7800010FF5D1002384F83430012384F835307E
:101C8800E36C0BB12046984703B0F0BD0800002074
:101C9800B5814E1B00230F2B00F2C580F0B583B031
:101CA80039E0042200E00022AA403A4302345E4DA3
:101CB80045F824205D4A1468F24302EA04054F6897
:101CC80017F4803F01D046EA0405584C2560646843
:101CD80002EA04054F6817F4003F01D046EA0405FC
:101CE800524C6560A46802EA04054F6817F4801F27
:101CF80001D046EA04054D4CA560E46822404D68D1
:101D080015F4001F01D046EA0402484CE260013392
:101D18000F2B00F2868001229A400C6804EA020622
:101D2800B242F4D14C68651E012D03D9112C01D0A3
:101D3800122C12D185685F000324BC4025EA0405F3
:101D4800CC68BC402C438460456825EA02054C6891
:101D5800C4F300129A402A434260C4685F00032219
:101D6800BA40D24314408D68BD402543C5604C68D5
:101D7800022C01D0122C13D1DD08083550F825E0CB
:101D880003F007044FEA840C0F2404FA0CF42EEA3B
:101D9800040E0C6904FA0CF444EA0E0440F82540D9
:101DA800046822404C6804F00304BC4022430260EB
:101DB8004A6812F0805FAAD0002201921C4A546C33
:101DC80044F480445464526C02F480420192019AB3
:101DD8009C08A51C144A52F8257003F003029500CC
:101DE8000F22AA4027EA0207124A90423FF45BAF4B
:101DF80002F5806290420ED002F5806290420CD0CB
:101E080002F5806290420AD002F5806290423FF467
:101E180048AF072248E7012246E7022244E70322A7
:101E280042E703B0F0BD704700380140003C014074
:101E38000038024000000240002800F0BF8070B562
:101E4800044690F84130002B51D0022284F84120FA
:101E58002168CB6923F47B6323F00F03CB612368EC
:101E68001A626369934263D0E368002B46D1102558
:101E7800A368202B00D86D00012000F045FF2369DE
:101E8800B3F5007F3CD0B0FBF5F000EB80004300D9
:101E98006269B3FBF2F30533494AA2FB0323DB086B
:101EA80003F001029B1A5B081202991EFD2941D812
:101EB80021690A43216813430B622168CB6923F423
:101EC8007B6323F00F036268A0680243E068024363
:101ED800A0690243134343F40063CB61236A012BD7
:101EE8002ED000206064012384F8413070BD80F852
:101EF8004030344B4363FFF78DFAA6E72025B7E758
:101F0800E36853B1AD00B0FBF5F000EB800043008F
:101F18006269B3FBF2F30533BEE7ED00B0FBF5F001
:101F280000EB800043006269B3FBF2F30533B3E7CB
:101F38000022BAE7636C43F0100363640120D5E71D
:101F4800214B63632268214B9A421FD04FF04022F5
:101F5800D36923F47B6323F00F03D36122681B4BFF
:101F68009A4215D04FF0402302221A622268174B7A
:101F78009A4210D04FF04021CA6992B26368B3F513
:101F8800007F0AD0C3B94FF4807608E0104ADFE733
:101F9800A3F58063E8E70E49EEE74FF48076A06882
:101FA800E568238B2B439BB203439BB23343134314
:101FB80043F40063CB6194E70026F0E70120704703
:101FC800CDCCCCCC5721000889230008003800402C
:101FD8000034004000295DD010B5002A5DD090F88B
:101FE8004030DBB2012B5BD0012380F8403090F801
:101FF8004130DBB2012B10D1032380F8413000239C
:10200800436441620368DB6903F00703032B09D0CB
:10201800052B07D00285428508E0002380F8403070
:1020280002233BE0520092B2028542850446836B4C
:102038001C4A1A64836B1C4ADA63836B1B4ADA6492
:102048000268038D0C32416A806BFFF7EDFC034692
:10205800A8B92268D16911F4806F03D1D16941F41C
:102068008061D1612268516811F0020F03D1516873
:1020780041F002015160002284F840200EE0636CB8
:1020880043F008036364012384F84130002284F894
:10209800402003E00123184670470123184610BD6D
:1020A8000223FBE7B9200008F920000827220008CE
:1020B80008B5806BFEF7AEFE08BD08B5426A036836
:1020C8001288DA60436A02334362438D013B9BB254
:1020D8004385438D9BB203B108BD0268536823F062
:1020E800A0035360012380F84130FEF79DFEF3E71B
:1020F80008B5836BC2694AB919684A6822F00202B6
:102108004A6000225A85012283F841201846FEF7CA
:102118008BFE08BD704708B50368DA68C36A1A8081
:10212800C36A0233C362438E013B9BB24386438E2C
:102138009BB203B108BD0268536823F06003536083
:10214800012380F84130FFF7E5FFF3E7704710B54A
:1021580084B0044602689368039390F84130DBB278
:10216800042B06D094F84130DBB2032B2CD004B0FA
:1021780010BD039B13F0010F03D0536813F0400FF9
:102188001FD1039B13F0400FECD023685A6812F05C
:10219800200FE7D05A6822F060025A6000230193AA
:1021A8002368DA6801929B680193019B012384F8F4
:1021B8004130636C43F0020363642046FFF7C6FFB7
:1021C800D0E7FFF7A8FFDCE7039B13F0020F04D06A
:1021D80023685B6813F0800F1DD1039B13F0080F71
:1021E800C5D023685A6812F0200FC0D05A6822F070
:1021F800A0025A600023029323689B680293029B03
:10220800012384F84130636C43F00403636420467F
:10221800FFF79CFFABE72046FFF74FFFDDE708B568
:10222800806B0268536823F00303536000234385DF
:102238004386012380F84130436C43F0080343642C
:10224800FFF784FF08BD704708B5436A9A1C4262CD
:1022580002681B88D360438D013B9BB24385438D45
:102268009BB23BB90268536823F0A0035360438EC6
:102278009BB203B108BD012380F84130FFF7E3FFAB
:10228800F8E7000008B50268144B9A421BD04FF0DB
:102298004023DA68C36A991CC1621A80438E013BE5
:1022A8009BB24386438E9BB263B902680B4B9A423A
:1022B8000CD04FF04022536823F060035360438DE5
:1022C8009BB22BB108BDA3F58063E2E7044AF2E7AD
:1022D800012380F84130FFF7B6FFF3E700380040EC
:1022E8000034004008B5436A9A1C42621A880168A3
:1022F800124B994217D04FF04023DA60438D013BCF
:102308009BB24385438D9BB263B902680B4B9A42DB
:102318000CD04FF04022536823F0A0035360438E43
:102328009BB22BB108BDA3F58063E6E7044AF2E748
:10233800012380F84130FFF786FFF3E700380040BB
:102348000034004008B50368DA68C36A991CC162A2
:102358001A80438E013B9BB24386438E9BB23BB9A6
:102368000268536823F060035360438D9BB203B146
:1023780008BD012380F84130FFF765FFF8E700004A
:1023880010B586B0044603689A680592704A93426D
:102398006FD04FF04022916804915B6803935368B3
:1023A80002936368B3F5007F01D0002B70D1059BC1
:1023B80013F0020F03D0039B13F0800F5CD1049B32
:1023C80013F0010F03D0029B13F0400F58D1049B68
:1023D80013F0400F24D0029B13F0200F20D0226866
:1023E8005B4B9A4250D04FF04022536823F0600371
:1023F80053602268536823F0A003536000230093BE
:102408002368DA6800929B680093009B012384F894
:102418004130636C43F0020363642046FFF796FE85
:10242800059B13F0080F22D0039B13F0200F1ED03A
:102438002268536823F0A00353602268444B9A42F1
:1024480024D04FF04022536823F0600353600023E8
:10245800019323689B680193019B012384F8413011
:10246800636C43F0040363642046FFF76FFE06B015
:1024780010BDA2F580628EE72046FFF7E5FE9EE7D5
:102488002046FFF7FFFEA2E7324AAEE7314ADAE715
:10249800049B13F0020F03D0029B13F0800F4AD164
:1024A800059B13F0010F03D0039B13F0400F46D197
:1024B800059B13F0400F1CD0039B13F0200F18D07E
:1024C8002268536823F0600353602268204B9A42C5
:1024D80039D04FF04022536823F0A0035360012302
:1024E80084F84130636C43F0020363642046FFF7CD
:1024F8002DFE049B13F0080FB9D0029B13F0200F98
:10250800B5D02268124B9A421FD04FF04022536830
:1025180023F0A00353602268536823F060035360DC
:10252800012384F84130636C43F00403636420465C
:10253800FFF70CFE9BE72046FFF7D4FEB0E72046E6
:10254800FFF700FFB4E7034AC5E7024ADFE700BF29
:102558000038004000340040002800F0E48170B5E5
:1025680082B00446036813F0010F3BD0A74B9B6869
:1025780003F00C03042B2CD0A44B9B6803F00C0332
:10258800082B21D06368B3F5803F4FD0B3F5A02F57
:1025980052D09E4B1A6822F480321A601A6822F4CC
:1025A80080221A606368002B50D0FFF7EBF80546CD
:1025B800964B1B6813F4003F14D1FFF7E3F8401B58
:1025C8006428F5D90320B3E1904B5B6813F4800FBE
:1025D800D8D08E4B1B6813F4003F03D06368002BE0
:1025E80000F0A381236813F0020F55D0874B9B6836
:1025F80013F00C0F3ED0854B9B6803F00C03082B9F
:1026080033D0E368002B68D0814B01221A60FFF7B2
:10261800B9F805467D4B1B6813F0020F54D1FFF73C
:10262800B1F8401B0228F5D9032081E1774A1368E5
:1026380043F480331360B5E7744B1A6842F4802280
:102648001A601A6842F480321A60ABE7FFF79AF80A
:1026580005466E4B1B6813F4003FC3D0FFF792F892
:10266800401B6428F5D9032062E1684B5B6813F4CA
:10267800800FC6D1654B1B6813F0020F04D0E368C6
:10268800012B01D0012053E1604A136823F0F803BD
:10269800216943EAC1031360236813F0080F40D08F
:1026A800636963B35B4B01221A60FFF76BF8054659
:1026B800564B5B6F13F0020F33D1FFF763F8401BE3
:1026C8000228F5D9032033E1504A136823F0F803B0
:1026D800216943EAC1031360DEE74D4B00221A600B
:1026E800FFF750F80546494B1B6813F0020FD3D08B
:1026F800FFF748F8401B0228F5D9032018E1454B9D
:1027080000221A60FFF73EF80546404B5B6F13F056
:10271800020F06D0FFF736F8401B0228F5D9032030
:1027280006E1236813F0040F79D0384B1B6C13F0C3
:10273800805F33D100230193344B1A6C42F08052EE
:102748001A641B6C03F080530193019B0125324BE3
:102758001B6813F4807F23D0A368012B34D0052B8A
:1027680038D02A4B1A6F22F001021A671A6F22F02A
:1027780004021A67A368002B36D0FFF703F8064651
:10278800224B1B6F13F0020F48D1FEF7FBFF801B93
:1027980041F288339842F3D90320C9E00025D6E7EF
:1027A8001D4A136843F480731360FEF7EBFF064677
:1027B800194B1B6813F4807FCED1FEF7E3FF801B13
:1027C8000228F5D90320B3E0104A136F43F0010340
:1027D8001367CFE70D4B1A6F42F004021A671A6F9E
:1027E80042F001021A67C5E7FEF7CCFF0646074B21
:1027F8001B6F13F0020F11D0FEF7C4FF801B41F2CC
:1028080088339842F3D9032092E000BF0038024091
:1028180000004742800E474200700040EDB9A369AE
:10282800002B00F08480454A926802F00C02082AC6
:1028380051D0022B17D0424B00221A60FEF7A2FF9C
:1028480004463E4B1B6813F0007F42D0FEF79AFF08
:10285800001B0228F5D903206AE0384A136C23F0DC
:1028680080531364DBE7364B00221A60FEF78AFFB9
:102878000546324B1B6813F0007F06D0FEF782FF37
:10288800401B0228F5D9032052E0E369226A13436A
:10289800626A43EA8213A26A5208013A43EA02438F
:1028A800E26A43EA0263254A5360254B01221A6013
:1028B800FEF768FF0446214B1B6813F0007F06D122
:1028C800FEF760FF001B0228F5D9032030E0002046
:1028D8002EE000202CE0012B2CD0184B5B6803F471
:1028E8008001E269914201D0012021E003F03F021A
:1028F800216A8A4201D001201AE0616A47F6C07253
:102908001A408A4201D0012012E003F44032A16A41
:102918008A4201D001200BE003F07063E26A93421F
:102928000AD0012004E001207047012000E00020C7
:1029380002B070BD0120FBE70020F9E70038024033
:1029480060004742264B9B6803F00C03042B44D0DD
:10295800082B01D0234870472DE9F04B204B5A68CB
:1029680002F03F025B6813F4800F13D01C4B5968C8
:10297800C1F3881100231C48A1FB0001FEF746F8AB
:10298800174B5B68C3F3014301335B00B0FBF3F003
:10299800BDE8F08B124B5B68C3F388131E46002713
:1029A8005C010025E41A65EB0705A90141EA946179
:1029B800A001001B61EB0501CB0043EA5073C40082
:1029C800A01943EB07018B0243EA90538402204687
:1029D80019460023FEF71AF8D2E70348704700BFEC
:1029E800003802400024F40040787D01002800F0FF
:1029F8009E8070B50446504B1B6803F00F038B4252
:102A080009D2CBB24C4A1370136803F00F038B4200
:102A180001D0012070BD236813F0020F17D013F006
:102A2800040F04D0454A936843F4E0539360236845
:102A380013F0080F04D0414A936843F4604393604D
:102A48003E4A936823F0F003A068034393600D4661
:102A5800236813F0010F32D06368012B21D09A1E2E
:102A6800012A25D9354A126812F0020F61D033497C
:102A78008A6822F0030213438B60FEF783FE064642
:102A88002E4B9B6803F00C036268B3EB820F16D0E1
:102A9800FEF778FE801B41F288339842F0D9032074
:102AA800B8E7264A126812F4003FE0D10120B1E7E6
:102AB800224A126812F0007FD9D10120AAE71E4BE2
:102AC8001B6803F00F03AB4209D9EAB21A4B1A701C
:102AD8001B6803F00F03AB4201D001209AE723687B
:102AE80013F0040F06D0154A936823F4E053E16805
:102AF8000B439360236813F0080F07D00F4A9368BD
:102B080023F46043216943EAC1039360FFF71AFF86
:102B18000A4B9B68C3F30313094AD35CD840094B9B
:102B28001860094B1868FEF7E3FD002072E70120E2
:102B3800704701206EE700BF003C024000380240A9
:102B4800AC3D00080800002010000020014B186868
:102B5800704700BF0800002008B5FFF7F7FF044BD7
:102B68009B68C3F38223034AD35CD84008BD00BFE7
:102B780000380240BC3D000808B5FFF7E7FF044BEA
:102B88009B68C3F34233034AD35CD84008BD00BFF7
:102B980000380240BC3D000830B583B004460368E5
:102BA80013F0050F0ED1236813F0020F38D12368F4
:102BB80013F0080F00F09B80227D4E4B1A60002016
:102BC80003B030BD4C4B00221A60FEF7DBFD054612
:102BD8004A4B1B6813F0006F06D0FEF7D3FD401B6D
:102BE8000228F5D90320EBE76368A26843EA821359
:102BF800E26843EA0273414AC2F884303E4B01223C
:102C08001A60FEF7BFFD05463C4B1B6813F0006FCA
:102C1800C9D1FEF7B7FD401B0228F5D90320CFE73D
:102C280000230193354B1A6C42F080521A641B6CD6
:102C380003F080530193019B314A136843F4807376
:102C48001360FEF79FFD05462D4B1B6813F4807F2C
:102C580006D1FEF797FD401B0228F5D90320AFE700
:102C6800264B1B6F13F4407312D0226902F4407292
:102C78009A420DD0214B1A6F22F44072214901204B
:102C88000860002008601A671B6F13F0010F12D14B
:102C9800236903F44072B2F5407F1DD0174A936848
:102CA80023F4F813936015490B6F2269C2F30B02E2
:102CB80013430B677BE7FEF765FD05460F4B1B6F5C
:102CC80013F0020FE4D1FEF75DFD401B41F288339B
:102CD8009842F3D9032073E708498A6822F4F81266
:102CE80023F0704323F4407313438B60DBE7002029
:102CF80066E700BFE01147426800474200380240DB
:102D080000700040400E474201282CD1184B9B68A8
:102D180013F4000303D0012B27D116487047144B36
:102D28005B6813F4800F15D0114BD3F8843003F08F
:102D38003F031148B0FBF3F00D4AD2F88430C3F3D7
:102D4800881300FB03F0D2F88430C3F30273B0FB9E
:102D5800F3F07047064BD3F8843003F03F0307487D
:102D6800B0FBF3F0E8E7002070470020704700BF91
:102D7800003802400080BB0040787D010024F40048
:102D88000268D36823F49073D3600268536923F010
:102D980001035361202380F83A30704790F83930A6
:102DA800DBB2212B2AD18368B3F5805F16D0036A82
:102DB8005A1C02621A7803685A60C38C013B9BB2A2
:102DC800C384EBB90268D36823F08003D360026838
:102DD800D36843F04003D36000207047036A1B8820
:102DE8000268C3F30803536003691BB9036A02331B
:102DF8000362E2E7036A01330362DEE702207047F9
:102E0800002070472DE9F04B04460268136923F44B
:102E18004053C1680B4313618368026913434269D5
:102E28001343C2691A430168CB6823F4164323F09D
:102E38000C031343CB600268536923F44073816920
:102E48000B435361C369B3F5004F3BD00368714A24
:102E5800934200F0AB8002F58062934200F0A680B6
:102E6800FFF77AFE4FF00009061849EB090716EB41
:102E7800000B47EB090C4FEACC0343EA5B734FEABC
:102E8800CB0293469C4663689A009B0F10EB0B009D
:102E980049EB0C01FDF7BAFD5F4DA5FB0032510966
:102EA800642202FB110213013233A5FB03235B09E1
:102EB80003F0F00202EB011203F00F032168134440
:102EC8008B60A4E00368534A934239D002F58062CC
:102ED800934235D0FFF740FE83464FF0000C0618AA
:102EE8004CEB0C0716EB000847EB0C094FEAC9033B
:102EF80043EA58734FEAC80290469946626800212F
:102F0800921841EB01031BEB08004CEB0901FDF79C
:102F18007DFD414DA5FB00325109642202FB1102DF
:102F2800D3003233A5FB03235B095A0002F4F8727D
:102F380002EB011203F00703216813448B6066E07B
:102F4800FFF71AFE80464FF00009061849EB0907FB
:102F580016EB000B47EB090C4FEACC0343EA5B7313
:102F68004FEACB0293469C4662680021921841EBD7
:102F7800010318EB0B0049EB0C01FDF747FD264D4B
:102F8800A5FB00325109642202FB1102D30032333F
:102F9800A5FB03235B095A0002F4F87202EB011245
:102FA80003F00703216813448B6030E0FFF7E4FD6A
:102FB8004FF00009061849EB090716EB000B47EB21
:102FC800090C4FEACC0343EA5B734FEACB02934602
:102FD8009C4663689A009B0F10EB0B0049EB0C01B1
:102FE800FDF714FD0C4DA5FB00325109642202FBCC
:102FF800110213013233A5FB03235B0903F0F0022E
:1030080002EB011203F00F03216813448B60BDE843
:10301800F08B00BF001001401F85EB5158B310B56D
:10302800044690F839300BB3242384F839302268E9
:10303800D36823F40053D3602046FFF7E3FE2268E9
:10304800136923F4904313612268536923F02A0318
:1030580053612268D36843F40053D3600020E063CF
:10306800202384F8393084F83A3010BD80F838309D
:10307800FEF72EFAD8E70120704790F83A30DBB215
:10308800202B20D109B312B390F83830012B20D06F
:1030980081628285C2850023C363222280F83A2098
:1030A80080F838300168CA6842F48072CA600168E2
:1030B8004A6942F001024A610168CA6842F0200286
:1030C800CA601846704702207047012070470120E7
:1030D800704702207047704708B50168CB6823F035
:1030E8004003CB60202380F83930FFF7F4FF00203D
:1030F80008BD08B590F83A30DBB2222B45D1836879
:10310800B3F5805F0ED0036903BB03685A68836A0E
:10311800591C81621A70C38D013B9BB2C385F3B100
:10312800002033E0826A036943B903685B68C3F32C
:1031380008031380836A02338362ECE703685B68E1
:10314800DBB21380836A01338362E4E703685B6858
:10315800826A511C816203F07F031370DBE7026807
:10316800D36823F02003D3600268D36823F4807304
:10317800D3600268536923F001035361202380F868
:103188003A30FDF75FFF002000E0022008BD7047DD
:1031980010B5044602681368D168526913F00F002D
:1031A80005D113F0200F02D011F0200F56D10028BE
:1031B8006AD012F0010202D111F4907F64D013F0AA
:1031C800010F06D011F4807F03D0E06B40F00100BE
:1031D800E06313F0040F04D01AB1E06B40F0020072
:1031E800E06313F0020F04D01AB1E06B40F0040062
:1031F800E06313F0080F07D011F0200F00D11AB1C7
:10320800E26B42F00802E263E26B002A48D013F056
:10321800200F02D011F0200F24D123685B6903F03E
:103228004003E26B12F0080F00D13BB32046FFF7D2
:10323800A7FD23685A6912F0400F1BD05A6922F083
:1032480040025A61636B8BB11A4A1A65606BFEF7CC
:1032580020FC28B3606B036D984721E02046FFF7F8
:1032680048FF1DE02046FFF744FFD6E72046FFF75A
:103278008EFF15E02046FFF78AFF11E02046FFF792
:1032880086FF0023E3630BE013F0800F02D011F0F8
:10329800800F06D113F0400F02D011F0400F04D177
:1032A80010BD2046FFF77AFDFAE72046FFF714FF26
:1032B800F6E700BFC132000808B5806B0023C3855C
:1032C800C384FFF764FF08BDDFF834D0002103E0B2
:1032D8000C4B5B58435004310B480C4B42189A4234
:1032E800F6D30B4A02E0002342F8043B094B9A420A
:1032F800F9D3FEF747F900F017F8FDF737FF7047E5
:1033080000000220043E0008000000207C0000208D
:103318007C00002094110020FEE70000014B186893
:10332800704700BF1400002070B50D4E0D4CA41B53
:10333800A4100025A54209D10B4E0C4C00F026FD27
:10334800A41BA4100025A54205D170BD56F8253050
:1033580098470135EEE756F8253098470135F2E7EA
:10336800FC3D0008FC3D0008FC3D0008003E00084C
:1033780002440346934200D1704703F8011BF9E762
:103388002DE970432DED048BA74C8AB0F0EE408AEE
:10339800B0EE608A00F058F994F900506B1CB0EE5A
:1033A800409A26465FD0B4EE488AF1EE10FA5AD613
:1033B800F4EE688AF1EE10FA21D7B5EE408AF1EE04
:1033C80010FA50D101230093984B019318EE900AFC
:1033D80000230893FDF760F8CDE9020118EE100A02
:1033E800FDF75AF8924B0022022DCDE90401CDE9F0
:1033F800062332D0684600F0EAFB40BB65E0DFED0B
:103408008D9AF4EE698AF1EE10FA63D1B4EE698A06
:10341800F1EE10FA2ED101230093844B019318EE9C
:10342800900A00230893FDF737F8CDE9020118EE5A
:10343800100AFDF731F800220023CDE90401CDE997
:103448000623002DD6D07A4B0022CDE90623089B0F
:103458001BB1FFF763FF089B0360DDE90601FDF779
:1034680085FA09EE100AB0EE490A0AB0BDEC048BE1
:10347800BDE87083B0EE480A00F0B2FB0028F2D035
:10348800B5EEC08AF1EE10FAEDD501230093674B33
:10349800019318EE900A00230893FCF7FDFFCDE98D
:1034A800020118EE100AFCF7F7FF94F90030CDE995
:1034B800040123B900220023CDE906239AE75E49D7
:1034C8000020CDE90601022B94D1FFF727FF212325
:1034D8000360BCE700F084FB0546002873D1B0EE1A
:1034E800680A00F07DFB00286DD0B0EE480A00F0B5
:1034F80077FB002867D018EE900AFCF7CDFF8046CE
:1035080018EE100A8946FCF7C7FFB4EE499AF1EEA7
:1035180010FA94F90040454B13D70122CDE9002356
:103528000895CDE90289CDE90401002CC2D0C9EE85
:10353800A97A17EE900AFCF7AFFF022CCDE9060135
:10354800C2E70322F6EE007ACDE900230895CDE91B
:103558000289CDE9040128EE278AFCB9374BF5EE3C
:10356800C08A4FF06042F1EE10FACDE9062353D538
:10357800B0EE480A00F044FBB4EE480AF1EE10FA47
:1035880004D02F4B4FF06042CDE9062396F9003066
:10359800022B41D1FFF7C2FE222399E7294BF5EE12
:1035A800C08A0022F1EE10FACDE90623EED5B0EE7E
:1035B800480A00F025FBB4EE480AF1EE10FAE5D00F
:1035C80000221D4BE0E7B5EE409AF1EE10FA7FF4C9
:1035D8004AAFB0EE680A00F003FB00283FF443AF9F
:1035E800B0EE480A00F0FCFA00283FF43CAF042390
:1035F80000930E4B019318EE900A00230893FCF7F2
:103608004BFFCDE9020118EE100AFCF745FF002236
:10361800CDE904010023B7E7684600F0D8FA00288E
:103628007FF415AFB6E700BF78000020CC3D000856
:103638000000F03F000000000000F0FFFFFFEF4730
:10364800FFFFEFC70000F07F2DE9F04110EE905A20
:1036580035F000472DED028BB0EE408AF0EE608A1F
:1036680000F0938210EE108A28F00044B4F1FF4F66
:1036780006DCB7F1FF4F0ADDB4F17E5F00F085820A
:10368800BDEC028BD948BDE8F04100F0B3BAB8F1FF
:10369800000F1DDAB7F1974F2CDAB7F17E5F30DBF8
:1036A800FB15C3F1960347FA03F606FA03F3BB4288
:1036B80027D106F00106C6F10206B7F17E5F22D1D6
:1036C800002D80F26882F7EE007A87EE880A0DE016
:1036D8000026B7F1FF4FF0D1B4F17E5F00F05582BC
:1036E8000ADD002D80F254829FEDC10ABDEC028BE9
:1036F800BDE8F0810226ECE7002DF5DAB1EE680AA4
:10370800F4E70026D9E7B5F1804F02D128EE080A80
:10371800ECE7B5F17C5FB0EE480A08D1B8F1000FCC
:1037280005DBBDEC028BBDE8F04100F04DBA00F0BE
:1037380050FA24B128F04043B3F17E5F17D1002D31
:10374800BCBFF7EE007A87EE800AB8F1000FCDDA39
:10375800A4F17E5454EA060304D170EE407A87EE51
:10376800A70AC3E7012EC1D1B1EE400ABEE74FEA6E
:10377800D870013856EA000304D138EE488A88EE3A
:10378800080AB3E7B7F19A4F6DDD9A4B9C4206DC05
:10379800002DA9DA9FED980A20EE000AA6E7974BBC
:1037A8009C4202DD002DF5DC9EE7F7EE007A30EE54
:1037B800670A9FED937AF1EE406AF5EE007AA6EE7D
:1037C800A77AF6EE007AE7EE407A60EE000A9FEDFF
:1037D8008D7A67EEA00ADFED8C7A67EEE07AE0EE8C
:1037E800077A9FED8A7AB0EE676AA0EE076A16EE4E
:1037F800103A23F47F6323F00F0300EE903AE6EECD
:10380800870A77EEE07A25F47F6525F00F0507EE45
:10381800105A67EEA80A38EEC77A07EE903AE7EE34
:10382800270A013E56EA000207EE105A67EE877A29
:10383800B7EE008A30EEA77ABFEE000A17EE104AFC
:1038480008BFB0EE408A002C24F0004340F3848186
:10385800B3F1864F40F3FC80DFED677A28EE270A44
:1038680020EE270A42E7B4F5000FBFBFDFED687A04
:1038780060EE277A6FF0170217EE904A4FEAE4538A
:10388800A8BF00227F3B1344624AC4F31604944243
:1038980044F07E5106DD604A944240F3A58001332E
:1038A800A1F5000100245D4AA7003A4407EE901AEA
:1038B80092ED007A5A4A37EE276AB7EE005AC5EEFB
:1038C800066A491041F0005101F5802101EB44518D
:1038D80077EEC75A06EE101A65EEA64A14EE90CA9D
:1038E80002EA0C0C05EE10CAB1EE454AE4EE065A9F
:1038F80036EE476A9FED4B7A37EEC66A64EEA47AD5
:10390800E4EE065A67EEA73A25EEA66ADFED465AB8
:10391800A7EEA57ADFED455AE7EE275A9FED387AEC
:10392800A5EEA77ADFED425AE7EE275A9FED417AD6
:1039380075EE246AA5EEA77A66EE866AF0EE085A56
:10394800F0EE657AE3EE876AE5EE057A77EEA67A19
:1039580017EE901A114007EE901A37EEE57ADFED70
:10396800365AA4EE057A36EEC77A27EE247AA7EE01
:10397800867AB0EE476AA5EE276A16EE101A11404D
:1039880006EE901AE4EE276ADFED2C7A37EE667AB7
:1039980006EE101A27EE277ADFED297A2949A6EED6
:1039A800277A3944D1ED007A37EE277A07EE903A34
:1039B800F0EE470A244BE6EE250A3B4493ED005A05
:1039C800F8EEE76A70EE850A70EEA67A17EE903A7E
:1039D800134007EE903A77EEE67A77EEC57AE6EE90
:1039E800657A77EE677A0EE701245CE7D03D000838
:1039F80000000000F7FF7F3FCAF249710700803FCF
:103A0800ABAAAA3E70A5EC363BAAB83F00AAB83FBD
:103A18000000804B71C41C00D6B35D00D43D000883
:103A280000F0FFFF55326C3E42F1533E05A38B3E3A
:103A3800B76DDB3E9A99193F0038763F4F38763F8D
:103A4800A0C39D36E43D0008DC3D00083CAA38339D
:103A580040F092805FED036A37EE677A70EEA66AEF
:103A6800F4EEC76AF1EE10FA3FF7F6AEDB15A3F1F4
:103A78007E004FF4000303412344C3F3C752474970
:103A88007F3A114123EA0101C3F3160007EE101A29
:103A980040F40000C2F117021041002C77EEC77AFB
:103AA800B8BF404237EEA07ADFED3D6A17EE103A14
:103AB80023F47F6323F00F0307EE103A77EE677A5B
:103AC80070EEE70ADFED377A67EE277AE0EEA67A3E
:103AD800DFED356AB0EE670AA7EE260AB0EE406A57
:103AE800A7EE666A20EE007A77EEC67ADFED2F6AD7
:103AF8009FED2F6AA7EE266ADFED2E6AE6EE076ACB
:103B08009FED2D6AA6EE876ADFED2C6AE6EE076A5E
:103B1800B0EE406AA6EEC76AF0EE006AB0EE467AEA
:103B280077EE666A20EE066AE0EE277A86EE267A57
:103B380077EE677A37EEC00AF7EE007A37EEC00AFA
:103B480010EE103A03EBC053B3F5000F1ADA00F089
:103B5800B1F820EE080AC9E5194A934202DDDFED03
:103B6800197A7BE608D137EE677AB4EEE07AF1EE9F
:103B780010FAFFF67BAFF2E7B3F17C5F3FF776AF61
:103B880000208FE700EE103AE3E7B7EE000AADE554
:103B9800B0EE680AAAE5B0EE480AA7E5FFFF7F0085
:103BA8001872313F8CBEBF350072313F4CBB313388
:103BB8000EEADDB555B38A38610B36BBABAA2A3E8F
:103BC800000016436042A20DB1EEC00A7047002003
:103BD800704710EE103A23F0004300EE103A704799
:103BE80010EE103A23F00040B0F1FF4FACBF0020B8
:103BF800012070479FED010A704700BF0000C07F99
:103C080013B510EE101A21F00043DC0D7F3C162C82
:103C180046DC2BB3002C10EE102A4FEAD17021DAC3
:103C2800C1F316035B42214A5B0A090D03F48003C2
:103C380009050B4302EB800207EE903AD2ED006AC9
:103C480036EEA77A8DED017ADDED017A77EEE67A28
:103C580017EE903A23F0004343EAC07300EE103A9F
:103C680002B010BD124B23411942F9D05B0819422A
:103C780006D021EA03024FF4001343FA04F4224366
:103C88000A4B03EB800090ED007A07EE902A77EE5E
:103C9800277ACDED017A9DED010A30EE470ADFE77C
:103CA800B3F1FF4FDCD330EE000AD9E7EC3D000852
:103CB800FFFF7F0008B510EE102A32F000432DED0B
:103CC800028BF0EE400A04D0B3F1FF4F06D370EE3A
:103CD800000ABDEC028BB0EE600A08BDB3F5000F18
:103CE8001CD21F4BDFED1F7A984260EE270A10DBCB
:103CF80010EE902AC2F3C753193B0344FE2B0FDD85
:103D08009FED198AB0EE480A00F034F860EE080A10
:103D1800DFE7DFED167A60EEA70ADAE7DB0DECE7FE
:103D2800002B06DD22F0FF4242EAC35300EE903A30
:103D3800CFE713F1160F06DA4CF250339842DFDC66
:103D48009FED0A8ADEE7193322F0FF4242EAC353A5
:103D5800DFED077A07EE103A67EE270AB9E700BFEA
:103D6800B03CFFFF0000004CCAF249716042A20D4E
:103D78000000003310EE103A10EE902A23F00043B2
:103D880002F00042134300EE103A7047F8B500BF46
:103D9800F8BC08BC9E467047F8B500BFF8BC08BC24
:043DA8009E4670477C
:103DAC0000000000000000000102030406070809DF
:103DBC000000000001020304000610160006101695
:103DCC00706F7766000000000000803F0000C03F6D
:103DDC000000000000C0153F00000000DCCFD13512
:083DEC000000004B000000CBB9
:083DF40050CCFF7F010000002C
:043DFC00BD010008FD
:043E0000990100081C
:103E0400360600000000803F0024F400010000009A
:103E14001000000018000020000000000000000056
:103E2400000000000000000000000000000000008E
:103E3400000000000000000000000000000000007E
:103E4400000000000000000000000000000000006E
:103E5400000000000000000000000000000000005E
:103E6400000000000000000000000000000000004E
:0C3E740000000000000000000100000041
:04000005080032D1EC
:00000001FF
