:020000040800F2
:1000000000000220B97100089D5000089F500008B0
:10001000A1500008A3500008A550000800000000EF
:10002000000000000000000000000000A7500008D1
:10003000A950000800000000AB500008AD500008B7
:1000400009720008097200080972000809720008A4
:100050000972000809720008097200080972000894
:100060000972000809720008097200080972000884
:100070000972000809720008097200080972000874
:1000800009720008097200080972000800000000E7
:1000900000000000000000000000000009720008DD
:1000A0000972000809720008097200080972000844
:1000B0000972000809720008097200080972000834
:1000C0000972000809720008097200080972000824
:1000D0000972000809720008B5500008000000000D
:1000E0000972000809720008097200080000000087
:1000F000000000000000000000000000097200087D
:100100000000000009720008097200080972000866
:1001100000000000000000000000000000000000DF
:100120000972000809720008C55000080972000829
:10013000097200080000000000000000000000003C
:10014000000000000000000000000000097200082C
:100150000972000809720008097200080972000893
:100160000972000809720008000000000000000089
:10017000000000000000000000000000000000007F
:1001800000000000097200080000000000000000EC
:08019000097200080972000861
:1001A00010B5054C237833B9044B13B10448AFF3B1
:1001B00000800123237010BDA0000020000000007B
:1001C000A095000808B5034B1BB103490348AFF3E2
:1001D000008008BD00000000A4000020A0950008D9
:1001E00001F0FF01102A2BDB10F0070F08D010F8E8
:1001F000013B013A8B422DD010F0070F42B3F6D1EC
:10020000F0B441EA012141EA014122F007047FF004
:1002100000070023F0E80256083C85EA010586EA5B
:10022000010685FA47F5A3FA87F586FA47F6A5FA97
:1002300087F68EB9EED1F0BC01F0FF0102F00702A3
:1002400032B110F8013B013A83EA010313B1F8D14E
:100250000020704701387047002D06BF354603382F
:10026000073815F0010F07D1013015F4807F02BF68
:10027000013015F4C03F0130F0BC0138704700BFB9
:1002800081F0004102E000BF83F0004330B54FEA47
:1002900041044FEA430594EA050F08BF90EA020FB4
:1002A0001FBF54EA000C55EA020C7FEA645C7FEA47
:1002B000655C00F0E2804FEA5454D4EB5555B8BF6A
:1002C0006D420CDD2C4480EA020281EA030382EADB
:1002D000000083EA010180EA020281EA0303362D6D
:1002E00088BF30BD11F0004F4FEA01314FF4801C40
:1002F0004CEA113102D0404261EB410113F0004F52
:100300004FEA03334CEA133302D0524263EB430308
:1003100094EA050F00F0A780A4F10104D5F1200EA6
:100320000DDB02FA0EFC22FA05F2801841F1000101
:1003300003FA0EF2801843FA05F359410EE0A5F1D5
:1003400020050EF1200E012A03FA0EFC28BF4CF006
:10035000020C43FA05F3C01851EBE37101F00045BC
:1003600007D54FF0000EDCF1000C7EEB00006EEBC9
:100370000101B1F5801F1BD3B1F5001F0CD3490853
:100380005FEA30004FEA3C0C04F101044FEA4452AA
:1003900012F5800F80F09A80BCF1004F08BF5FEA31
:1003A000500C50F1000041EB045141EA050130BD11
:1003B0005FEA4C0C404141EB0101013C28BFB1F523
:1003C000801FE9D291F0000F04BF01460020B1FA6E
:1003D00081F308BF2033A3F10B03B3F120020CDA41
:1003E0000C3208DD02F1140CC2F10C0201FA0CF01F
:1003F00021FA02F10CE002F11402D8BFC2F1200C84
:1004000001FA02F120FA0CFCDCBF41EA0C01904039
:10041000E41AA2BF01EB0451294330BD6FEA040482
:100420001F3C1CDA0C340EDC04F11404C4F120026D
:1004300020FA04F001FA02F340EA030021FA04F37F
:1004400045EA030130BDC4F10C04C4F1200220FAD6
:1004500002F001FA04F340EA0300294630BD21FA14
:1004600004F0294630BD94F0000F83F4801306BFDA
:1004700081F480110134013D4EE77FEA645C18BFCE
:100480007FEA655C29D094EA050F08BF90EA020F65
:1004900005D054EA000C04BF1946104630BD91EA5D
:1004A000030F1EBF0021002030BD5FEA545C05D160
:1004B0004000494128BF41F0004130BD14F580049F
:1004C0003CBF01F5801130BD01F0004545F0FE4113
:1004D00041F470014FF0000030BD7FEA645C1ABF48
:1004E000194610467FEA655C1CBF0B46024650EA7F
:1004F000013406BF52EA033591EA030F41F40021AB
:1005000030BD00BF90F0000F04BF0021704730B530
:100510004FF4806404F132044FF000054FF0000105
:1005200050E700BF90F0000F04BF0021704730B5C6
:100530004FF4806404F1320410F0004548BF40429B
:100540004FF000013EE700BF42004FEAE2014FEAF0
:1005500031014FEA02701FBF12F07F4393F07F4FCB
:1005600081F06051704732F07F4208BF704793F0CE
:100570007F4F04BF41F40021704730B54FF46074E1
:1005800001F0004521F000411CE700BF50EA0102E4
:1005900008BF704730B54FF000050AE050EA01028D
:1005A00008BF704730B511F0004502D5404261EBFD
:1005B00041014FF4806404F132045FEA915C3FF43E
:1005C000D8AE4FF003025FEADC0C18BF03325FEADB
:1005D000DC0C18BF033202EBDC02C2F1200300FA8C
:1005E00003FC20FA02F001FA03FE40EA0E0021FAB1
:1005F00002F11444BDE600BF70B54FF0FF0C4CF49F
:10060000E06C1CEA11541DBF1CEA135594EA0C0F50
:1006100095EA0C0F00F0DEF82C4481EA030621EA8B
:100620004C5123EA4C5350EA013518BF52EA0335C6
:1006300041F4801143F4801338D0A0FB02CE4FF078
:100640000005E1FB02E506F00042E0FB03E54FF0A8
:100650000006E1FB03569CF0000F18BF4EF0010EA0
:10066000A4F1FF04B6F5007F64F5407404D25FEA9C
:100670004E0E6D4146EB060642EAC62141EA55514F
:100680004FEAC52040EA5E504FEACE2EB4F1FD0C91
:1006900088BFBCF5E06F1ED8BEF1004F08BF5FEA0F
:1006A000500E50F1000041EB045170BD06F00046C1
:1006B00046EA010140EA020081EA0301B4EB5C046E
:1006C000C2BFD4EB0C0541EA045170BD41F4801166
:1006D0004FF0000E013C00F3AB8014F1360FDEBF8B
:1006E000002001F0004170BDC4F10004203C35DA67
:1006F0000C341BDC04F11404C4F1200500FA05F3EA
:1007000020FA04F001FA05F240EA020001F000428A
:1007100021F0004110EBD37021FA04F642EB060100
:100720005EEA430E08BF20EAD37070BDC4F10C042A
:10073000C4F1200500FA04F320FA05F001FA04F2EE
:1007400040EA020001F0004110EBD37041F10001DA
:100750005EEA430E08BF20EAD37070BDC4F12005E5
:1007600000FA05F24EEA020E20FA04F301FA05F24D
:1007700043EA020321FA04F001F0004121FA04F2F5
:1007800020EA020000EBD3705EEA430E08BF20EAC5
:10079000D37070BD94F0000F0FD101F000464000FF
:1007A00041EB010111F4801F08BF013CF7D041EA81
:1007B000060195F0000F18BF704703F00046520085
:1007C00043EB030313F4801F08BF013DF7D043EA56
:1007D0000603704794EA0C0F0CEA135518BF95EA0C
:1007E0000C0F0CD050EA410618BF52EA4306D1D193
:1007F00081EA030101F000414FF0000070BD50EAB2
:10080000410606BF1046194652EA430619D094EA3B
:100810000C0F02D150EA013613D195EA0C0F05D125
:1008200052EA03361CBF104619460AD181EA030179
:1008300001F0004141F0FE4141F470014FF0000031
:1008400070BD41F0FE4141F4780170BD70B54FF0CC
:10085000FF0C4CF4E06C1CEA11541DBF1CEA13554C
:1008600094EA0C0F95EA0C0F00F0A7F8A4EB05042E
:1008700081EA030E52EA03354FEA013100F0888025
:100880004FEA03334FF0805545EA131343EA1263EE
:100890004FEA022245EA111545EA10654FEA0026A3
:1008A0000EF000419D4208BF964244F1FD0404F55C
:1008B000407402D25B084FEA3202B61A65EB0305B8
:1008C0005B084FEA32024FF480104FF4002CB6EB75
:1008D000020E75EB030E22BFB61A754640EA0C00F5
:1008E0005B084FEA3202B6EB020E75EB030E22BF35
:1008F000B61A754640EA5C005B084FEA3202B6EB76
:10090000020E75EB030E22BFB61A754640EA9C0034
:100910005B084FEA3202B6EB020E75EB030E22BF04
:10092000B61A754640EADC0055EA060E18D04FEAC2
:10093000051545EA16754FEA06164FEAC30343EA62
:1009400052734FEAC2025FEA1C1CC0D111F4801F2F
:100950000BD141EA00014FF000004FF0004CB6E728
:1009600011F4801F04BF01430020B4F1FD0C88BFC7
:10097000BCF5E06F3FF6AFAEB5EB030C04BFB6EBD2
:10098000020C5FEA500C50F1000041EB045170BDC5
:100990000EF0004E4EEA113114EB5C04C2BFD4EBF2
:1009A0000C0541EA045170BD41F480114FF0000E76
:1009B000013C90E645EA060E8DE60CEA135594EAF2
:1009C0000C0F08BF95EA0C0F3FF43BAF94EA0C0FF5
:1009D0000AD150EA01347FF434AF95EA0C0F7FF46A
:1009E00025AF104619462CE795EA0C0F06D152EABE
:1009F00003353FF4FDAE1046194622E750EA4106A2
:100A000018BF52EA43067FF4C5AE50EA41047FF4B2
:100A10000DAF52EA43057FF4EBAE12E74FF0FF3C17
:100A200006E000BF4FF0010C02E000BF4FF0010CE8
:100A30004DF804CD4FEA410C7FEA6C5C4FEA430C61
:100A400018BF7FEA6C5C1BD001B050EA410C0CBFB0
:100A500052EA430C91EA030F02BF90EA020F002012
:100A6000704710F1000F91EA030F58BF994208BF79
:100A700090422CBFD8176FEAE37040F00100704736
:100A80004FEA410C7FEA6C5C02D150EA013C07D18D
:100A90004FEA430C7FEA6C5CD6D152EA033CD3D0D8
:100AA0005DF8040B704700BF8446104662468C46D2
:100AB0001946634600E000BF01B5FFF7B7FF002805
:100AC00048BF10F1000F01BD4DF808EDFFF7F4FF2E
:100AD0000CBF012000205DF808FB00BF4DF808EDB9
:100AE000FFF7EAFF34BF012000205DF808FB00BFDC
:100AF0004DF808EDFFF7E0FF94BF012000205DF8FE
:100B000008FB00BF4DF808EDFFF7CEFF94BF0120B2
:100B100000205DF808FB00BF4DF808EDFFF7C4FFAB
:100B200034BF012000205DF808FB00BF4FEA4102FE
:100B3000B2F1E04324BFB3F5001CDCF1FE5C0DD93B
:100B400001F0004C4FEAC0024CEA5070B2F1004F85
:100B500040EB830008BF20F00100704711F0804F88
:100B600021D113F13872BCBF01F00040704741F44D
:100B700080114FEA5252C2F11802C2F1200C10FA51
:100B80000CF320FA02F018BF40F001004FEAC12335
:100B90004FEAD32303FA0CFC40EA0C0023FA02F3D9
:100BA0004FEA4303CCE77FEA625307D150EA0133AF
:100BB0001EBF4FF0FE4040F44000704701F000407F
:100BC00040F0FE4040F40000704700BF53B94AB9FE
:100BD000002908BF00281CBF4FF0FF314FF0FF3045
:100BE00000F074B9ADF1080C6DE904CE00F006F820
:100BF000DDF804E0DDE9022304B070472DE9F04799
:100C0000089D04468E46002B4DD18A42944669D9F0
:100C1000B2FA82F252B101FA02F3C2F1200120FAD3
:100C200001F10CFA02FC41EA030E94404FEA1C4821
:100C3000210CBEFBF8F61FFA8CF708FB16E341EA1D
:100C4000034306FB07F199420AD91CEB030306F1A3
:100C5000FF3080F01F81994240F21C81023E6344C4
:100C60005B1AA4B2B3FBF8F008FB103344EA034468
:100C700000FB07F7A7420AD91CEB040400F1FF337D
:100C800080F00A81A74240F207816444023840EABA
:100C90000640E41B00261DB1D4400023C5E90043F3
:100CA0003146BDE8F0878B4209D9002D00F0EF8076
:100CB0000026C5E9000130463146BDE8F087B3FAA9
:100CC00083F6002E4AD18B4202D3824200F2F98091
:100CD000841A61EB030301209E46002DE0D0C5E994
:100CE000004EDDE702B9FFDEB2FA82F2002A40F0E0
:100CF0009280A1EB0C014FEA1C471FFA8CFE0126E3
:100D0000200CB1FBF7F307FB131140EA01410EFB86
:100D100003F0884208D91CEB010103F1FF3802D22D
:100D2000884200F2CB804346091AA4B2B1FBF7F027
:100D300007FB101144EA01440EFB00FEA64508D94A
:100D40001CEB040400F1FF3102D2A64500F2BB8087
:100D50000846A4EB0E0440EA03409CE7C6F12007D6
:100D6000B34022FA07FC4CEA030C20FA07F401FA1C
:100D700006F31C43F9404FEA1C4900FA06F3B1FBA5
:100D8000F9F8200C1FFA8CFE09FB181140EA01410A
:100D900008FB0EF0884202FA06F20BD91CEB0101A7
:100DA00008F1FF3A80F08880884240F28580A8F1FF
:100DB00002086144091AA4B2B1FBF9F009FB101151
:100DC00044EA014100FB0EFE8E4508D91CEB0101EF
:100DD00000F1FF346CD28E456AD90238614440EA92
:100DE0000840A0FB0294A1EB0E01A142C846A64612
:100DF00056D353D05DB1B3EB080261EB0E0101FA9B
:100E000007F722FA06F3F1401F43C5E900710026F7
:100E10003146BDE8F087C2F12003D8400CFA02FC4D
:100E200021FA03F3914001434FEA1C471FFA8CFE5D
:100E3000B3FBF7F007FB10360B0C43EA064300FB4D
:100E40000EF69E4204FA02F408D91CEB030300F1EB
:100E5000FF382FD29E422DD9023863449B1B89B2A2
:100E6000B3FBF7F607FB163341EA034106FB0EF32B
:100E70008B4208D91CEB010106F1FF3816D28B42D8
:100E800014D9023E6144C91A46EA004638E72E46A4
:100E9000284605E70646E3E61846F8E64B45A9D29C
:100EA000B9EB020864EB0C0E0138A3E74646EAE70B
:100EB000204694E74046D1E7D0467BE7023B6144B9
:100EC00032E7304609E76444023842E7704700BF22
:100ED000054B01221A7000221A615A61034A5A60B6
:100EE000034ADA60704700BFBC000020CDCC4C3E06
:100EF0006666663F08B507EE900AF8EEE77ADFED22
:100F00000A0AC7EEA00A9FED090A07F0DBFAF3EE22
:100F1000047A20EE270A9FED067AC0EE077A054B89
:100F2000C3ED067A08BD00BF0000FE420000DC42AF
:100F30000000FA46BC00002007EE100AB8EEC77A9F
:100F4000DFED0A7AC7EE276AF7EE007A77EEE67AE7
:100F5000074BC3ED037A9FED077AF4EEC77AF1EE03
:100F600010FA01D583ED037A704700BF0000FE42FE
:100F7000BC0000200AD7233C08B5400007EE900AC9
:100F8000F8EEE77A9FED040A87EE800A07F0B6F9DB
:100F9000024B187008BD00BF0000FE42BC000020DC
:100FA00008B52DED028BB0EE408A10EE100AFFF767
:100FB000CBFA1CA3D3E90023FFF7AEFD08B19FEDE8
:100FC000168AB6EE000A28EE000A144B83ED010AD9
:100FD000DFED137A20EE270ABAEE0E7A20EE077ABA
:100FE00060EE007A67EE807A37EE277A70EE007A4C
:100FF00027EE800AF1EE047A30EE670AF0EE087A06
:1010000020EE270AC7EE007AC3ED027ABDEC028B10
:1010100008BD00BFAFF3008048E13A3FBC000020AC
:10102000DB0F49405C8FC2F5285CE73FF6EE007AA3
:1010300060EE277A27EEA77ADFED0D6A77EE266A53
:1010400066EE876A9FED0B6A76EE866AF2EE0E7A9E
:1010500067EE277ADFED085A77EEA57A67EE877A92
:1010600077EE867A86EEA77A20EE070A704700BFF1
:101070000000D24200406C440000D24310B52DED78
:10108000088B4C4B93ED028A93ED017ADFED4A7A9F
:10109000B4EEE77AF1EE10FA64DA93ED039A28EEF3
:1010A00008AADFED467A20EE270AFFF7BFFFF0EE31
:1010B000408A78EE089A69EE897AF7EE006A77EE50
:1010C000A67AC6EEA7BA3B4C94ED040A94ED05BA95
:1010D0006AEE2B7A28EEA77A37EE0B7A28EE2B6A87
:1010E00026EE006A37EE067A77EEA67A87EE27AA12
:1010F00078EECAAAFFF79AFF28EE2A8A30EE088A0D
:1011000028EE2B8A39EE099A29EE089A7AEEC9AAB6
:1011100069EEAAAA30EE2A0A84ED040A29EE888A2A
:1011200038EE0B8A84ED058A2378012B1DD038EE2A
:10113000C90A30EE4A0ADFED227A20EE270AF7EEDE
:10114000007AB4EEE70AF1EE10FA01DDB0EE670ABC
:10115000FFEE007AB4EEE70AF1EE10FA26D4BDEC09
:10116000088B10BDB7EE009A99E7DFED167AB4EE62
:10117000E7AAF1EE10FA13D4DFED137AB4EEE7AA82
:10118000F1EE10FA0FDCDFED117A6AEE277A2AEE23
:101190000A0A9FED0FAA30EE0AAA87EE8A0ACEE766
:1011A000BFEE000ACBE7B7EE000AC8E7B0EE670A69
:1011B000D5E700BFBC0000204B59E63ECDCC4C3FEC
:1011C000AE47613F9A99F9BF9A99F93FCDCC8440D7
:1011D000AE47894008B5C34B1B78B02B00D008BD83
:1011E000C14B1878C14B1B78013B622BF7D801A289
:1011F00052F823F081130008DF110008DF11000806
:10120000DF110008871300088D13000893130008EE
:1012100099130008DF110008DF1100089F13000870
:10122000A5130008AB130008B1130008B71300089A
:10123000BD130008DF110008DF110008DF110008EE
:10124000DF110008DF110008DF110008DF110008BE
:10125000DF110008DF110008C3130008C9130008DC
:10126000CF130008D5130008DB130008E1130008B2
:10127000E7130008ED130008F3130008F913000842
:10128000FF130008051400080B14000811140008CF
:10129000171400081D14000823140008291400085E
:1012A0002F140008351400083B14000841140008EE
:1012B000471400084D14000853140008591400087E
:1012C0005F140008DF110008DF110008DF110008BB
:1012D000DF110008651400086B140008DF11000816
:1012E00071140008771400087D14000883140008A6
:1012F000DF110008DF110008891400088F140008AE
:10130000951400089B140008A1140008A7140008F5
:10131000AD140008B3140008B9140008DF11000868
:10132000DF110008BF140008C5140008CB14000822
:10133000DF110008DF110008DF110008DF110008CD
:10134000DF110008D1140008DF110008DF110008C8
:10135000DF110008DF110008DF110008DF110008AD
:10136000DF110008DF110008D7140008DF110008A2
:10137000DF110008DF110008DF110008DD1400088C
:1013800000F08AF92BE703F057FB28E703F0E2F9B6
:1013900025E703F0BDF922E701F022FF1FE702F085
:1013A000E9F81CE702F0FCF819E701F0D9FA16E7B2
:1013B00001F0E6FA13E701F00BFB10E701F018FB70
:1013C0000DE703F0D3FC0AE703F0DEFC07E703F0C8
:1013D000F9FC04E703F00CFD01E702F073F8FEE608
:1013E00000F0DEFAFBE600F003FBF8E600F02AFB73
:1013F000F5E600F023FEF2E600F066FCEFE600F012
:1014000095FCECE600F09EFCE9E600F077FCE6E6F1
:1014100000F0E2FDE3E600F079FCE0E600F082F99E
:10142000DDE600F0B5F9DAE600F0E8F9D7E600F01D
:101430000BFAD4E600F02CFAD1E600F051FACEE631
:1014400000F078FACBE600F087FAC8E603F08CFBF0
:10145000C5E603F0F5FBC2E603F00EFCBFE603F0C1
:1014600027FCBCE603F0C8FAB9E603F0D5FAB6E605
:1014700003F060F9B3E603F035FBB0E603F03EFBA2
:10148000ADE603F057FBAAE603F0A0FAA7E602F0E8
:101490009DF8A4E602F0B0F8A1E603F01BFA9EE680
:1014A00003F05CFA9BE6FFF747FD98E603F070FA5D
:1014B00095E6FFF761FD92E6FFF71CFD8FE600F071
:1014C00017F88CE600F01AF889E600F01DF886E6B9
:1014D00001F09EFA83E603F0CDFA80E603F050F9BE
:1014E0007DE600BFFF7B0120F87B0120F97B012016
:1014F000014B1870704700BF00000020014B1870AE
:10150000704700BFD8000020014B5870704700BFE3
:10151000D800002000B583B0019101380B2814D801
:10152000DFE800F00616223A4E5A667284969A9EBA
:10153000DDED017AF8EEE77A9FED4B7A67EE877A78
:1015400067EEA77A494BC3ED007A03B05DF804FB60
:10155000DDED017AF8EEE76A9FED457AC6EE877A0F
:10156000444BC3ED007AF0E7DDED017AF8EEE70ACF
:10157000DFED3F7AC0EEA70A9FED3F0A06F0A2FF1B
:10158000F3EE047A20EE270A9FED3C7AC0EE077A4C
:101590003B4BC3ED007AD8E79FED3A0AF8EE082AF4
:1015A000DDED017AB8EE672ADFED371AB0EE401AAA
:1015B000DFED2F0A01F000FF344B83ED000AC4E792
:1015C000DDED017AF8EEE77A9FED317A67EE877A02
:1015D0002E4BC3ED027AB8E7DDED017AF8EEE77A3B
:1015E0009FED2B7A67EE877A204BC3ED027AACE74A
:1015F000DDED017AF8EEE77A9FED257A67EE877ADE
:101600001C4BC3ED027AA0E7DFED1E0AB7EE002AFD
:10161000F0EE601A9FED161ADDED017AB8EE670A5A
:1016200001F0BDFE1B4B83ED000A8EE7DFED150ACE
:10163000B2EE042AF0EE601A9FED0D1ADDED017A8C
:10164000B8EE670A01F0ABFE124B83ED020A7CE7AD
:10165000019803F099FB78E7019801F08BFF74E79C
:10166000019801F09DFF70E70402813B547D012049
:101670000000FE420C7D01200000DC420000FA4622
:10168000D40000200000000000000042307D012056
:101690000683C13D747C012010B504460A4B1878BE
:1016A00030B90A4B187838B9084B587840B910BD92
:1016B0002146FFF72FFFF4E72146FFF72BFFF3E763
:1016C0002146FFF727FFF2E700000020D8000020A6
:1016D00000230361044B03604360044A8260C360DB
:1016E00004234361704700BFCDCCCC3D6666663FA6
:1016F0000023436170470323436170470023036164
:101700000023436170470000DFED057A20EE270AD1
:10171000B3EE097AC7EE007AC0ED007A704700BFD9
:101720000000FA4608B502EE100A9FED0C0AF8EE2A
:10173000082AB8EE422AF6EE001AB0EE401ADFEDA3
:10174000080A01F039FE0748A0EC010ADFED067A2D
:1017500030EE270AFFF7D8FF08BD00BF00000000E9
:101760000000FE42DC00002017B7D138DFED057A1B
:1017700020EE270A9FED047AC7EE007AC0ED017AC9
:10178000704700BF0000FA46000020420000000041
:1017900008B5FEF7C7FE0DA3D3E90023FEF72CFF23
:1017A0000CA3D3E90023FFF751F80CA3D3E90023DE
:1017B000FEF76CFDFFF7BAF900EE100A0248FFF7DA
:1017C000D5FF08BDAFF30080E000002066666666C6
:1017D0006666D63F0000000000C05F40000000E0E9
:1017E000E2361A3F4369022B02D080ED020A7047AD
:1017F00080ED020A80ED040A7047000008B507EE8C
:10180000900AF8EEE77A9FED067A87EE870ADFED19
:10181000057A30EE270A0448FFF7E4FF08BD00BF51
:101820000000FE4217B7D138E0000020DFED057A56
:1018300020EE270AB3EE097AC7EE007AC0ED037AEC
:10184000704700BF0000FA4608B502EE100A9FED8F
:101850000C0AF9EE042AB8EE422AF6EE001AB0EEAF
:10186000401ADFED080A01F0A7FD074880ED070ADE
:10187000DFED067A30EE270A0430FFF7D7FF08BD08
:10188000000000000000FE42DC00002017B7D13845
:1018900008B502EE100A9FED0D0AF8EE082AB8EE20
:1018A000422AF7EE001AB0EE401ADFED090A01F005
:1018B00083FD08480346203083ED000ADFED067AF9
:1018C00030EE270AFFF720FF08BD00BF0000000030
:1018D0000000FE42DC00002017B7D13800000000F5
:1018E00008B5FEF71FFE0DA3D3E90023FEF784FE23
:1018F0000CA3D3E90023FEF7A9FF0CA3D3E900232F
:10190000FEF7C4FCFFF712F900EE100A0248FFF7D9
:101910002DFF08BDAFF30080FC0000206666666600
:101920006666D63F0000000000C05F40000000E097
:10193000E2361A3F08B507EE900AF8EEE77A9FED17
:10194000040A87EE800A0348FFF74CFF08BD00BF7A
:101950000000FE42FC00002008B502EE100A9FEDD8
:101960000C0AF9EE042AB8EE422AF7EE001AB0EE9D
:10197000401ADFED080A01F01FFD074880ED070A55
:10198000DFED067A30EE270A2030FFF74FFF08BD63
:10199000000000000000FE42DC00002017B7D13834
:1019A00008B502EE100A9FED0D0AF8EE082AB8EE0F
:1019B000422AF6EE001AB0EE401ADFED090A01F0F5
:1019C000FBFC08480346383083ED000ADFED067A59
:1019D00030EE270AFFF798FE08BD00BF00000000A8
:1019E0000000FE42DC00002017B7D13800000000E4
:1019F00008B5FEF797FD0DA3D3E90023FEF7FCFD24
:101A00000CA3D3E90023FEF721FF0CA3D3E90023A5
:101A1000FEF73CFCFFF78AF800EE100A0248FFF7D9
:101A2000A5FE08BDAFF3008014010020666666665F
:101A30006666D63F0000000000C05F40000000E086
:101A4000E2361A3F08B507EE900AF8EEE77A9FED06
:101A5000040A87EE800A0348FFF7C4FE08BD00BFF2
:101A60000000FE42140100202DE9D04304464369E2
:101A7000012B34D0032B60D01BB194ED040ABDE8D8
:101A8000D0830069FEF760FD06460F462068FEF72A
:101A90005BFD8046894632463B464BA1D1E90001B9
:101AA000FEF7F2FB02460B4640464946FEF7A4FD10
:101AB00002460B4630463946FEF7E8FBFFF736F89C
:101AC00007EE900A2061B7EE007AF4EEC77AF1EEE5
:101AD00010FAD2DB84ED047A01236361CDE700695B
:101AE000FEF732FD06460F466068FEF72DFD804684
:101AF000894632463B4636A1D1E90001FEF7C4FBD8
:101B000002460B4640464946FEF776FD02460B4626
:101B100030463946FEF7BAFBFFF708F807EE900AA1
:101B2000206194ED027AF4EEC77AF1EE10FAA4D8AF
:101B300084ED047A022363619FE70069FEF704FDE8
:101B400006460F46E068FEF7FFFC804689463246AF
:101B50003B4621A1D1E90001FEF796FB02460B4668
:101B600040464946FEF748FD02460B463046394698
:101B7000FEF78CFBFEF7DAFF07EE900A2061F5EE28
:101B8000C07AF1EE10FA3FF678AF002323610A4BDA
:101B9000D3ED057AF5EE407AF1EE10FA06D1074B57
:101BA0001B781BB1064B1A68064B9A6004236361CD
:101BB00063E700BFAFF30080DC000020A87D0120B8
:101BC000F47B0120307D0120555555555555F53F85
:101BD000545555555555D5BFB22CCBB22CCBE2BF81
:101BE0002DE9D04304464369012B34D0032B60D048
:101BF0001BB194ED040ABDE8D0830069FEF7A4FC94
:101C000006460F462068FEF79FFC8046894632460E
:101C10003B4629A1D1E90001FEF736FB02460B46FF
:101C200040464946FEF7E8FC02460B463046394638
:101C3000FEF72CFBFEF77AFF07EE900A2061B7EE65
:101C4000007AF4EEC77AF1EE10FAD2DB84ED047A72
:101C500001236361CDE70069FEF776FC06460F4677
:101C60006068FEF771FC8046894632463B4614A107
:101C7000D1E90001FEF708FB02460B464046494603
:101C8000FEF7BAFC02460B4630463946FEF7FEFA2E
:101C9000FEF74CFF07EE900A206194ED027AF4EE15
:101CA000C77AF1EE10FAA4D884ED047A02236361B6
:101CB0009FE7042343619CE7555555555555F53F1E
:101CC000545555555555D5BF08B500EE100AB4EE1C
:101CD000002AF0EE001A9FED061ADFED060AB8EEB4
:101CE000400A01F05CFB044B83ED000A08BD00BF15
:101CF0000000FE42000000002C010020024B187181
:101D000000225A71704700BF2C0100203F2806D9DD
:101D1000054B01229A71044B00225A717047024B05
:101D200000229A71F7E700BF2C0100203F2803D959
:101D3000034B0122DA717047014B0022DA717047C0
:101D40002C010020431EDBB2142B18D9A0F116037E
:101D5000DBB2142B1AD9A0F12A03DBB2152B1CD944
:101D6000A0F13F03DBB2152B1DD9A0F15403DBB268
:101D7000152B1ED96938C0B2162820D97047134BCD
:101D80004FF47A721A8160229A7270470F4B4FF4A7
:101D9000FA721A8130229A7270470C4BFA221A8119
:101DA00018229A727047094B7D221A810C229A726E
:101DB0007047064B3E221A8106229A727047034BE7
:101DC0001F221A8103229A72D8E700BF2C0100203B
:101DD0000A4B0022DA721A735A7301219973022096
:101DE0001871DA734FF07E5018605A719971DA7178
:101DF0007D211981182199721A7470472C010020D5
:101E0000124A137B0133DBB2137313441B7D0BB9EE
:101E1000927922B913B90D4B00221A7370470B4AFD
:101E2000517981F001015171127D0C32013B9A42CE
:101E300003D0064B00221A737047044B5B7D002BC6
:101E4000F7D0024B01221A73704700BF2C0100200B
:101E50000E4B1B7BABB90D4B9B7923B10B4A5379CE
:101E600083F001035371094B15221A7302E0013A02
:101E7000064B1A73054B1A7B13441B7D002BF6D0BF
:101E80007047013B014A1373704700BF2C010020CB
:101E90001F4B9B7B0BB31E4B1A7B511C0B441B7DB2
:101EA000BBB91B4B9B7923B1194B5B7983F00101C3
:101EB00053B1174B002199735B7D43B3144B83F8E7
:101EC0002A20013A1A737047114B597100221A7374
:101ED000704701320E4B1A7370470D4B1B7B9BB939
:101EE0000B4A527912B10A49897929B9084A012164
:101EF00091730B441373704782F00102044B5A71C3
:101F000093F82A201A737047013B014A13737047F4
:101F10002C01002008B5254B93F82B3003B108BDE8
:101F20002348FFF7E8FB2348FFF7E5FB2248FFF7CC
:101F3000E2FB1E4B5B7B1BB91C4BDB7A002BEED00C
:101F40001A4B1B7D002BEAD0184B1A7B13441B7DC8
:101F500013B9164B00221A731548FFF7C9FB154831
:101F6000FFF7C6FB1448FFF7C9FB104B5B7983B141
:101F70000E4B1A7B13441B7D0C33104A13700B4B12
:101F80001B796BB1012B0ED0022BC8D1FFF780FF5C
:101F9000C5E7064B1A7B13441A7D084B1A70EEE70F
:101FA000FFF72EFFBBE7FFF753FFB8E72C01002038
:101FB000E0000020FC0000201401002010000020A0
:101FC000002304E0034A1A44002111750133152B44
:101FD000F8D970472C01002008B53F2805D90D4BD2
:101FE000012283F82C205A7308BD0A4B002283F883
:101FF0002C205A73DB7A002BF6D10748FFF77BFBC6
:102000000648FFF778FB0648FFF775FBFFF7D8FF98
:10201000EAE700BF2C010020E0000020FC000020C7
:1020200014010020002303E0034A0021D1540133AE
:102030000F2BF9D9704700BFE47B012008B53F287A
:1020400011D80C4B002283F82D20FFF7B9FFFFF7C2
:10205000E9FF094B00221A700848FFF74CFB0848BB
:10206000FFF749FB08BD034B012283F82D20FFF742
:10207000D9FFEAE72C010020E07B0120E0000020EE
:10208000FC00002038B52DED028B05460C46F0EE25
:10209000418ADFED197A20EE270A80EE208AB6EE1B
:1020A000000A38EE400A06F029F907EE900AF8EE29
:1020B000E76A78EE666A00F03F0216E005EB8401FD
:1020C0000E4B03EBC203D3ED007A93ED017A27EEBA
:1020D000267A77EE877A67EEA87A91ED007A77EE26
:1020E000277AC1ED007A40320134B2F5905FE5DB2A
:1020F000BDEC028B38BD00BF00008042BCDC000894
:1021000008B5012380F848354FF07E534360074BF4
:10211000C3600023036103620021C0F844154FF43B
:10212000A462243005F0AAF808BD00BF0000DC431B
:1021300038B52DED068B0446D0ED04AA90ED038A48
:10214000D0ED068AD0ED079A90ED08AAD0F8445554
:1021500090F84835EBB1DFED6A7AC8EE279A19EEB0
:10216000900AFEF7F1F964A3D3E90023FEF7B6FC69
:1021700008B1DFED649AF6EE007AF4EEE79AF1EE3C
:1021800010FA01DDF0EE679A002384F84835F6EE88
:10219000008ADFED5B7A88EE279A19EE100AFEF7C7
:1021A000D3F955A3D3E90023FEF798FC08B19FEDBE
:1021B000559AF6EE007AB4EEE79AF1EE10FA01DDE8
:1021C000B0EE679A39EE699A39EE899A78EE898A83
:1021D000DFED4D7AF4EEE7AAF1EE10FA57DB7AEE76
:1021E000E79A69EE899A78EEE98AF7EE007AF4EEDA
:1021F000E78AF1EE10FA3CDAB0EE681AF0EE490A1E
:10220000B0EE690A294604F12400FFF73BFFC4ED54
:1022100005AAB6EE007A77EE696A05F10C0304EBC5
:102220008303D3ED017A77EEA67AC3ED017A05F147
:10223000080304EB830393ED018A38EE4A8A28EE03
:10224000078A38EE0A8AD4ED018A68EE888AC4EDDE
:10225000008A6B1CFF2D3CD0C4ED069A84ED079AD2
:1022600084ED088AC4F84435B0EE680ABDEC068BEC
:1022700038BDB0EE671A78EEE78AF0EE490A39EE1B
:10228000A80A294604F12400FFF7FCFEB4E7F7EEA4
:10229000007AF4EEE78AF1EE10FA04DA00236361C3
:1022A000F0EE689AB5E7B0EE671A78EEE79AC9EEF5
:1022B000897A9FED157A77EE877AC4ED057AF0EE8C
:1022C000490AB0EE690A294604F12400FFF7DAFE54
:1022D0009FE74FF4907204F2244104F1240004F0CB
:1022E000BFFF4FF48062002104F5A27004F0C6FF26
:1022F0000023B1E7AFF30080F168E388B5F8E43E6E
:102300000000FA46ACC5273708E53C1E0000000077
:1023100038B52DED068B0446D0ED04AA90ED03AA46
:1023200090ED068A90ED079AD0ED089AD0F84455C2
:1023300090F84835EBB1DFED6A7A8AEE279A19EE0C
:10234000100AFEF701F964A3D3E90023FEF7C6FBE8
:1023500008B19FED649AF6EE007AB4EEE79AF1EEDA
:1023600010FA01DDB0EE679A002384F84835B6EE26
:10237000008ADFED5B7ACAEE278A18EE900AFEF734
:10238000E3F855A3D3E90023FEF7A8FB08B1DFED7E
:10239000558AF6EE007AF4EEE78AF1EE10FA01DDE6
:1023A000F0EE678A78EEC98A79EE288A38EE288AB4
:1023B000DFED4D7AF4EEE7AAF1EE10FA57DB3AEED4
:1023C000E79A29EE289A38EE498AF7EE007AB4EEB9
:1023D000E78AF1EE10FA3CDAB0EE481AF0EE680A3D
:1023E000B0EE490A294604F12400FFF74BFEC4ED84
:1023F00005AAB6EE008A78EE497A05F10C0304EBE3
:10240000830393ED017A37EE277A83ED017A05F1A4
:10241000080304EB8303D3ED017A77EEA97A67EE24
:10242000887A39EEE78AD4ED019A69EE889AC4ED8C
:10243000009A6B1CFF2D3CD084ED069AC4ED078AF0
:1024400084ED088AC4F84435B0EE690ABDEC068B09
:1024500038BDB0EE671A38EE678AF0EE680A39EEDA
:10246000080A294604F12400FFF70CFEB4E7F7EE52
:10247000007AB4EEE78AF1EE10FA04DA0023636121
:10248000B0EE489AB5E7B0EE671A38EE679AC9EE33
:10249000287A9FED157A77EE877AC4ED057AF0EE0B
:1024A000680AB0EE490A294604F12400FFF7EAFD64
:1024B0009FE74FF4907204F2244104F1240004F0E9
:1024C000CFFE4FF48062002104F5A27004F0D6FE26
:1024D0000023B1E7AFF30080F168E388B5F8E43E8C
:1024E0000000FA46ACC5273708E53C1E08B50123B5
:1024F00080F858354FF07E534360074BC36000238C
:1025000043610361C3620021C0F850154FF4A46217
:10251000303004F0B3FE08BD0000DC4300000000D2
:1025200070B52DED088B044690ED058AD0ED03BA09
:1025300090ED079AD0ED088A90ED09BAD0ED0AAA7D
:1025400090ED0BAAD0F85065D0F8545590F8583556
:10255000002B40D0DFEDD87ACBEEA78A18EE900A98
:10256000FDF7F2FFD2A3D3E90023FEF7B7FA08B1D3
:10257000DFEDD28AF6EE007AF4EEE78AF1EE10FA99
:1025800001DDF0EE678A2069FDF7DEFF0022CC4B0B
:10259000FDF77CFE0022CB4BFEF72EF8FEF7C6FAC5
:1025A00007EE900AF4EEE78AF1EE10FA01DDF0EEA4
:1025B000687AB7EE00BA3BEE68BAB4EEE7BAF1EE6D
:1025C00010FA01D4B0EE67BA002584F85855F6EE3B
:1025D00000AA9FEDBD9ADFEDB87ACBEEA79A19EE6F
:1025E000900AFDF7B1FFB2A3D3E90023FEF776FA14
:1025F00008B1DFEDB29AF6EE007AF4EEE79AF1EE6A
:1026000010FA01DDF0EE679A79EEE89A2069FDF79D
:102610009BFF0022AA4BFDF739FE0022A94BFDF7D4
:10262000EBFFFEF783FA07EE100AF4EEC78AF1EE2D
:1026300010FA01DDB0EE687AF7EE007A77EEE87A0C
:10264000F4EEC77AF1EE10FA01D4F0EE477A77EEA5
:10265000CB7A78EEA98A3BEE27BA39EE289ADFEDDD
:102660009C7AB4EEE78AF1EE10FAC0F2C08078EE00
:10267000679A69EEA89A39EE699A002D7BD1B4EE7B
:10268000C9BAF1EE10FA54D92B46F7EE007AB4EE3F
:10269000E79AF1EE10FA5DDA1D466DB1B7EE001A59
:1026A000F0EE680AB0EE690A314604F13000FFF737
:1026B000E9FCF6EE00AA0025B4EEE9BAF1EE10FA54
:1026C00040F2868084ED068A06F1100304EB830352
:1026D000D3ED007A77EEAA7AC3ED007A06F10C0307
:1026E00004EB830393ED008A38EE4A8AF6EE007A13
:1026F00028EE278A38EE0A8A94ED019A29EE089A84
:1027000084ED009A731CFF2E00F0FD80C4ED079A43
:10271000C4ED088A84ED09BAC4ED0AAA84ED0B8AD7
:10272000C4F85035C4F85455B0EE490ABDEC088BD6
:1027300070BD39EE4B0ABFEE001AF0EE680A30EEBB
:10274000290A314604F13000FFF79CFCFEEE00AA96
:1027500001239AE7B0EE671A39EE679AF0EE680A3D
:1027600039EE890A314604F13000FFF78BFC574BF4
:10277000D3ED00AAA0E7F7EE007AB4EEE79AF1EE07
:1027800010FA14DA002D88D1B4EECB9AF1EE10FADB
:1027900083DB39EE4B9ABFEE001AF0EE680A39EE91
:1027A000290A314604F13000FFF76CFC76E7B0EE01
:1027B000671A39EE679AF0EE680A39EE890A3146EF
:1027C00004F13000FFF75EFCF6EE00AA0025D9E721
:1027D000BFEE001AF0EE680A39EECB0A314604F17A
:1027E0003000FFF74FFCFEEE00AA01256AE7CDBBE3
:1027F000B4EEC9BAF1EE10FA0DD92B46F7EE007A15
:10280000B4EEE79AF1EE10FA14DA0022A261F0EECB
:10281000499A1D4658E7BFEE001AF0EE680A39EEF5
:102820004B0A314604F13000FFF72CFCFEEE00AA03
:102830000123E3E7B0EE671A79EE679AC9EEA87A4A
:102840009FED237A77EE877AC4ED067AF0EE680A78
:10285000B0EE690A314604F13000FFF713FCF6EEE2
:1028600000AA31E7F7EE007AB4EEE79AF1EE10FA3B
:1028700030DA0023A361F0EE499A002D7FF424AFF3
:10288000F4EECB9AF1EE10FAFFF61EAFBFEE001A8F
:10289000F0EE680A39EECB0A314604F13000FFF75A
:1028A000F1FBFEEE00AA01250EE700BFAFF30080AA
:1028B000F168E388B5F8E43E0000FA46ACC5273776
:1028C0000000F03F0000E03F00000000707C0120AD
:1028D00008E53C1EB0EE671A79EE679AC9EEA87A51
:1028E0001FED057A77EE877AC4ED067AF0EE680A76
:1028F000B0EE690A314604F13000FFF7C3FBF6EE93
:1029000000AA0025B9E74FF4907204F5866104F13E
:10291000300004F0A5FC4FF48062002104F5A8709B
:1029200004F0ACFC0023F1E6024B034A1A60034AB0
:102930005A607047040C0020200C002080F6002014
:10294000002305E0054A02EB8302002111600133F8
:1029500045F2E5729342F5DD704700BF200C002080
:1029600008B53F2805D9054B01221A72FFF7E8FF89
:1029700008BD024B00221A72F8E700BF040C0020C9
:1029800008B507EE900AF8EEE77A9FED0D0A67EEBC
:10299000807A9FED0C0A37EE800A05F0AFFC0A4BF7
:1029A0005B68A3EB8000094B984202D3064B18608A
:1029B00008BD00F5AF3000F5C670034B1860F7E7AF
:1029C00061302F4300007A43040C0020200C0020CB
:1029D00007EE900AF8EEE77ADFED036A87EEA67A53
:1029E000024B83ED007A70470000FE420400002095
:1029F00007EE900AF8EEE77ADFED036A87EEA67A33
:102A0000024B83ED017A70470000FE420400002073
:102A10008201034B1A8108B904221A81704700BF52
:102A200004000020394A1368D3ED007A9FED387A0C
:102A300067EE877A92ED037ADFED366A27EE267A23
:102A400077EE877AC2ED037A334A92ED007A67EE29
:102A5000877A77EE807AB7EE007AF4EEC77AF1EEF5
:102A600010FA01DDF0EE477ABFEE007AF4EEC77A95
:102A7000F1EE10FA40D425494A68E2EC017A4A6046
:102A800004330B602549521A25498A4202DD1F4A48
:102A900022495160214A9B1A214A934202DD1B4B75
:102AA0001E4A1A601C4BD3ED016A66EEA77AB7EE98
:102AB000007A37EE667A27EE000A77EE807A134BBB
:102AC000C3ED047A5A685B699A4218D204330F4AFC
:102AD00053610E4B5A69134B9A4202D30B4B0F4A68
:102AE0005A610A4B5A69D2ED007A66EEA76A30EE57
:102AF000260A83ED060A7047F0EE477ABBE7064BDD
:102B00001B89A2EB8302014B5A61E2E7040C00200F
:102B10003333333F9A99993E04000020200C002063
:102B20008C5F0100B06B012082B0002100910B4B43
:102B30001A6B42F080021A631A6B02F08002009254
:102B4000009A01911A6B42F001021A631B6B03F0A9
:102B500001030193019B02B0704700BF003802409F
:102B600008B50948094B03604FF400734360002324
:102B70008360C36003614FF4FA4242618361C361C1
:102B8000036203F0E9F808BDB86B01200030014092
:102B900000B583B000220192094B196B41F480010A
:102BA00019631B6B03F480030193019B0D213A20F1
:102BB00002F086FD3A2002F0BBFD03B05DF804FB95
:102BC0000038024008B50948094B836447F61223D0
:102BD000C36400230365436583650C22C2650366F5
:102BE0004366483004F08EF908BD00BFB86B012081
:102BF0000044004008B54FF4FA71024802F058FB57
:102C000008BD00BF406C012008B54FF4FA710248BE
:102C100002F04EFB08BD00BF1074012010B5404B00
:102C200013F8D03C53B100230F2B39DC3C4A1A4433
:102C300012F8CC2C002A48D00133F5E7384B03F8C2
:102C4000CC0C384B1B78A3B1374BD3ED047AF5EE9F
:102C5000407AF1EE10FA24D0314B13ED2F7A334B3A
:102C600083ED027A324AD2ED007A67EE877AC3EDBD
:102C7000027A2D4B5B69032B21D02B48FEF738FDE0
:102C80002C48FEF735FD2C48FEF738FD244B13F891
:102C9000CC1C2A4A117013F8D02C013203F8D02C26
:102CA00010BD224B93ED027A1D4A02ED2F7A204A85
:102CB000D2ED007A67EE877AC3ED027AD9E7204B2E
:102CC000194A13611B4A1361D7E7154A134403F8E5
:102CD000CC0C144B1B785BB112ED2F7A134B83EDA8
:102CE000027A134AD2ED007A67EE877AC3ED027A50
:102CF000124B18705B7833B1094A12F8D03C01339B
:102D000002F8D03CCCE708480D4C0461FEF7F0FC1B
:102D100008480461FEF7ECFC0748FEF7EFFCEBE720
:102D2000B07C0120A87D0120E0000020307D012042
:102D3000987D0120FC0000201401002010000020DC
:102D4000CDCCCC3D10B504461C4B1B7813B91C4BA5
:102D50001B78A3B11B4B1B7813B9194B1B78A3B974
:102D60004FF0000CBCF1150F25D8144B13F80C30A4
:102D7000A34220D003B3A3420AD3162312E00F4B81
:102D80001870104B01221A7015E0FFF719F9E7E7E8
:102D90000CF1010CE6E75A1E084911F802E001F8AF
:102DA00003E013469C45F6DB044B03F80C40054A50
:102DB00013780133137010BD1623F3E74001002090
:102DC000390100203701002038B5424B13F8D03CC0
:102DD000B3B10446404A127882421DD0012B4BD930
:102DE0003C4B13F8D05C012D15D900230F2B12DCBE
:102DF000384A1A4412F8CC2CA24250D00133F5E7DD
:102E00003648FEF778FC3648FEF775FC3548FEF785
:102E100072FCFFF707F938BD012BDFD900250F2D14
:102E2000F9DC2C4B2B4413F8CC3CA34201D00135E8
:102E3000F5E76A1E274B134413F8CC2C264B1A7067
:102E40005B7853B1234B1D44002205F8CC2C13F8BA
:102E5000D02C013A03F8D02CDDE72048224C046145
:102E6000FEF746FC1E480461FEF742FC1D480023A5
:102E70000361FEF743FCE5E71848FEF73CFC184801
:102E8000FEF739FC1748FEF736FC124B002203F818
:102E9000CC2C13F8D02C013A03F8D02CA0E70D4A23
:102EA0001A44002102F8CC1C591C08E0094A5018A9
:102EB00010F8CC0C1A4402F8CC0C013301310F2964
:102EC000F4DD044B002203F8BD2C013D03F8D05C77
:102ED000A1E700BFB07C012010000020E00000202E
:102EE000FC00002014010020CDCCCC3D1B4B1B78F6
:102EF0005BB11B4B1B7843B1013BDBB2184A13702B
:102F000053BB164B00221A70704710B5144B1C7837
:102F1000013CE4B21C70002300E00133152B0CD8F7
:102F2000104A1278002AF8D10F4AD25C8242F4D3B8
:102F30005A1C0D498A5CCA54EFE70A4B1B7803B947
:102F400004B110BD0948FEF7D6FB0948FEF7D3FBD4
:102F50000848FEF7D0FBF4E7704700BF5801002097
:102F6000370100203901002040010020E00000204E
:102F7000FC0000201401002010B5124A12F8B81C01
:102F800012F8B73C43EAC113A3F5005300EE903AA0
:102F9000F8EEE00ADFED0C7A60EEA70A0B4CA3789E
:102FA00007EE903AF8EEE77A67EEA00AF2EE087ABA
:102FB000C0EEA70AB0EE000A05F084FA84ED010A1B
:102FC00010BD00BFB07C01200000003910000020BF
:102FD00010B5384B13F8B42C03F8B12C13F8B30C1C
:102FE00003F8B70C13F8B21C03F8B81C09B9902AFF
:102FF00008D0802A19D0902A2AD0B02A49D0E02AB5
:103000004FD010BD2C4B1B783BB9FFF7DDFE0122E2
:103010002A492B4803F0A5FFF3E7FFF767FF0122DA
:103020002649274803F09DFFEBE7234B1B783BB96C
:10303000FFF7CAFE01222149214803F092FFE0E791
:10304000FFF754FF01221D491D4803F08AFFD8E70E
:10305000194B1B7873B9084601F0A0FD154C14F804
:10306000B70CFFF7DBFD0122A4F1B001144803F017
:1030700078FFC6E7084601F091FD0E4C0122A4F14D
:10308000B0010F4803F06DFF14F8B70CFFF75AFEBC
:10309000B7E7FEF79FF801220849094803F061FFEE
:1030A000AFE7FFF769FF01220449054803F059FF24
:1030B000A7E700BFB07C012059010020007C01205F
:1030C000006C012010B53B4B13F8B03CFA2B1AD022
:1030D000FB2B2DD0FC2B34D0F82B41D0EF2B49D833
:1030E00013F0800F4CD1334A12F8AD2C002A53D183
:1030F000304901F8B33C012201F8AD2CB0392E481B
:1031000003F02FFF10BD00232C4A13702C4A1370BC
:103110002C4A13702C4A13702C4B1A782C4B1A70B3
:10312000FEF7F8FE01222B49234803F01AFFE9E7D6
:10313000224B00221A70012226491F4803F011FF7A
:10314000E0E701241D4B1C702348FEF7D4FA234806
:10315000FEF7D1FA22461F49174803F002FFD1E7D4
:10316000174A13780133137001221A49124803F0E9
:10317000F8FEC7E7012217490F4803F0F2FEC1E746
:103180000C4901F8B43C002301F8AD3C0122B039F0
:10319000094803F0E6FEB5E70649002201F8AD2C28
:1031A00001F8B23C0122B039034803F0DAFEFFF720
:1031B0000FFFA7E7B07C0120006C01205701002021
:1031C0003C01002038010020310100204001002096
:1031D00010000020007C0120E0000020FC00002006
:1031E0003F2803D9034B01225A707047014B00223C
:1031F0005A7070471000002070B59AB0302200213C
:103200000EA804F03BF8002409940A940B940C9443
:103210000D940394049405940694079408940194DF
:103220001F4B1A6C42F080521A641B6C03F08053DF
:103230000193019B02941B4B1A6842F440421A60AE
:103240001B6803F440430293029B01260E964FF441
:1032500080330F93022514954FF4800315930C23AC
:103260001693602317931895042319930EA803F05F
:103270000BF90F2309930A950B944FF480530C9389
:103280000D94032109A803F047FB0396C22305937D
:1032900010230493069503A803F014FC1AB070BD24
:1032A000003802400070004008B502F0CBF9FFF78B
:1032B000A3FFFFF739FCFFF76BFCFFF751FCFFF7AB
:1032C00081FC01F06DFF2A4C204602F045FD4FF4D1
:1032D000FA6204F18801204602F00EFE254C00231C
:1032E00004F8B33C2448FEF706FAFEF771FD02F03D
:1032F000CFF944F8AC0C1CE01E4B53F8AC3CC31A9D
:1033000007EE903AB8EE677A1C4B1B8807EE903AAE
:10331000F8EEE77A1A4BD3ED006A67EEA67AB4EEC0
:10332000E77AF1EE10FA1DDC01221649164803F087
:1033300018FE164B1B78002BF6D002F0A9F90D4BA6
:1033400043F8A80C124B1B78002BD5D0114B1A78E0
:10335000114B1B789A42E7D10E4B00221A70FEF7F0
:10336000D9FDE1E7034B43F8AC0CFEF7D3FDDBE7F7
:10337000B86B0120B07C0120E00000203401002067
:103380002C010020007C0120006C0120590100204C
:10339000330100203C01002036010020704730EE50
:1033A000600A32EE612A20EE020A71EE600AC0EE77
:1033B000207A37EEA10A704708B52DED068BF0EEA6
:1033C000409AB0EE60AAF0EE418AB0EE619AB0EE9B
:1033D000428AF2EE047AF4EEE72AF1EE10FA01DD09
:1033E000F0EE672AFAEE047AF4EEE72AF1EE10FA2C
:1033F00001D5F0EE672A12EE900AFDF7A5F825A395
:10340000D3E90023FDF7F8F8FDF790FB00EE900AF2
:10341000B2EE040A05F056F8F0EE400AB4EEE98A7E
:10342000F1EE10FA01D5B0EE698AB4EECA8AF1EE77
:1034300010FA01DDB0EE4A8A7AEE697AB4EEE89AC3
:10344000F1EE10FA13DD39EE689A002338EE698A3E
:1034500088EE270AF4EECA9AF1EE10FA12DC53B99C
:1034600005F030F820EE099A39EE280A0CE038EE23
:10347000C99A0123EAE705F025F820EE099A38EE0B
:10348000C90A01E09FED020ABDEC068B08BD00BF32
:10349000000000009A9999999999B9BF80ED000AA6
:1034A00080ED010A002303734373C0ED020A002379
:1034B0000361036283614FF07E53C361704780ED07
:1034C000020A704708B5A0F10A0302EE103AF7EEBF
:1034D000002AB8EEC22ADFED081A9FED081ADFEDC8
:1034E000080A9FED080AFFF767FFFDEEC07A17EEA6
:1034F000903A054A137008BD00004042000040C2E7
:103500000000FE42000000006C7C012008B50A4B60
:10351000D3ED040A094B93F9003007EE903AF8EE28
:10352000E77A60EEA77AF2EE080AC7EEA00AB0EEDC
:10353000000A04F0C7FF08BD140100206C7C0120C4
:1035400008B50A4BD3ED040A094B93F9003007EE96
:10355000903AF8EEE77A60EEA77AF2EE080AC7EE44
:10356000A00AB0EE000A04F0ADFF08BDFC00002088
:103570006C7C012008B53F3807EE900AF8EEE77A38
:10358000DFED050AC7EEA00AB0EE000A04F09AFFCC
:10359000024B83ED000A08BD00007C4218000020A9
:1035A00008B53F3807EE900AF8EEE77ADFED050A36
:1035B000C7EEA00AB0EE000A04F084FF024B83EDD0
:1035C000010A08BD00007C421800002008B507EE83
:1035D000900AF8EEE77A9FED060A27EE800A04F0DB
:1035E000CDFEFCEEC07A17EE903A024A537008BD49
:1035F0008542213D6C7C012008B507EE900AF8EE6B
:10360000E77A9FED060A27EE800A04F0B7FEFCEE8B
:10361000C07A17EE903A024A937008BD8542213D68
:103620006C7C012010B52DED028B044605E09FED6A
:10363000327A77EE877AC4ED047AD4ED047AF5EE27
:10364000C07AF1EE10FAF2D405E09FED2B7A77EE16
:10365000C77AC4ED047AD4ED047A9FED277AF4EEAC
:10366000C77AF1EE10FAF0DA9FED247AF4EEC77A19
:10367000F1EE10FA02D5224BDB78E3B194ED047A37
:10368000DFED1E7AB4EEE77AF1EE10FA02DD1C4BA4
:10369000DB7803BBD4ED027A9FED1A7A27EE877AA6
:1036A000D4ED047A77EE877AC4ED047A94ED080AB3
:1036B000BDEC028B10BD94ED008AF1EE000A9FED87
:1036C000120A01F017FC28EE008A84ED088A0C4BE0
:1036D0000122DA70D2E794ED008AF8EE080A9FED35
:1036E0000A0A01F007FC28EE008A84ED088A044BE0
:1036F0000022DA70CEE700BFDB0FC940DB0F494084
:103700006C7C01202FE34D390000000005E09FEDA7
:10371000257A77EE877AC0ED047AD0ED047AF5EE5B
:10372000C07AF1EE10FAF2D405E09FED1E7A77EE42
:10373000C77AC0ED047AD0ED047A9FED1A7AF4EEE0
:10374000C77AF1EE10FAF0DA9FED177AF4EEC77A45
:10375000F1EE10FA16D590ED007A9FED136AC7EEE0
:10376000866A27EE267A80ED087A90ED027ADFED00
:103770000F6A27EE267A77EE877AC0ED047A90ED0D
:10378000080A704790ED007A9FED076AC7EE866AD7
:10379000B0EE006A76EEC66A27EE267A80ED087AE9
:1037A000E3E700BFDB0FC940DB0F49402FE34D3992
:1037B00005E09FED257A77EE877AC0ED047AD0EDAB
:1037C000047AF5EEC07AF1EE10FAF2D405E09FED3E
:1037D0001E7A77EEC77AC0ED047AD0ED047A9FEDB9
:1037E0001A7AF4EEC77AF1EE10FAF0DA9FED177A52
:1037F000F4EEC77AF1EE10FA16D5D0ED006AB0EE0D
:10380000476A87EE867A27EE667A80ED087A90ED31
:10381000027ADFED0F6A27EE267A77EE877AC0ED1F
:10382000047A90ED080A7047D0ED006A9FED076AB0
:1038300087EE867AB0EE006A37EE467A27EE667A31
:1038400080ED087AE3E700BFDB0FC940DB0F49409A
:103850002FE34D3905E09FED277A77EE877AC0EDAB
:10386000047AD0ED047AF5EEC07AF1EE10FAF2D4D3
:1038700005E09FED207A77EEC77AC0ED047AD0EDAF
:10388000047A9FED1C7AF4EEC77AF1EE10FAF0DAC2
:103890009FED197AF4EEC77AF1EE10FA1AD5D0ED51
:1038A000006A9FED167A27EE877AB7EE006A37EE48
:1038B000067A26EE877A80ED087A90ED027ADFEDBF
:1038C000106A27EE267A77EE877AC0ED047A90EDBB
:1038D000080A7047D0ED006A9FED0A7A27EE877AD2
:1038E000B7EE006A37EE467A26EE877A80ED087AE0
:1038F000E3E700BFDB0FC940DB0F494083F9A2BEFD
:103900002FE34D3983F9A23E05E09FED1B7A77EE58
:10391000877AC0ED047AD0ED047AF5EEC07AF1EE44
:1039200010FAF2D405E09FED147A77EEC77AC0ED75
:10393000047AD0ED047A9FED107AF4EEC77AF1EEB6
:1039400010FAF0DA90ED000ADFED0C6A87EEA67A45
:1039500020EE070AB6EE007A20EE070A80ED080A8C
:1039600090ED027ADFED066A27EE267A77EE877A07
:10397000C0ED047A704700BFDB0FC940DB0F494040
:103980002FE34D3905E09FED1C7A77EE877AC0ED85
:10399000047AD0ED047AF5EEC07AF1EE10FAF2D4A2
:1039A00005E09FED157A77EEC77AC0ED047AD0ED89
:1039B000047A9FED117AF4EEC77AF1EE10FAF0DA9C
:1039C0000DD5D0ED006A9FED0D7A27EE877AB7EE20
:1039D000006A37EE067A26EE877A80ED087A90ED57
:1039E000027ADFED076A27EE267A77EE877AC0ED56
:1039F000047A90ED080A7047DB0FC94083F922BEB4
:103A00002FE34D3905E09FED1B7A77EE877AC0ED05
:103A1000047AD0ED047AF5EEC07AF1EE10FAF2D421
:103A200005E09FED147A77EEC77AC0ED047AD0ED09
:103A3000047A9FED107AF4EEC77AF1EE10FAF0DA1C
:103A40009FED0D7AF4EEC77AF1EE10FA0ED5036809
:103A5000036290ED027ADFED096A27EE267A77EEAF
:103A6000877AC0ED047A90ED080A7047044B036230
:103A7000EFE700BFDB0FC940DB0F49402FE34D39B3
:103A80006F12833A10B52DED028B044605E09FEDD1
:103A9000327A77EE877AC4ED047AD4ED047AF5EEC3
:103AA000C07AF1EE10FAF2D405E09FED2B7A77EEB2
:103AB000C77AC4ED047AD4ED047A9FED277AF4EE48
:103AC000C77AF1EE10FAF0DA9FED247AF4EEC77AB5
:103AD000F1EE10FA02D5224BDB78E3B194ED047AD3
:103AE000DFED1E7AB4EEE77AF1EE10FA02DD1C4B40
:103AF000DB7803BBD4ED027A9FED1A7A27EE877A42
:103B0000D4ED047A77EE877AC4ED047A94ED080A4E
:103B1000BDEC028B10BD94ED008AF7EE000A9FED1C
:103B2000120A01F0E7F928EE008A84ED088A0C4BAE
:103B30000122DA70D2E794ED008AF7EE000A9FEDD9
:103B40000A0A01F0D7F928EE008A84ED088A044BAE
:103B50000022DA70CEE700BFDB0FC940DB0F49401F
:103B60006C7C01202FE34D399A99193E10B52DED4B
:103B7000028B044605E09FED217A77EE877AC4ED4B
:103B8000047AD4ED047AF5EEC07AF1EE10FAF2D4AC
:103B900005E0DFED1A7A30EE670A84ED040A94ED51
:103BA000040ADFED167AB4EEE70AF1EE10FAF0DA65
:103BB00094ED008ADFED127A20EE270AF6EE008AF5
:103BC00020EE280A04F09AFB0E4B03EB800393EDE2
:103BD000000A28EE000A30EE280A84ED080AD4ED27
:103BE000027A9FED097A27EE877AD4ED047A77EE90
:103BF000877AC4ED047ABDEC028B10BDDB0FC9409F
:103C000083F92243C46C01082FE34D3908B5052818
:103C10001CD8DFE800F003070B0F13170846FFF767
:103C200019FE08BD0846FFF76FFEFAE70846FFF7E2
:103C3000A9FEF6E70846FFF7E5FEF2E70846FFF7BC
:103C400021FFEEE70846FFF791FFEAE79FED010A43
:103C5000E7E700BF0000000005E09FED257A77EE62
:103C6000877AC0ED047AD0ED047AF5EEC07AF1EEF1
:103C700010FAF2D405E09FED1E7A77EEC77AC0ED18
:103C8000047AD0ED047A9FED1A7AF4EEC77AF1EE59
:103C900010FAF0DA9FED177AF4EEC77AF1EE10FA27
:103CA00016D590ED007A9FED136AC7EE866A27EE6F
:103CB000267A80ED087A90ED027ADFED0F6A27EE22
:103CC000267A77EE877AC0ED047A90ED080A70477D
:103CD00090ED007A9FED076AC7EE866AB0EE006A43
:103CE00076EEC66A27EE267A80ED087AE3E700BF13
:103CF000DB0FC940DB0F49402FE34D3905E09FED55
:103D00001D7A77EE877AC0ED047AD0ED047AF5EE6D
:103D1000C07AF1EE10FAF2D405E09FED167A77EE54
:103D2000C77AC0ED047AD0ED047A9FED127AF4EEF2
:103D3000C77AF1EE10FAF0DA90ED000AB6EE007AEA
:103D400020EE077ADFED0C6A87EEA60AF7EE006A2E
:103D500030EE660A20EE470A80ED080A90ED027AFE
:103D6000DFED066A27EE267A77EE877AC0ED047AD1
:103D7000704700BFDB0FC940DB0F49402FE34D39CF
:103D800005E09FED277A77EE877AC0ED047AD0EDD3
:103D9000047AF5EEC07AF1EE10FAF2D405E09FED68
:103DA000207A77EEC77AC0ED047AD0ED047A9FEDE1
:103DB0001C7AF4EEC77AF1EE10FAF0DA9FED197A78
:103DC000F4EEC77AF1EE10FA1AD5D0ED006A9FED45
:103DD000167A27EE877AB7EE006A37EE067A26EE75
:103DE000877A80ED087A90ED027ADFED106A27EE8F
:103DF000267A77EE877AC0ED047A90ED080A70474C
:103E0000D0ED006A9FED0A7A27EE877AB0EE086A55
:103E100037EE467A26EE877A80ED087AE3E700BF30
:103E2000DB0FC940DB0F494083F922BF2FE34D3937
:103E300083F9223F05E09FED1D7A77EE877AC0ED8A
:103E4000047AD0ED047AF5EEC07AF1EE10FAF2D4ED
:103E500005E09FED167A77EEC77AC0ED047AD0EDD3
:103E6000047A9FED127AF4EEC77AF1EE10FAF0DAE6
:103E70009FED0F7AF4EEC77AF1EE10FA0ED50368D3
:103E8000036290ED027ADFED0B6A27EE267A77EE79
:103E9000877AC0ED047A90ED080A704790ED007AB9
:103EA000B1EE477A80ED087AEBE700BFDB0FC9403F
:103EB000DB0F49402FE34D3910B52DED028B044641
:103EC00005E09FED1A7A77EE877AC4ED047AD4ED97
:103ED000047AF5EEC07AF1EE10FAF2D405E0DFEDE7
:103EE000137A38EE678A84ED048A94ED048ADFED54
:103EF0000F7AB4EEE78AF1EE10FAF0DAB0EE480A83
:103F000004F09AFAD4ED007A27EE800A84ED080ACC
:103F1000D4ED027A9FED067A67EE877A38EE278A2B
:103F200084ED048ABDEC028B10BD00BFDB0FC940DD
:103F30002FE34D3908B505281CD8DFE800F003074A
:103F40000B0F13170846FFF71BFF08BD0846FFF7C6
:103F5000DDFBFAE70846FFF72BFCF6E70846FFF71C
:103F600069FFF2E70846FFF75DFBEEE70846FFF75B
:103F7000A3FFEAE79FED010AE7E700BF00000000AA
:103F800005E09FED377A77EE877AC0ED047AD0EDC1
:103F9000047AF5EEC07AF1EE10FAF2D405E09FED66
:103FA000307A77EEC77AC0ED047AD0ED047A9FEDCF
:103FB0002C7AF4EEC77AF1EE10FAF0DA90ED027A8C
:103FC000DFED286AB4EEE67AF1EE10FA32D5DFEDD5
:103FD000266A67EE266AC0ED056A90ED056ADFED98
:103FE000236AB4EEE66AF1EE10FA01D8C0ED056A74
:103FF000D0ED056AF4EEE67AF1EE10FA1DD5D0EDBB
:10400000005AB8EE005A85EE266A67EE866AB7EE69
:10401000006A76EE866A65EEA66AC0ED086ADFED94
:10402000146A27EE267A77EE877AC0ED047A90ED4F
:10403000080A70470F4B4361CFE790ED005A37EE07
:10404000A76ADFED075A36EE656A36EE666A25EE38
:10405000066A75EEE66AC6EE265AC0ED085ADEE735
:10406000DB0FC9400000FA452EE3CD3917B7D13830
:104070002FE34D39DB0F494010B52DED028B04467F
:1040800005E09FED537A77EE877AC4ED047AD4ED9C
:10409000047AF5EEC07AF1EE10FAF2D405E0DFED25
:1040A0004C7A38EE678A84ED048A94ED048ADFED59
:1040B000487AB4EEE78AF1EE10FAF0DA454BD3ED28
:1040C000018A18EE900AFCF73FFA3FA3D3E90023D8
:1040D000FCF722FD30B1B4EEE88AF1EE10FA2ED5ED
:1040E00023682362F5EE408AF1EE10FA07D1394BCE
:1040F000D3ED027AF5EE407AF1EE10FA26D1354B87
:10410000D3ED017AF5EE407AF1EE10FA06D1D3ED57
:10411000027AF5EE407AF1EE10FA34D0D4ED027A5C
:104120009FED2D7A27EE877AD4ED047A77EE877AA1
:10413000C4ED047A94ED080ABDEC028B10BDD4EDF9
:10414000007AF1EE677AC4ED087ACBE703F1080054
:10415000FFF7B2FEB1EE082ADFED201AB7EE001A23
:10416000FFEE000AFFF71BF9B4EEC08AF1EE10FA79
:1041700002D523682362C2E7D4ED007AF1EE677AB4
:10418000C4ED087ABBE794ED048AB1EE082ADFEDAE
:10419000131AB7EE001ADFED120A124B93ED040A60
:1041A000FFF7FDF8B4EEC08AF1EE10FA02D52368ED
:1041B0002362B3E7D4ED007AF1EE677AC4ED087AB2
:1041C000ACE700BFAFF300807B14AE47E17AC43F99
:1041D000DB0FC9406C7C01202FE34D399A99193EC1
:1041E00000000000FC00002070B52DED028B04469D
:1041F000B0EE408AC64BD3ED008A60EE288AFFF706
:1042000085F928EE800AC348FFF759F90E2C00F211
:104210006A82DFE814F00F009300A000AB00B60044
:10422000C100CC00D700F60029014A017001A101AC
:10423000C001E101B84B01221A70B84BD3ED027AEC
:10424000F5EE407AF1EE10FA06D0D3ED017AF5EEF4
:10425000407AF1EE10FA25D0B04BD3ED027AF5EEAC
:10426000407AF1EE10FA06D1D3ED017AF5EE407AFC
:10427000F1EE10FA3AD0A94BD3ED0F7AA84B93ED9B
:10428000007AF4EEC77AF1EE10FA07DDA54B93ED54
:10429000007AF4EEC77AF1EE10FA4BD49D48FFF79E
:1042A0002DFD55E01C4603F10800FFF705FE9FEDCC
:1042B0009E8A9FED9E2AF0EE481AB7EE001AFFEE96
:1042C000000AFFF76CF8964B83ED000A9FED982AE1
:1042D000F0EE481AB7EE001AFFEE000A94ED0A0A53
:1042E000FFF75DF88F4B83ED000AB5E7DFED8E8AAF
:1042F0009FED908A904C9FED8D2AF0EE681AB7EEF4
:10430000001AF0EE480A94ED040AFFF748F8844BCF
:1043100083ED000A9FED862AF0EE681AB7EE001AC8
:10432000F0EE480A94ED040AFFF739F87D4B83ED6F
:10433000000AA0E77748FFF78FFC09E0764B0122DF
:104340001A707448FFF788FCF6EE007A20EE270A10
:10435000BDEC028B70BD704B01221A706D48FFF7E7
:1043600069FDF6EE007A20EE270AF1E76A4B01229A
:104370001A706848FFF704FDF6EE007A20EE270A6F
:10438000E6E7654B00221A706248FFF795FDF6EEEE
:10439000007A20EE270ADBE75F4B01221A705D48A6
:1043A000FFF7EEFDF6EE007A20EE270AD0E75A4B33
:1043B00001221A705748FFF75FFEF6EE007A20EEF2
:1043C000270AC5E7544B00221A705C4B93ED037A21
:1043D000DFED5B7AB4EEE77AF1EE10FA01D5C3EDCA
:1043E000037A4E4B93ED0B8ADFED560A9FED560A8A
:1043F00000F080FD28EE000AF6EE007A20EE270A93
:10440000A6E7454B01221A70444CD4ED148A68EE9D
:10441000288AFFF77BF804F1540628EE800A30461C
:10442000FFF74DF8D4ED1E7A28EE278AFFF76EF8D5
:1044300004F17C0528EE000A2846FFF740F804F155
:104440002C00FFF79DFDB0EE408A3046FFF798FD47
:1044500038EE008A2846FFF793FD38EE000ADFEDBC
:104460003B7A20EE270A73E72B4B01221A702B4C64
:10447000D4ED1E7A28EE278AFFF748F804F1540598
:1044800028EE000A2846FFF71AF804F12C00FFF77F
:1044900077FDB0EE408A2846FFF772FD38EE000A3D
:1044A000F6EE007A20EE270A52E71B4B01221A7023
:1044B000FFF72CF820EE088A254B83ED038A174B73
:1044C000D3ED027AF5EE407AF1EE10FA06D0D3ED94
:1044D000017AF5EE407AF1EE10FA03D01C48FEF7AF
:1044E0001FF835E71C4603F10800FFF7E5FCA26A58
:1044F000174B1A61F2E7084B01221A70FFF706F812
:1045000020EE088A134880ED038AFDF711FE1FE7AD
:1045100018000020987C01200C7E01206C7C01207A
:10452000807D0120847D0120A3234940C3F5C83F3D
:1045300052B8964000000000FC000020BC000020A3
:10454000CDCC4C3DCDCC4C3FCDCC4CBFC3F5A83EE3
:104550005C010020B8060020644B00221A70644DF4
:10456000D5ED007A68EE277A624CC4ED037A2046D6
:10457000FDF7D6FFA369604C2361D5ED017A28EEE3
:10458000278AFEF7DDFF28EE008A84ED038A2046A5
:10459000FDF7CEFDDCE6554B00221A70554C00238A
:1045A0002361534ED6ED007A68EE277A524DC5ED61
:1045B000037A2846FDF7BCFD6B696361D6ED017A8D
:1045C00028EE278AFEF7BCFF28EE008A84ED038AD6
:1045D0002046FDF7A5FFBBE6444B01221A70FEF70B
:1045E00095FF20EE088A444B83ED038A434BD3EDBD
:1045F000027AF5EE407AF1EE10FA06D0D3ED017AA8
:10460000F5EE407AF1EE10FA25D03C4BD3ED027A6C
:10461000F5EE407AF1EE10FA06D1D3ED017AF5EE1F
:10462000407AF1EE10FA38D0334BD3ED067A344BA2
:1046300093ED007AF4EEC77AF1EE10FA07DD314B14
:1046400093ED007AF4EEC77AF1EE10FA47D42A48D7
:10465000FDF75EFE7CE61C4603F10800FFF72CFC2C
:104660009FED292AF6EE001AB7EE001AFFEE000AB7
:10467000FEF795FE224B83ED000AB7EE002AF6EE18
:10468000001AB0EE421AFFEE000A94ED0A0AFEF795
:1046900086FE1C4B83ED000AB7E79FED1B8A1B4C7F
:1046A000B6EE002AF0EE481AB7EE001AF0EE480A0D
:1046B00094ED040AFEF773FE114B83ED000AB6EE8B
:1046C000002AF7EE001AB0EE611AF0EE480A94EDF7
:1046D000040AFEF764FE0B4B83ED000AA4E70648CC
:1046E000FDF726FD34E69FED080A31E60C7E012039
:1046F000180000205C010020B80600206C7C01201E
:10470000807D0120847D012000000000FC0000204D
:1047100007EE100AB8EEC77ADFED046AC7EE267A14
:1047200067EEA77A024BC3ED007A70470000FE42A5
:10473000787D012007EE900AF8EEE77A9FED037A84
:1047400067EE877A024BC3ED027A70470683C13D5C
:10475000547D012008B507EE900AF8EEE77A9FED48
:10476000060A27EE800A03F009FEFCEEC07A17EE77
:10477000903A024A137108BD87C3E13D787D01205C
:1047800010B52DED048B0446484B1B79062B17D032
:1047900020B91BB9454A46499160D1600A2B25D002
:1047A00007EE904AB8EE678A424A82ED008A0CB161
:1047B0000E2B34D00CB1002B53D0BDEC048B10BDAC
:1047C000B1EE082ADFED3C1A9FED3C1ADFED3C0A02
:1047D00007EE900AB8EE670AFEF7E1FD354B83ED70
:1047E000000A002CE9D100221A60E6E7B7EE002AA1
:1047F000FFEE001A9FED311ADFED310A07EE904A05
:10480000B8EE670AFEF7CBFD2E4B83ED040A002CB1
:10481000D3D10023274A13602A4A1361CDE7DFED85
:10482000288A9FED269AB0EE682AF6EE001AB0EEBE
:10483000491AF0EE680AB0EE480AFEF7B0FD1B4CCC
:1048400084ED020AB7EE002AF6EE001AB0EE491A1D
:10485000F0EE680AB0EE480AFEF7A1FD84ED030A07
:10486000ABE7DFED199A9FED159ADFED158A9FED05
:10487000172AF0EE691AB0EE491AF0EE680AB0EEA7
:10488000480AFEF78CFD094C84ED020A9FED102AC0
:10489000F0EE691AB0EE491AF0EE680AB0EE480A76
:1048A000FEF77DFD84ED030A87E700BF787D0120D8
:1048B000A3234940707C01209A99193E0000FE42D2
:1048C000000000005C010020A3234940C3F5C83F5D
:1048D00052B8964008B500EE100ADFED1A0AB7EE9E
:1048E000002AF0EE601A9FED181AB8EE400AFEF7A3
:1048F00056FD164B83ED000AB5EE400AF1EE10FAB4
:1049000002D1134B00221A61B5EE400AF1EE10FA03
:1049100003D1104B1B790E2B08D0B5EE400AF1EEF7
:1049200010FA02D10B4B1B793BB108BD094B002299
:104930009A604FF07E52DA60F7E7064B064A9A60BB
:10494000DA60F2E7000000000000FE42747C012003
:104950005C010020787D0120A323494008B500EECA
:10496000100ADFED080AB2EE042AF0EE601A9FED9D
:10497000061AB8EE400AFEF712FD044B83ED020A58
:1049800008BD00BF000000000000FE42747C012052
:1049900008B502EE100A9FED090AF8EE082AB8EEF3
:1049A000422ADFED071AB0EE401ADFED060AFEF7E5
:1049B00003FD054B83ED000A08BD00BF00000000A9
:1049C000000000420000FE42307D012007EE900A08
:1049D000F8EEE77A9FED057A67EE877A044BC3ED30
:1049E000027A044BC3ED007A704700BF0683C13DD5
:1049F000307D0120F47B012007EE900AF8EEE77A83
:104A0000DFED036A87EEA67A024B83ED007A7047EA
:104A10000000FE420C7D012007EE900AF8EEE77AD6
:104A20009FED037A67EE877A024BC3ED027A7047F7
:104A30000683C13D0C7D012008B502EE100A9FEDF2
:104A4000090AFEEE002AB8EE422ADFED071AB0EEA0
:104A5000401ADFED060AFEF7AFFC054B83ED000AB6
:104A600008BD00BF00000000000016430000FE4229
:104A7000007E012008B52DED048B08EE100AB8EE7B
:104A8000488A9FED129ADFED128A9FED122AF7EE07
:104A9000001AB0EE491AF0EE680AB0EE480AFEF7C6
:104AA0007EFC0D4B83ED000A9FED0C2AF7EE001AF9
:104AB000B0EE491AF0EE680AB0EE480AFEF76FFC55
:104AC000074B83ED000ABDEC048B08BD0000FE42DD
:104AD0000000000067F3773FBC7C0120286B813F1A
:104AE000E47C01203F2803D9034B01221A7470474C
:104AF000014B00221A747047787D012008B500EE42
:104B0000100AB7EE002ADFED071A9FED071ADFED56
:104B1000070AB8EE400AFEF742FC054B83ED050A92
:104B200008BD00BF000000420000FE42000000007F
:104B3000787D012008B500EE100ADFED080AB0EE1E
:104B4000602AFAEE041A9FED061AB8EE400AFEF744
:104B500026FC044B83ED060A08BD00BF00000000E0
:104B60000000FE42787D012008B500EE100ADFED5E
:104B7000080AB3EE002AF0EE601A9FED061AB8EEAE
:104B8000400AFEF70CFC044B83ED000A08BD00BF91
:104B9000000000000000FE422000002038B52DED8E
:104BA000048B08EE900AF8EE688A204C9FED209A5C
:104BB0009FED208A94ED072ADFED1F1AB0EE491A07
:104BC000F0EE480AB0EE680AFEF7E9FB84ED080A49
:104BD000B7EE002AF0EE481AB0EE491AF0EE480A95
:104BE000B0EE680AFEF7DBFB84ED090A134DB7EE61
:104BF000002AD5ED011AB0EE421AF0EE480AFEF78F
:104C0000CEFB84ED0A0AF8EE082A94ED092AF7EEA5
:104C1000001A95ED021AF0EE610AB0EE480AFEF7AE
:104C2000CBFB84ED0B0ABDEC048B38BD787D0120F5
:104C30000000FE4200000000CDCCCC3D2000002052
:104C400008B500EE100A9FED082AF7EE001A9FED56
:104C5000071ADFED070AB8EE400AFEF7A0FB054B86
:104C600083ED010A08BD00BF6F12833A0000FE42C7
:104C7000000000002000002008B500EE100A9FEDA3
:104C8000082AF7EE001A9FED071ADFED070AB8EEC3
:104C9000400AFEF784FB054B83ED020A08BD00BF06
:104CA0006F12833A0000FE42000000002000002046
:104CB00010B50446DFED0D0AB2EE042AF0EE601ADC
:104CC0009FED0B1A07EE900AB8EE670AFEF767FB36
:104CD000084B83ED070A1CB9002283F8302010BD71
:104CE000044B012283F83020F9E700BF00000000E8
:104CF0000000FE42787D0120F0EE406A084BD3EDC3
:104D0000007A20EE677A03EB800393ED010A37EE19
:104D1000000A67EE807A77EEA67AC3ED017A7047D3
:104D2000B07D0120094B0A4ADA610A4A1A620A4A2E
:104D30005A624FF07C529A62084ADA62084A1A6351
:104D4000084A5A63084A9A63704700BFB07D012041
:104D50000000484300002F459A99193E9A99193F3F
:104D6000CDCC4C3C3333333E9F10F7373F2804D92A
:104D7000044B012283F83C207047024B002283F849
:104D80003C207047B07D012007EE900AF8EEE77AEC
:104D90009FED087A67EE877A9FED077A77EE877A3C
:104DA000064BC3ED097A9FED067A67EE877AC3ED6D
:104DB0000E7A7047661E613D0AD7A33CB07D012084
:104DC0002FE34D3907EE900AF8EEE77A9FED057A6A
:104DD00067EE877ADFED046A87EEA67A034B83EDF0
:104DE0000A7A704777BE7F3F0000FE42B07D012007
:104DF00007EE900AF8EEE77ADFED036A87EEA67A0F
:104E0000024B83ED0B7A70470000FE42B07D01201B
:104E100010B52DED028BF0EE408A324C94ED0D8AE8
:104E2000D4ED0C7A38EE678A94ED100ADFED2E7A15
:104E300020EE270A03F062FA2C4B03EB8003D3ED3C
:104E4000007AB7EE007A77EE877AB6EE007A67EEF0
:104E5000877A68EE277A94ED0C7A77EE877A94ED6C
:104E6000107AD4ED0E6A37EE267A84ED107ADFEDF3
:104E7000206AB4EEE67AF1EE10FA03DB37EE667ADA
:104E800084ED107AB7EE007A77EE676A77EE877A6C
:104E900086EEA77A134B83ED007A93ED110AD3EDDA
:104EA0000A7A20EE270A002030EE280AFFF724FFB6
:104EB000012403E02046FFF71FFF0134052CF9DD34
:104EC000084B83ED110A93ED0B7AF7EE007A77EE3B
:104ED000C77A67EEA87A27EE000A37EE800ABDECA3
:104EE000028B10BDB07D012083F92243C46C010800
:104EF000DB0FC94008B52DED028BF0EE408AB0EE15
:104F0000608A02F0C3F907EE900AF8EEE77ADFED67
:104F1000060A67EEA07A78EE680A67EEA00A30EE1D
:104F2000A80ABDEC028B08BD0000003082B0002151
:104F300000910B4B5A6C42F480425A645A6C02F452
:104F400080420092009A01911A6C42F080521A64D9
:104F50001B6C03F080530193019B02B0704700BFAC
:104F60000038024030B589B00023039304930593C1
:104F7000069307930268264B9A4201D009B030BDD0
:104F800004460025019503F584335A6C42F480529F
:104F90005A645A6C02F480520192019A02951A6B7B
:104FA00042F001021A631B6B03F001030293029BA0
:104FB000B0230393022304930523079303A9154801
:104FC00000F0F4FD1448154B03604FF0806343601C
:104FD00040238360C5604FF4806303614FF4006336
:104FE00043614FF4005383614FF48073C3610562E2
:104FF0000423436203238362C562056300F03AFC25
:1050000018B9054BA3639C63B8E7FEF7C7F9F8E747
:1050100000300140000002400C7C0120406402404E
:1050200010B588B000230393049305930693079368
:105030000268184B9A4201D008B010BD00240194B8
:1050400003F5FA331A6C42F400321A641A6C02F453
:1050500000320192019A02941A6B42F001021A6323
:105060001B6B03F001030293029B0C2303930223A7
:105070000493032306930723079303A9064800F02C
:1050800095FD22462146262000F01AFB262000F03E
:105090004FFBD1E700440040000002407047FEE7AC
:1050A000FEE7FEE7FEE770477047704708B500F07F
:1050B000E3FA08BD08B5024801F0E2FF08BD00BFF1
:1050C000006C012008B5024800F082FC08BD00BF5A
:1050D0000C7C01200120704708B502F097F81623D8
:1050E00003604FF0FF3008BD08B54FF0FF31FFF708
:1050F000F3FFFEE770B50C461646002506E0AFF359
:105100000080214601F8010B01350C46B542F6DB63
:10511000304670BD70B50C461646002504E014F804
:10512000010BAFF300800135B542F8DB304670BDAE
:1051300008B503460B4A126842B10A4A1068034494
:105140006A46934206D8074A136008BD054A0649D5
:105150001160F2E702F05AF80C2303604FF0FF30C1
:10516000F3E700BFF87D0120287E01204FF0FF30DB
:1051700070474FF400534B60002070470120704788
:1051800000207047054BD3F8882042F47002C3F822
:1051900088204FF000629A60704700BF00ED00E089
:1051A00008B52DED028B6820FFF7B2FA2D4B0822CF
:1051B0001A700F20FFF75EFC1320FDF729FC2A4828
:1051C000FCF786FA2948FCF783FA2948FCF780FAAD
:1051D000DFED288A9FED288AF0EE680AB0EE480AD3
:1051E0002648FEF75BF9F0EE680AB0EE480A24485C
:1051F000FEF754F9F0EE680AB0EE480A2148FEF7CF
:105200004DF9F2EE040A9FED200A2048FEF746F918
:10521000FBF75EFE1E4B1F4A1A605A20FBF78CFEFE
:105220001D4B83ED008A1D4A9A600020FCF794FB19
:105230001B4B01221A70FDF777FB1A4B00221A70E4
:10524000FFF770FD5420FFF759FC3B20FFF772FC7D
:105250001548FCF755FF1548FDF748F9BDEC028BE2
:1052600008BD00BF7C7D0120E0000020FC00002084
:10527000140100200000F642CDCC4C3F987C012068
:10528000C07C0120E87C012000000000547D01204A
:10529000D4000020CDCC8C3D747C01209A99993E9D
:1052A0000C0C0020EC7D0120B80600205C010020E1
:1052B000F8B52DED028B07460E46AF4BD3ED007AC5
:1052C000F5EE407AF1EE10FA08D1AC4B1B7807EE00
:1052D000103AB8EE477AAA4B83ED007AF5EE407AA1
:1052E000F1EE10FA10D0A64BD3ED006AA34A127863
:1052F00007EE102AB8EEC77A37EE667A87EE276A8D
:1053000076EE866AC3ED006A9D4B93ED007ADFED81
:105310009D7A77EE677A17EE900AFBF715F994A35A
:10532000D3E90023FBF768F9FBF700FC00EE900AD5
:10533000B0EE000A03F0C6F810EE100AFBF704F90D
:105340000022914BFBF758F904460D468F4B186825
:10535000FBF7FAF822462B46FBF74EF9FBF7E6FB84
:1053600008EE900A844C6060894BD3ED087AB7EE62
:10537000008A77EE887A68EEA78A8648FCF774FB85
:10538000854BD3ED007A20EE270A844BD3ED087AC3
:1053900077EE887A20EE270A84ED020A94F90C3021
:1053A00073BB7F4B1B787BBB7E4B4FF07E521A60EA
:1053B0007D4B93ED088AF7EE007A38EE278A7B4B17
:1053C00093ED000A28EE008A7948FCF74DFB794BF3
:1053D000D3ED007A20EE270ADFED777A30EE270A48
:1053E00028EE008A6F4B93ED000A28EE008A734B7B
:1053F00093ED000A28EE000AFBF7D2FD00247AE0C4
:105400006F48FCF7EDFBCCE75C4B1B7802EE103AE3
:105410009FED6C0A6C4BD3ED002AB8EE422AF7EEF2
:10542000001AB0EE401ADFED690AFDF7C5FF684BC0
:10543000D3ED007A20EE270A5A4B83ED000AB7E736
:105440005649FEF777FD68E054490020FEF772FDEB
:1054500067E055495F4B1878FEF7D8FB5E4BD3EDFC
:10546000007A454B93ED020A67EE807A27EE880AB0
:105470005A4B1B78002B61D1594B1B78002B60D104
:10548000584B1B78002B5FD1F0EE407AB7EE007AD4
:10549000B4EEC70AF1EE10FA01DDB0EE470ABFEE36
:1054A000007AB4EEC70AF1EE10FA56D4B7EE007ADD
:1054B000F4EEC77AF1EE10FA01DDF0EE477ABFEEB6
:1054C000007AF4EEC77AF1EE10FA49D49FED467AED
:1054D00020EE070ABDEEC00A67EE877AFDEEE77A96
:1054E0003B4610EE102A23F8042B17EE902A7A8000
:1054F0000134A4B21F46B44235D23C4D2449287829
:10550000FEF718FDB0EE680A394B1878FEF76CFE0E
:10551000B0EE408A2878042892D1344B1B78042BB3
:1055200092D0324B1B78042B93D12A4B1B78042B3F
:105530008FD11D490320FEF769FB8FE7FBF79EFD26
:105540009AE7FFF765FC9BE7FDF76CFA294B93EDB3
:10555000000A294BD3ED007A98E7B0EE470AA5E799
:10556000F0EE477AB2E7BDEC028BF8BDAFF30080F6
:10557000694B04475555B53F007E012010000020BF
:105580003000002000008A4200807B401400002090
:10559000547D0120E0000020A07D01200C7D012031
:1055A000887D0120AC7D0120307D0120D4000020C9
:1055B000FC000020200000200AD7233CA47D01200D
:1055C0001401002000000000907D01200000FE4238
:1055D0008C7D01206E7C0120787D0120BC000020A4
:1055E000EC7D01200C0C002000FEFF466D7C0120AC
:1055F0007C7D0120140C00201C0C002010B50446FA
:105600000E4B18784FF47A73B3FBF0F30C4A106822
:10561000B0FBF3F000F09AF868B90F2C01D9012023
:105620000AE0002221464FF0FF3000F049F8034B1A
:105630005C60002000E0012010BD00BF34000020AD
:105640002C00002008B50B4B1A6842F400721A6057
:105650001A6842F480621A601A6842F480721A6012
:10566000032000F01BF80020FFF7C8FFFFF75EFCE7
:10567000002008BD003C0240034A1168034B1B7820
:105680000B441360704700BF107E012034000020DF
:10569000014B1868704700BF107E0120074AD3688D
:1056A00023F4E0631B041B0C000200F4E0600343DE
:1056B00043F0BF6343F40033D360704700ED00E074
:1056C00000B5194BDB68C3F30223C3F1070CBCF12F
:1056D000040F28BF4FF0040C03F1040EBEF1060FB7
:1056E00018D9033B4FF0FF3E0EFA0CFC21EA0C01E7
:1056F00099400EFA03F322EA0303194300280BDB57
:105700000901C9B200F1604000F5614080F8001362
:105710005DF804FB0023E5E700F00F000901C9B2C2
:10572000024B1954F4E700BF00ED00E014ED00E077
:10573000002807DB00F01F02400901239340024AC2
:1057400042F82030704700BF00E100E00138B0F1BE
:10575000807F0BD24FF0E0235861054AF02182F898
:1057600023100020986107221A61704701207047BA
:1057700000ED00E030B405682C6824F480242C602F
:10578000046863608368402B05D0036899600368F0
:10579000DA6030BC704703689A600368D960F8E744
:1057A00010B40368D9B210390C4AA2FB01421209A5
:1057B0000B4CA25CC2655F2909D923F47F7323F0E7
:1057C000030304338365806D5DF8044B704723F455
:1057D0007F7323F003038365F5E700BFABAAAAAA92
:1057E000E07C0108836A826992B9012B0AD0022BFE
:1057F00002D00BB100207047C36A13F0807F28D11C
:1058000000207047C36AB3F1C07F24D000207047E6
:10581000B2F5005F09D0022B25D9032B25D1C36A2D
:1058200013F0807F23D100207047032B03D8DFE8DB
:1058300003F01404140A00207047C36A13F0807F39
:105840000DD100207047C36AB3F1C07F09D000209A
:1058500070470120704701207047012070470120E8
:1058600070470120704701207047002070470120D9
:105870007047000070B50446FFF70AFF002C5BD0AC
:105880000546002384F83430022384F8353022683A
:10589000136823F00103136023681A6812F0010FE4
:1058A0000AD0FFF7F5FE431B052BF5D920236365CE
:1058B000032084F8350070BD1A68204810406168E4
:1058C000A2680A43E1680A4321690A4361690A43FD
:1058D000A1690A43E1690A43216A0A430243616AF2
:1058E00004291ED01A602668756925F00705636AC9
:1058F0001D43042B07D1A36A1D43E36A1BB1204655
:10590000FFF770FF90B975612046FFF749FFE26D20
:105910003F239340836000206065012384F8353085
:10592000C9E7E16A206B01430A43DBE74023636573
:10593000012084F83500BEE70120BCE73F8010F06D
:1059400038B50446856D90F8340001282BD001202D
:1059500084F8340094F83500C0B2012804D0002344
:1059600084F83430022038BD022084F8350000204D
:1059700060652046FFF7FEFEE26D3F239340AB607B
:105980002268136843F016031360236C23B1226866
:10599000136843F0080313602268136843F001039F
:1059A00013600020DFE70220DDE790F83530DBB23E
:1059B000022B03D08023436501207047052380F824
:1059C00035300268136823F001031360002070472C
:1059D000F0B583B0044600230193724B1D68724BEF
:1059E000A3FB0535AD0A876D3E68C26D0823934061
:1059F000334210D003681A6812F0040F0BD01A68F3
:105A000022F004021A60C26D08239340BB60436D0C
:105A100043F001034365E26D01239340334209D013
:105A20002268526912F0800F04D0BB60636D43F0AE
:105A300002036365E26D04239340334209D0226878
:105A4000126812F0020F04D0BB60636D43F00403D0
:105A50006365E26D10239340334224D022681268BC
:105A600012F0080F1FD0BB6023681A6812F4802F51
:105A70000DD01B6813F4002F04D1236C9BB120467A
:105A8000984710E0A36C73B1204698470BE01A6862
:105A900012F4807F03D11A6822F008021A60236C86
:105AA0000BB120469847E26D20239340334255D0F6
:105AB0002268126812F0100F50D0BB6094F8353095
:105AC000DBB2052B0ED023681A6812F4802F33D076
:105AD0001B6813F4002F2AD1636C002B3ED02046A4
